{
  "_format": "hh-sol-artifact-1",
  "contractName": "GAPResolver",
  "sourceName": "contracts/GapResolver.sol",
  "abi": [
    {
      "inputs": [
        {
          "internalType": "contract IEAS",
          "name": "eas",
          "type": "address"
        }
      ],
      "stateMutability": "nonpayable",
      "type": "constructor"
    },
    {
      "inputs": [],
      "name": "AccessDenied",
      "type": "error"
    },
    {
      "inputs": [],
      "name": "InsufficientValue",
      "type": "error"
    },
    {
      "inputs": [],
      "name": "InvalidEAS",
      "type": "error"
    },
    {
      "inputs": [],
      "name": "NotPayable",
      "type": "error"
    },
    {
      "anonymous": false,
      "inputs": [
        {
          "indexed": false,
          "internalType": "uint8",
          "name": "version",
          "type": "uint8"
        }
      ],
      "name": "Initialized",
      "type": "event"
    },
    {
      "anonymous": false,
      "inputs": [
        {
          "indexed": true,
          "internalType": "address",
          "name": "previousOwner",
          "type": "address"
        },
        {
          "indexed": true,
          "internalType": "address",
          "name": "newOwner",
          "type": "address"
        }
      ],
      "name": "OwnershipTransferred",
      "type": "event"
    },
    {
      "inputs": [
        {
          "components": [
            {
              "internalType": "bytes32",
              "name": "uid",
              "type": "bytes32"
            },
            {
              "internalType": "bytes32",
              "name": "schema",
              "type": "bytes32"
            },
            {
              "internalType": "uint64",
              "name": "time",
              "type": "uint64"
            },
            {
              "internalType": "uint64",
              "name": "expirationTime",
              "type": "uint64"
            },
            {
              "internalType": "uint64",
              "name": "revocationTime",
              "type": "uint64"
            },
            {
              "internalType": "bytes32",
              "name": "refUID",
              "type": "bytes32"
            },
            {
              "internalType": "address",
              "name": "recipient",
              "type": "address"
            },
            {
              "internalType": "address",
              "name": "attester",
              "type": "address"
            },
            {
              "internalType": "bool",
              "name": "revocable",
              "type": "bool"
            },
            {
              "internalType": "bytes",
              "name": "data",
              "type": "bytes"
            }
          ],
          "internalType": "struct Attestation",
          "name": "attestation",
          "type": "tuple"
        }
      ],
      "name": "attest",
      "outputs": [
        {
          "internalType": "bool",
          "name": "",
          "type": "bool"
        }
      ],
      "stateMutability": "payable",
      "type": "function"
    },
    {
      "inputs": [],
      "name": "isPayable",
      "outputs": [
        {
          "internalType": "bool",
          "name": "",
          "type": "bool"
        }
      ],
      "stateMutability": "pure",
      "type": "function"
    },
    {
      "inputs": [
        {
          "components": [
            {
              "internalType": "bytes32",
              "name": "uid",
              "type": "bytes32"
            },
            {
              "internalType": "bytes32",
              "name": "schema",
              "type": "bytes32"
            },
            {
              "internalType": "uint64",
              "name": "time",
              "type": "uint64"
            },
            {
              "internalType": "uint64",
              "name": "expirationTime",
              "type": "uint64"
            },
            {
              "internalType": "uint64",
              "name": "revocationTime",
              "type": "uint64"
            },
            {
              "internalType": "bytes32",
              "name": "refUID",
              "type": "bytes32"
            },
            {
              "internalType": "address",
              "name": "recipient",
              "type": "address"
            },
            {
              "internalType": "address",
              "name": "attester",
              "type": "address"
            },
            {
              "internalType": "bool",
              "name": "revocable",
              "type": "bool"
            },
            {
              "internalType": "bytes",
              "name": "data",
              "type": "bytes"
            }
          ],
          "internalType": "struct Attestation[]",
          "name": "attestations",
          "type": "tuple[]"
        },
        {
          "internalType": "uint256[]",
          "name": "values",
          "type": "uint256[]"
        }
      ],
      "name": "multiAttest",
      "outputs": [
        {
          "internalType": "bool",
          "name": "",
          "type": "bool"
        }
      ],
      "stateMutability": "payable",
      "type": "function"
    },
    {
      "inputs": [
        {
          "components": [
            {
              "internalType": "bytes32",
              "name": "uid",
              "type": "bytes32"
            },
            {
              "internalType": "bytes32",
              "name": "schema",
              "type": "bytes32"
            },
            {
              "internalType": "uint64",
              "name": "time",
              "type": "uint64"
            },
            {
              "internalType": "uint64",
              "name": "expirationTime",
              "type": "uint64"
            },
            {
              "internalType": "uint64",
              "name": "revocationTime",
              "type": "uint64"
            },
            {
              "internalType": "bytes32",
              "name": "refUID",
              "type": "bytes32"
            },
            {
              "internalType": "address",
              "name": "recipient",
              "type": "address"
            },
            {
              "internalType": "address",
              "name": "attester",
              "type": "address"
            },
            {
              "internalType": "bool",
              "name": "revocable",
              "type": "bool"
            },
            {
              "internalType": "bytes",
              "name": "data",
              "type": "bytes"
            }
          ],
          "internalType": "struct Attestation[]",
          "name": "attestations",
          "type": "tuple[]"
        },
        {
          "internalType": "uint256[]",
          "name": "values",
          "type": "uint256[]"
        }
      ],
      "name": "multiRevoke",
      "outputs": [
        {
          "internalType": "bool",
          "name": "",
          "type": "bool"
        }
      ],
      "stateMutability": "payable",
      "type": "function"
    },
    {
      "inputs": [],
      "name": "owner",
      "outputs": [
        {
          "internalType": "address",
          "name": "",
          "type": "address"
        }
      ],
      "stateMutability": "view",
      "type": "function"
    },
    {
      "inputs": [],
      "name": "renounceOwnership",
      "outputs": [],
      "stateMutability": "nonpayable",
      "type": "function"
    },
    {
      "inputs": [
        {
          "components": [
            {
              "internalType": "bytes32",
              "name": "uid",
              "type": "bytes32"
            },
            {
              "internalType": "bytes32",
              "name": "schema",
              "type": "bytes32"
            },
            {
              "internalType": "uint64",
              "name": "time",
              "type": "uint64"
            },
            {
              "internalType": "uint64",
              "name": "expirationTime",
              "type": "uint64"
            },
            {
              "internalType": "uint64",
              "name": "revocationTime",
              "type": "uint64"
            },
            {
              "internalType": "bytes32",
              "name": "refUID",
              "type": "bytes32"
            },
            {
              "internalType": "address",
              "name": "recipient",
              "type": "address"
            },
            {
              "internalType": "address",
              "name": "attester",
              "type": "address"
            },
            {
              "internalType": "bool",
              "name": "revocable",
              "type": "bool"
            },
            {
              "internalType": "bytes",
              "name": "data",
              "type": "bytes"
            }
          ],
          "internalType": "struct Attestation",
          "name": "attestation",
          "type": "tuple"
        }
      ],
      "name": "revoke",
      "outputs": [
        {
          "internalType": "bool",
          "name": "",
          "type": "bool"
        }
      ],
      "stateMutability": "payable",
      "type": "function"
    },
    {
      "inputs": [
        {
          "internalType": "address",
          "name": "newOwner",
          "type": "address"
        }
      ],
      "name": "transferOwnership",
      "outputs": [],
      "stateMutability": "nonpayable",
      "type": "function"
    },
    {
      "inputs": [],
      "name": "version",
      "outputs": [
        {
          "internalType": "string",
          "name": "",
          "type": "string"
        }
      ],
      "stateMutability": "view",
      "type": "function"
    },
    {
      "stateMutability": "payable",
      "type": "receive"
    }
  ],
  "bytecode": "0x61010060405234801561001157600080fd5b50604051610b17380380610b1783398101604081905261003091610140565b6001608052600060a081905260c052806001600160a01b038116610067576040516341bc07ff60e11b815260040160405180910390fd5b6001600160a01b031660e05261007b610081565b50610170565b600054610100900460ff16156100ed5760405162461bcd60e51b815260206004820152602760248201527f496e697469616c697a61626c653a20636f6e747261637420697320696e697469604482015266616c697a696e6760c81b606482015260840160405180910390fd5b60005460ff9081161461013e576000805460ff191660ff9081179091556040519081527f7f26b83ff96e1f2b6a682f133852f6798a09c465da95921460cefb38474024989060200160405180910390a15b565b60006020828403121561015257600080fd5b81516001600160a01b038116811461016957600080fd5b9392505050565b60805160a05160c05160e05161096e6101a960003960006105c101526000610216015260006101ed015260006101c4015261096e6000f3fe60806040526004361061009a5760003560e01c806391db0b7e11610069578063e49617e11161004e578063e49617e11461018a578063e60c35051461018a578063f2fde38b1461019d57600080fd5b806391db0b7e14610163578063ce46e0461461017657600080fd5b806354fd4d50146100d8578063715018a61461010357806388e5b2d9146101185780638da5cb5b1461013b57600080fd5b366100d3576040517f1574f9f300000000000000000000000000000000000000000000000000000000815260040160405180910390fd5b005b600080fd5b3480156100e457600080fd5b506100ed6101bd565b6040516100fa919061071e565b60405180910390f35b34801561010f57600080fd5b506100d1610260565b61012b61012636600461079d565b610274565b60405190151581526020016100fa565b34801561014757600080fd5b506033546040516001600160a01b0390911681526020016100fa565b61012b61017136600461079d565b610323565b34801561018257600080fd5b50600061012b565b61012b610198366004610809565b6103aa565b3480156101a957600080fd5b506100d16101b836600461084c565b6103bd565b60606101e87f0000000000000000000000000000000000000000000000000000000000000000610452565b6102117f0000000000000000000000000000000000000000000000000000000000000000610452565b61023a7f0000000000000000000000000000000000000000000000000000000000000000610452565b60405160200161024c93929190610875565b604051602081830303815290604052905090565b6102686104f2565b610272600061054c565b565b600061027e6105b6565b833460005b8281101561031357600086868381811061029f5761029f6108eb565b905060200201359050828111156102c95760405163044044a560e21b815260040160405180910390fd5b6102f68989848181106102de576102de6108eb565b90506020028101906102f09190610901565b50600190565b61030757600094505050505061031b565b90910390600101610283565b506001925050505b949350505050565b600061032d6105b6565b833460005b8281101561031357600086868381811061034e5761034e6108eb565b905060200201359050828111156103785760405163044044a560e21b815260040160405180910390fd5b61038d8989848181106102de576102de6108eb565b61039e57600094505050505061031b565b90910390600101610332565b60006103b46105b6565b60015b92915050565b6103c56104f2565b6001600160a01b0381166104465760405162461bcd60e51b815260206004820152602660248201527f4f776e61626c653a206e6577206f776e657220697320746865207a65726f206160448201527f646472657373000000000000000000000000000000000000000000000000000060648201526084015b60405180910390fd5b61044f8161054c565b50565b6060600061045f83610618565b600101905060008167ffffffffffffffff81111561047f5761047f610922565b6040519080825280601f01601f1916602001820160405280156104a9576020820181803683370190505b5090508181016020015b600019017f3031323334353637383961626364656600000000000000000000000000000000600a86061a8153600a85049450846104b357509392505050565b6033546001600160a01b031633146102725760405162461bcd60e51b815260206004820181905260248201527f4f776e61626c653a2063616c6c6572206973206e6f7420746865206f776e6572604482015260640161043d565b603380546001600160a01b038381167fffffffffffffffffffffffff0000000000000000000000000000000000000000831681179093556040519116919082907f8be0079c531659141344cd1fd0a4f28419497f9722a3daafe3b4186f6b6457e090600090a35050565b336001600160a01b037f00000000000000000000000000000000000000000000000000000000000000001614610272576040517f4ca8886700000000000000000000000000000000000000000000000000000000815260040160405180910390fd5b6000807a184f03e93ff9f4daa797ed6e38ed64bf6a1f0100000000000000008310610661577a184f03e93ff9f4daa797ed6e38ed64bf6a1f010000000000000000830492506040015b6d04ee2d6d415b85acef8100000000831061068d576d04ee2d6d415b85acef8100000000830492506020015b662386f26fc1000083106106ab57662386f26fc10000830492506010015b6305f5e10083106106c3576305f5e100830492506008015b61271083106106d757612710830492506004015b606483106106e9576064830492506002015b600a83106103b75760010192915050565b60005b838110156107155781810151838201526020016106fd565b50506000910152565b602081526000825180602084015261073d8160408501602087016106fa565b601f01601f19169190910160400192915050565b60008083601f84011261076357600080fd5b50813567ffffffffffffffff81111561077b57600080fd5b6020830191508360208260051b850101111561079657600080fd5b9250929050565b600080600080604085870312156107b357600080fd5b843567ffffffffffffffff808211156107cb57600080fd5b6107d788838901610751565b909650945060208701359150808211156107f057600080fd5b506107fd87828801610751565b95989497509550505050565b60006020828403121561081b57600080fd5b813567ffffffffffffffff81111561083257600080fd5b8201610140818503121561084557600080fd5b9392505050565b60006020828403121561085e57600080fd5b81356001600160a01b038116811461084557600080fd5b600084516108878184602089016106fa565b80830190507f2e0000000000000000000000000000000000000000000000000000000000000080825285516108c3816001850160208a016106fa565b600192019182015283516108de8160028401602088016106fa565b0160020195945050505050565b634e487b7160e01b600052603260045260246000fd5b6000823561013e1983360301811261091857600080fd5b9190910192915050565b634e487b7160e01b600052604160045260246000fdfea2646970667358221220c48e905eb7e13869df36a2f9ae9fadce9b0377f1efad1967194511357ca97deb64736f6c63430008130033",
  "linkReferences": {},
  "deployedLinkReferences": {}
}