{
  "_format": "hh-sol-artifact-1",
  "contractName": "CommunityResolver",
  "sourceName": "contracts/CommunityResolver.sol",
  "abi": [
    {
      "inputs": [
        {
          "internalType": "contract IEAS",
          "name": "eas",
          "type": "address"
        }
      ],
      "stateMutability": "nonpayable",
      "type": "constructor"
    },
    {
      "inputs": [],
      "name": "AccessDenied",
      "type": "error"
    },
    {
      "inputs": [],
      "name": "InsufficientValue",
      "type": "error"
    },
    {
      "inputs": [],
      "name": "InvalidEAS",
      "type": "error"
    },
    {
      "inputs": [],
      "name": "NotPayable",
      "type": "error"
    },
    {
      "anonymous": false,
      "inputs": [
        {
          "indexed": false,
          "internalType": "uint8",
          "name": "version",
          "type": "uint8"
        }
      ],
      "name": "Initialized",
      "type": "event"
    },
    {
      "anonymous": false,
      "inputs": [
        {
          "indexed": true,
          "internalType": "address",
          "name": "previousOwner",
          "type": "address"
        },
        {
          "indexed": true,
          "internalType": "address",
          "name": "newOwner",
          "type": "address"
        }
      ],
      "name": "OwnershipTransferred",
      "type": "event"
    },
    {
      "inputs": [
        {
          "components": [
            {
              "internalType": "bytes32",
              "name": "uid",
              "type": "bytes32"
            },
            {
              "internalType": "bytes32",
              "name": "schema",
              "type": "bytes32"
            },
            {
              "internalType": "uint64",
              "name": "time",
              "type": "uint64"
            },
            {
              "internalType": "uint64",
              "name": "expirationTime",
              "type": "uint64"
            },
            {
              "internalType": "uint64",
              "name": "revocationTime",
              "type": "uint64"
            },
            {
              "internalType": "bytes32",
              "name": "refUID",
              "type": "bytes32"
            },
            {
              "internalType": "address",
              "name": "recipient",
              "type": "address"
            },
            {
              "internalType": "address",
              "name": "attester",
              "type": "address"
            },
            {
              "internalType": "bool",
              "name": "revocable",
              "type": "bool"
            },
            {
              "internalType": "bytes",
              "name": "data",
              "type": "bytes"
            }
          ],
          "internalType": "struct Attestation",
          "name": "attestation",
          "type": "tuple"
        }
      ],
      "name": "attest",
      "outputs": [
        {
          "internalType": "bool",
          "name": "",
          "type": "bool"
        }
      ],
      "stateMutability": "payable",
      "type": "function"
    },
    {
      "inputs": [
        {
          "internalType": "address",
          "name": "attester",
          "type": "address"
        }
      ],
      "name": "canAttest",
      "outputs": [
        {
          "internalType": "bool",
          "name": "",
          "type": "bool"
        }
      ],
      "stateMutability": "view",
      "type": "function"
    },
    {
      "inputs": [
        {
          "internalType": "bytes32",
          "name": "community",
          "type": "bytes32"
        },
        {
          "internalType": "address",
          "name": "addr",
          "type": "address"
        }
      ],
      "name": "delist",
      "outputs": [],
      "stateMutability": "nonpayable",
      "type": "function"
    },
    {
      "inputs": [
        {
          "internalType": "bytes32",
          "name": "community",
          "type": "bytes32"
        },
        {
          "internalType": "address",
          "name": "addr",
          "type": "address"
        }
      ],
      "name": "enlist",
      "outputs": [],
      "stateMutability": "nonpayable",
      "type": "function"
    },
    {
      "inputs": [
        {
          "internalType": "bytes32",
          "name": "community",
          "type": "bytes32"
        },
        {
          "internalType": "address",
          "name": "addr",
          "type": "address"
        }
      ],
      "name": "isAdmin",
      "outputs": [
        {
          "internalType": "bool",
          "name": "",
          "type": "bool"
        }
      ],
      "stateMutability": "view",
      "type": "function"
    },
    {
      "inputs": [],
      "name": "isPayable",
      "outputs": [
        {
          "internalType": "bool",
          "name": "",
          "type": "bool"
        }
      ],
      "stateMutability": "pure",
      "type": "function"
    },
    {
      "inputs": [
        {
          "components": [
            {
              "internalType": "bytes32",
              "name": "uid",
              "type": "bytes32"
            },
            {
              "internalType": "bytes32",
              "name": "schema",
              "type": "bytes32"
            },
            {
              "internalType": "uint64",
              "name": "time",
              "type": "uint64"
            },
            {
              "internalType": "uint64",
              "name": "expirationTime",
              "type": "uint64"
            },
            {
              "internalType": "uint64",
              "name": "revocationTime",
              "type": "uint64"
            },
            {
              "internalType": "bytes32",
              "name": "refUID",
              "type": "bytes32"
            },
            {
              "internalType": "address",
              "name": "recipient",
              "type": "address"
            },
            {
              "internalType": "address",
              "name": "attester",
              "type": "address"
            },
            {
              "internalType": "bool",
              "name": "revocable",
              "type": "bool"
            },
            {
              "internalType": "bytes",
              "name": "data",
              "type": "bytes"
            }
          ],
          "internalType": "struct Attestation[]",
          "name": "attestations",
          "type": "tuple[]"
        },
        {
          "internalType": "uint256[]",
          "name": "values",
          "type": "uint256[]"
        }
      ],
      "name": "multiAttest",
      "outputs": [
        {
          "internalType": "bool",
          "name": "",
          "type": "bool"
        }
      ],
      "stateMutability": "payable",
      "type": "function"
    },
    {
      "inputs": [
        {
          "components": [
            {
              "internalType": "bytes32",
              "name": "uid",
              "type": "bytes32"
            },
            {
              "internalType": "bytes32",
              "name": "schema",
              "type": "bytes32"
            },
            {
              "internalType": "uint64",
              "name": "time",
              "type": "uint64"
            },
            {
              "internalType": "uint64",
              "name": "expirationTime",
              "type": "uint64"
            },
            {
              "internalType": "uint64",
              "name": "revocationTime",
              "type": "uint64"
            },
            {
              "internalType": "bytes32",
              "name": "refUID",
              "type": "bytes32"
            },
            {
              "internalType": "address",
              "name": "recipient",
              "type": "address"
            },
            {
              "internalType": "address",
              "name": "attester",
              "type": "address"
            },
            {
              "internalType": "bool",
              "name": "revocable",
              "type": "bool"
            },
            {
              "internalType": "bytes",
              "name": "data",
              "type": "bytes"
            }
          ],
          "internalType": "struct Attestation[]",
          "name": "attestations",
          "type": "tuple[]"
        },
        {
          "internalType": "uint256[]",
          "name": "values",
          "type": "uint256[]"
        }
      ],
      "name": "multiRevoke",
      "outputs": [
        {
          "internalType": "bool",
          "name": "",
          "type": "bool"
        }
      ],
      "stateMutability": "payable",
      "type": "function"
    },
    {
      "inputs": [],
      "name": "owner",
      "outputs": [
        {
          "internalType": "address",
          "name": "",
          "type": "address"
        }
      ],
      "stateMutability": "view",
      "type": "function"
    },
    {
      "inputs": [],
      "name": "renounceOwnership",
      "outputs": [],
      "stateMutability": "nonpayable",
      "type": "function"
    },
    {
      "inputs": [
        {
          "components": [
            {
              "internalType": "bytes32",
              "name": "uid",
              "type": "bytes32"
            },
            {
              "internalType": "bytes32",
              "name": "schema",
              "type": "bytes32"
            },
            {
              "internalType": "uint64",
              "name": "time",
              "type": "uint64"
            },
            {
              "internalType": "uint64",
              "name": "expirationTime",
              "type": "uint64"
            },
            {
              "internalType": "uint64",
              "name": "revocationTime",
              "type": "uint64"
            },
            {
              "internalType": "bytes32",
              "name": "refUID",
              "type": "bytes32"
            },
            {
              "internalType": "address",
              "name": "recipient",
              "type": "address"
            },
            {
              "internalType": "address",
              "name": "attester",
              "type": "address"
            },
            {
              "internalType": "bool",
              "name": "revocable",
              "type": "bool"
            },
            {
              "internalType": "bytes",
              "name": "data",
              "type": "bytes"
            }
          ],
          "internalType": "struct Attestation",
          "name": "attestation",
          "type": "tuple"
        }
      ],
      "name": "revoke",
      "outputs": [
        {
          "internalType": "bool",
          "name": "",
          "type": "bool"
        }
      ],
      "stateMutability": "payable",
      "type": "function"
    },
    {
      "inputs": [
        {
          "internalType": "address",
          "name": "newOwner",
          "type": "address"
        }
      ],
      "name": "transferOwnership",
      "outputs": [],
      "stateMutability": "nonpayable",
      "type": "function"
    },
    {
      "inputs": [],
      "name": "version",
      "outputs": [
        {
          "internalType": "string",
          "name": "",
          "type": "string"
        }
      ],
      "stateMutability": "view",
      "type": "function"
    },
    {
      "stateMutability": "payable",
      "type": "receive"
    }
  ],
  "bytecode": "0x61010060405234801561001157600080fd5b50604051610da3380380610da383398101604081905261003091610152565b6001608052600060a081905260c052806001600160a01b038116610067576040516341bc07ff60e11b815260040160405180910390fd5b6001600160a01b031660e052606680546001600160a01b0319163317905561008d610093565b50610182565b600054610100900460ff16156100ff5760405162461bcd60e51b815260206004820152602760248201527f496e697469616c697a61626c653a20636f6e747261637420697320696e697469604482015266616c697a696e6760c81b606482015260840160405180910390fd5b60005460ff90811614610150576000805460ff191660ff9081179091556040519081527f7f26b83ff96e1f2b6a682f133852f6798a09c465da95921460cefb38474024989060200160405180910390a15b565b60006020828403121561016457600080fd5b81516001600160a01b038116811461017b57600080fd5b9392505050565b60805160a05160c05160e051610be86101bb60003960006107f6015260006103680152600061033f015260006103160152610be86000f3fe6080604052600436106100d65760003560e01c806391db0b7e1161007f578063d5cbe2bc11610059578063d5cbe2bc14610235578063e49617e114610255578063e60c350514610268578063f2fde38b1461027b57600080fd5b806391db0b7e146101ee578063b75dbb8e14610201578063ce46e0461461022157600080fd5b8063715018a6116100b0578063715018a61461019e57806388e5b2d9146101b35780638da5cb5b146101c657600080fd5b80631b4947021461011457806354fd4d501461013457806357692ad21461015f57600080fd5b3661010f576040517f1574f9f300000000000000000000000000000000000000000000000000000000815260040160405180910390fd5b005b600080fd5b34801561012057600080fd5b5061010d61012f36600461095d565b61029b565b34801561014057600080fd5b5061014961030f565b60405161015691906109ad565b60405180910390f35b34801561016b57600080fd5b5061018e61017a3660046109e0565b6066546001600160a01b0391821691161490565b6040519015158152602001610156565b3480156101aa57600080fd5b5061010d6103b2565b61018e6101c1366004610a47565b6103c6565b3480156101d257600080fd5b506033546040516001600160a01b039091168152602001610156565b61018e6101fc366004610a47565b610475565b34801561020d57600080fd5b5061018e61021c36600461095d565b610514565b34801561022d57600080fd5b50600061018e565b34801561024157600080fd5b5061010d61025036600461095d565b61055c565b61018e610263366004610ab3565b6105ce565b61018e610276366004610ab3565b6105e3565b34801561028757600080fd5b5061010d6102963660046109e0565b6105f7565b6102a58233610514565b6102e25760405162461bcd60e51b81526020600482015260096024820152682737ba1037bbb732b960b91b60448201526064015b60405180910390fd5b60009182526065602090815260408084206001600160a01b0390931684529190529020805460ff19169055565b606061033a7f0000000000000000000000000000000000000000000000000000000000000000610687565b6103637f0000000000000000000000000000000000000000000000000000000000000000610687565b61038c7f0000000000000000000000000000000000000000000000000000000000000000610687565b60405160200161039e93929190610aef565b604051602081830303815290604052905090565b6103ba610727565b6103c46000610781565b565b60006103d06107eb565b833460005b828110156104655760008686838181106103f1576103f1610b65565b9050602002013590508281111561041b5760405163044044a560e21b815260040160405180910390fd5b61044889898481811061043057610430610b65565b90506020028101906104429190610b7b565b50600190565b61045957600094505050505061046d565b909103906001016103d5565b506001925050505b949350505050565b600061047f6107eb565b833460005b828110156104655760008686838181106104a0576104a0610b65565b905060200201359050828111156104ca5760405163044044a560e21b815260040160405180910390fd5b6104f78989848181106104df576104df610b65565b90506020028101906104f19190610b7b565b8261084d565b61050857600094505050505061046d565b90910390600101610484565b6066546000906001600160a01b0316331480610555575060008381526065602090815260408083206001600160a01b038616845290915290205460ff166001145b9392505050565b6105668233610514565b61059e5760405162461bcd60e51b81526020600482015260096024820152682737ba1037bbb732b960b91b60448201526064016102d9565b60009182526065602090815260408084206001600160a01b0390931684529190529020805460ff19166001179055565b60006105d86107eb565b60015b90505b919050565b60006105ed6107eb565b6105db823461084d565b6105ff610727565b6001600160a01b03811661067b5760405162461bcd60e51b815260206004820152602660248201527f4f776e61626c653a206e6577206f776e657220697320746865207a65726f206160448201527f646472657373000000000000000000000000000000000000000000000000000060648201526084016102d9565b61068481610781565b50565b6060600061069483610863565b600101905060008167ffffffffffffffff8111156106b4576106b4610b9c565b6040519080825280601f01601f1916602001820160405280156106de576020820181803683370190505b5090508181016020015b600019017f3031323334353637383961626364656600000000000000000000000000000000600a86061a8153600a85049450846106e857509392505050565b6033546001600160a01b031633146103c45760405162461bcd60e51b815260206004820181905260248201527f4f776e61626c653a2063616c6c6572206973206e6f7420746865206f776e657260448201526064016102d9565b603380546001600160a01b038381167fffffffffffffffffffffffff0000000000000000000000000000000000000000831681179093556040519116919082907f8be0079c531659141344cd1fd0a4f28419497f9722a3daafe3b4186f6b6457e090600090a35050565b336001600160a01b037f000000000000000000000000000000000000000000000000000000000000000016146103c4576040517f4ca8886700000000000000000000000000000000000000000000000000000000815260040160405180910390fd5b600061055561017a610100850160e086016109e0565b6000807a184f03e93ff9f4daa797ed6e38ed64bf6a1f01000000000000000083106108ac577a184f03e93ff9f4daa797ed6e38ed64bf6a1f010000000000000000830492506040015b6d04ee2d6d415b85acef810000000083106108d8576d04ee2d6d415b85acef8100000000830492506020015b662386f26fc1000083106108f657662386f26fc10000830492506010015b6305f5e100831061090e576305f5e100830492506008015b612710831061092257612710830492506004015b60648310610934576064830492506002015b600a8310610940576001015b92915050565b80356001600160a01b03811681146105de57600080fd5b6000806040838503121561097057600080fd5b8235915061098060208401610946565b90509250929050565b60005b838110156109a457818101518382015260200161098c565b50506000910152565b60208152600082518060208401526109cc816040850160208701610989565b601f01601f19169190910160400192915050565b6000602082840312156109f257600080fd5b61055582610946565b60008083601f840112610a0d57600080fd5b50813567ffffffffffffffff811115610a2557600080fd5b6020830191508360208260051b8501011115610a4057600080fd5b9250929050565b60008060008060408587031215610a5d57600080fd5b843567ffffffffffffffff80821115610a7557600080fd5b610a81888389016109fb565b90965094506020870135915080821115610a9a57600080fd5b50610aa7878288016109fb565b95989497509550505050565b600060208284031215610ac557600080fd5b813567ffffffffffffffff811115610adc57600080fd5b8201610140818503121561055557600080fd5b60008451610b01818460208901610989565b80830190507f2e000000000000000000000000000000000000000000000000000000000000008082528551610b3d816001850160208a01610989565b60019201918201528351610b58816002840160208801610989565b0160020195945050505050565b634e487b7160e01b600052603260045260246000fd5b6000823561013e19833603018112610b9257600080fd5b9190910192915050565b634e487b7160e01b600052604160045260246000fdfea2646970667358221220542fbbc3290228a170ad453c14f77451f9572bdc8742f3d759b56b13bc32a89a64736f6c63430008130033",
  "linkReferences": {},
  "deployedLinkReferences": {}
}