{
  "_format": "hh-sol-artifact-1",
  "contractName": "SignVerify",
  "sourceName": "contracts/SignVerify.sol",
  "abi": [
    {
      "inputs": [],
      "stateMutability": "nonpayable",
      "type": "constructor"
    },
    {
      "inputs": [],
      "name": "InvalidShortString",
      "type": "error"
    },
    {
      "inputs": [
        {
          "internalType": "string",
          "name": "str",
          "type": "string"
        }
      ],
      "name": "StringTooLong",
      "type": "error"
    },
    {
      "anonymous": false,
      "inputs": [],
      "name": "EIP712DomainChanged",
      "type": "event"
    },
    {
      "inputs": [],
      "name": "ATTESTATIONREQUESTDATA_TYPEHASH",
      "outputs": [
        {
          "internalType": "bytes32",
          "name": "",
          "type": "bytes32"
        }
      ],
      "stateMutability": "view",
      "type": "function"
    },
    {
      "inputs": [],
      "name": "ATTESTJSON_TYPEHASH",
      "outputs": [
        {
          "internalType": "bytes32",
          "name": "",
          "type": "bytes32"
        }
      ],
      "stateMutability": "view",
      "type": "function"
    },
    {
      "inputs": [],
      "name": "ATTEST_TYPEHASH",
      "outputs": [
        {
          "internalType": "bytes32",
          "name": "",
          "type": "bytes32"
        }
      ],
      "stateMutability": "view",
      "type": "function"
    },
    {
      "inputs": [
        {
          "components": [
            {
              "internalType": "uint256",
              "name": "number",
              "type": "uint256"
            }
          ],
          "internalType": "struct SignVerify.AttestationRequestData",
          "name": "request",
          "type": "tuple"
        },
        {
          "internalType": "address",
          "name": "attester",
          "type": "address"
        },
        {
          "internalType": "uint256",
          "name": "nonce",
          "type": "uint256"
        },
        {
          "internalType": "uint256",
          "name": "expiry",
          "type": "uint256"
        },
        {
          "internalType": "uint8",
          "name": "v",
          "type": "uint8"
        },
        {
          "internalType": "bytes32",
          "name": "r",
          "type": "bytes32"
        },
        {
          "internalType": "bytes32",
          "name": "s",
          "type": "bytes32"
        }
      ],
      "name": "attestBySig",
      "outputs": [
        {
          "internalType": "address",
          "name": "",
          "type": "address"
        },
        {
          "internalType": "address",
          "name": "",
          "type": "address"
        }
      ],
      "stateMutability": "nonpayable",
      "type": "function"
    },
    {
      "inputs": [
        {
          "internalType": "string",
          "name": "request",
          "type": "string"
        },
        {
          "internalType": "address",
          "name": "attester",
          "type": "address"
        },
        {
          "internalType": "uint256",
          "name": "nonce",
          "type": "uint256"
        },
        {
          "internalType": "uint256",
          "name": "expiry",
          "type": "uint256"
        },
        {
          "internalType": "uint8",
          "name": "v",
          "type": "uint8"
        },
        {
          "internalType": "bytes32",
          "name": "r",
          "type": "bytes32"
        },
        {
          "internalType": "bytes32",
          "name": "s",
          "type": "bytes32"
        }
      ],
      "name": "attestJSONBySig",
      "outputs": [
        {
          "internalType": "address",
          "name": "",
          "type": "address"
        },
        {
          "internalType": "address",
          "name": "",
          "type": "address"
        }
      ],
      "stateMutability": "view",
      "type": "function"
    },
    {
      "inputs": [],
      "name": "eip712Domain",
      "outputs": [
        {
          "internalType": "bytes1",
          "name": "fields",
          "type": "bytes1"
        },
        {
          "internalType": "string",
          "name": "name",
          "type": "string"
        },
        {
          "internalType": "string",
          "name": "version",
          "type": "string"
        },
        {
          "internalType": "uint256",
          "name": "chainId",
          "type": "uint256"
        },
        {
          "internalType": "address",
          "name": "verifyingContract",
          "type": "address"
        },
        {
          "internalType": "bytes32",
          "name": "salt",
          "type": "bytes32"
        },
        {
          "internalType": "uint256[]",
          "name": "extensions",
          "type": "uint256[]"
        }
      ],
      "stateMutability": "view",
      "type": "function"
    },
    {
      "inputs": [],
      "name": "worked",
      "outputs": [
        {
          "internalType": "bool",
          "name": "",
          "type": "bool"
        }
      ],
      "stateMutability": "view",
      "type": "function"
    }
  ],
  "bytecode": "0x6101606040523480156200001257600080fd5b50604080518082018252600f81526e33b0b816b0ba3a32b9ba30ba34b7b760891b602080830191909152825180840190935260038352620312e360ec1b9083015290620000618260006200010f565b61012052620000728160016200010f565b61014052815160208084019190912060e052815190820120610100524660a0526200010060e05161010051604080517f8b73c3c69bb8fe3d512ecc4cf759cc79239f7b179b0ffacaa9a75d522b39400f60208201529081019290925260608201524660808201523060a082015260009060c00160405160208183030381529060405280519060200120905090565b60805250503060c0526200037a565b60006020835110156200012f57620001278362000148565b905062000142565b816200013c848262000239565b5060ff90505b92915050565b600080829050601f815111156200017f578260405163305a27a960e01b815260040162000176919062000305565b60405180910390fd5b80516200018c8262000355565b179392505050565b634e487b7160e01b600052604160045260246000fd5b600181811c90821680620001bf57607f821691505b602082108103620001e057634e487b7160e01b600052602260045260246000fd5b50919050565b601f8211156200023457600081815260208120601f850160051c810160208610156200020f5750805b601f850160051c820191505b8181101562000230578281556001016200021b565b5050505b505050565b81516001600160401b0381111562000255576200025562000194565b6200026d81620002668454620001aa565b84620001e6565b602080601f831160018114620002a557600084156200028c5750858301515b600019600386901b1c1916600185901b17855562000230565b600085815260208120601f198616915b82811015620002d657888601518255948401946001909101908401620002b5565b5085821015620002f55787850151600019600388901b60f8161c191681555b5050505050600190811b01905550565b600060208083528351808285015260005b81811015620003345785810183015185820160400152820162000316565b506000604082860101526040601f19601f8301168501019250505092915050565b80516020808301519190811015620001e05760001960209190910360031b1b16919050565b60805160a05160c05160e051610100516101205161014051610bac620003d560003960006101c001526000610196015260006105960152600061056e015260006104c9015260006104f30152600061051d0152610bac6000f3fe608060405234801561001057600080fd5b506004361061007d5760003560e01c806384b0196e1161005b57806384b0196e1461010a578063b5a0a30a14610125578063c258e4ed14610158578063c3fb99691461017557600080fd5b80630c6e25c01461008257806324e69ef8146100bc5780637e4a7d8f146100e3575b600080fd5b6100a97f898405fc838d28bd91fb8de678c0fea36fd3ff6740d0ecbe4e49bec91c9bcc3d81565b6040519081526020015b60405180910390f35b6100a97fd9299df09da13e8c95a8ef26f7fc355be3571c3071a9e3e0337655efa906eb3781565b6100a97fdde0dd0ad3c74b851bdf3cbdb5812880391b2f961864defe5e7c8df4ff30269081565b610112610188565b6040516100b397969594939291906108a4565b6101386101333660046109ca565b61022c565b604080516001600160a01b039384168152929091166020830152016100b3565b6002546101659060ff1681565b60405190151581526020016100b3565b610138610183366004610aa7565b6102bc565b6000606080828080836101bb7f000000000000000000000000000000000000000000000000000000000000000083610360565b6101e67f00000000000000000000000000000000000000000000000000000000000000006001610360565b604080516000808252602082019092527f0f000000000000000000000000000000000000000000000000000000000000009b939a50919850469750309650945092509050565b60008060006102ae6102a67fd9299df09da13e8c95a8ef26f7fc355be3571c3071a9e3e0337655efa906eb378c805190602001208b8b60405160200161028b949392919093845260208401929092526040830152606082015260800190565b6040516020818303038152906040528051906020012061040d565b878787610455565b9a9899505050505050505050565b60008060006102ae6102a67fdde0dd0ad3c74b851bdf3cbdb5812880391b2f961864defe5e7c8df4ff30269061033b8d51604080517f898405fc838d28bd91fb8de678c0fea36fd3ff6740d0ecbe4e49bec91c9bcc3d602080830191909152818301939093528151808203830181526060909101909152805191012090565b604080516020810193909352820152606081018b9052608081018a905260a00161028b565b606060ff831461037a576103738361047d565b9050610407565b81805461038690610b26565b80601f01602080910402602001604051908101604052809291908181526020018280546103b290610b26565b80156103ff5780601f106103d4576101008083540402835291602001916103ff565b820191906000526020600020905b8154815290600101906020018083116103e257829003601f168201915b505050505090505b92915050565b600061040761041a6104bc565b836040517f19010000000000000000000000000000000000000000000000000000000000008152600281019290925260228201526042902090565b6000806000610466878787876105ec565b91509150610473816106b0565b5095945050505050565b6060600061048a8361081d565b604080516020808252818301909252919250600091906020820181803683375050509182525060208101929092525090565b6000306001600160a01b037f00000000000000000000000000000000000000000000000000000000000000001614801561051557507f000000000000000000000000000000000000000000000000000000000000000046145b1561053f57507f000000000000000000000000000000000000000000000000000000000000000090565b6105e7604080517f8b73c3c69bb8fe3d512ecc4cf759cc79239f7b179b0ffacaa9a75d522b39400f60208201527f0000000000000000000000000000000000000000000000000000000000000000918101919091527f000000000000000000000000000000000000000000000000000000000000000060608201524660808201523060a082015260009060c00160405160208183030381529060405280519060200120905090565b905090565b6000807f7fffffffffffffffffffffffffffffff5d576e7357a4501ddfe92f46681b20a083111561062357506000905060036106a7565b6040805160008082526020820180845289905260ff881692820192909252606081018690526080810185905260019060a0016020604051602081039080840390855afa158015610677573d6000803e3d6000fd5b5050604051601f1901519150506001600160a01b0381166106a0576000600192509250506106a7565b9150600090505b94509492505050565b60008160048111156106c4576106c4610b60565b036106cc5750565b60018160048111156106e0576106e0610b60565b036107325760405162461bcd60e51b815260206004820152601860248201527f45434453413a20696e76616c6964207369676e6174757265000000000000000060448201526064015b60405180910390fd5b600281600481111561074657610746610b60565b036107935760405162461bcd60e51b815260206004820152601f60248201527f45434453413a20696e76616c6964207369676e6174757265206c656e677468006044820152606401610729565b60038160048111156107a7576107a7610b60565b0361081a5760405162461bcd60e51b815260206004820152602260248201527f45434453413a20696e76616c6964207369676e6174757265202773272076616c60448201527f75650000000000000000000000000000000000000000000000000000000000006064820152608401610729565b50565b600060ff8216601f811115610407576040517fb3512b0c00000000000000000000000000000000000000000000000000000000815260040160405180910390fd5b6000815180845260005b8181101561088457602081850181015186830182015201610868565b506000602082860101526020601f19601f83011685010191505092915050565b7fff00000000000000000000000000000000000000000000000000000000000000881681526000602060e0818401526108e060e084018a61085e565b83810360408501526108f2818a61085e565b606085018990526001600160a01b038816608086015260a0850187905284810360c0860152855180825283870192509083019060005b8181101561094457835183529284019291840191600101610928565b50909c9b505050505050505050505050565b634e487b7160e01b600052604160045260246000fd5b604051601f8201601f1916810167ffffffffffffffff8111828210171561099557610995610956565b604052919050565b80356001600160a01b03811681146109b457600080fd5b919050565b803560ff811681146109b457600080fd5b600080600080600080600060e0888a0312156109e557600080fd5b873567ffffffffffffffff808211156109fd57600080fd5b818a0191508a601f830112610a1157600080fd5b8135602082821115610a2557610a25610956565b610a37601f8301601f1916820161096c565b92508183528c81838601011115610a4d57600080fd5b81818501828501376000818385010152829a50610a6b818d0161099d565b9950505050506040880135945060608801359350610a8b608089016109b9565b925060a0880135915060c0880135905092959891949750929550565b600080600080600080600087890360e0811215610ac357600080fd5b6020811215610ad157600080fd5b506040516020810181811067ffffffffffffffff82111715610af557610af5610956565b604052883581529650610b0a6020890161099d565b95506040880135945060608801359350610a8b608089016109b9565b600181811c90821680610b3a57607f821691505b602082108103610b5a57634e487b7160e01b600052602260045260246000fd5b50919050565b634e487b7160e01b600052602160045260246000fdfea26469706673582212207fd0595559796a252f955dc0ca3dd7444fb8fac53300ad5a82dc0b1d09f5720464736f6c63430008130033",
  "linkReferences": {},
  "deployedLinkReferences": {}
}