{
  "_format": "hh-sol-artifact-1",
  "contractName": "MilestoneStatusResolver",
  "sourceName": "contracts/MilestoneStatusResolver.sol",
  "abi": [
    {
      "inputs": [
        {
          "internalType": "contract IEAS",
          "name": "easRef",
          "type": "address"
        },
        {
          "internalType": "contract ICommunityResolver",
          "name": "resolver",
          "type": "address"
        }
      ],
      "stateMutability": "nonpayable",
      "type": "constructor"
    },
    {
      "inputs": [],
      "name": "AccessDenied",
      "type": "error"
    },
    {
      "inputs": [],
      "name": "InsufficientValue",
      "type": "error"
    },
    {
      "inputs": [],
      "name": "InvalidEAS",
      "type": "error"
    },
    {
      "inputs": [],
      "name": "NotPayable",
      "type": "error"
    },
    {
      "anonymous": false,
      "inputs": [
        {
          "indexed": false,
          "internalType": "uint8",
          "name": "version",
          "type": "uint8"
        }
      ],
      "name": "Initialized",
      "type": "event"
    },
    {
      "anonymous": false,
      "inputs": [
        {
          "indexed": true,
          "internalType": "address",
          "name": "previousOwner",
          "type": "address"
        },
        {
          "indexed": true,
          "internalType": "address",
          "name": "newOwner",
          "type": "address"
        }
      ],
      "name": "OwnershipTransferred",
      "type": "event"
    },
    {
      "inputs": [
        {
          "components": [
            {
              "internalType": "bytes32",
              "name": "uid",
              "type": "bytes32"
            },
            {
              "internalType": "bytes32",
              "name": "schema",
              "type": "bytes32"
            },
            {
              "internalType": "uint64",
              "name": "time",
              "type": "uint64"
            },
            {
              "internalType": "uint64",
              "name": "expirationTime",
              "type": "uint64"
            },
            {
              "internalType": "uint64",
              "name": "revocationTime",
              "type": "uint64"
            },
            {
              "internalType": "bytes32",
              "name": "refUID",
              "type": "bytes32"
            },
            {
              "internalType": "address",
              "name": "recipient",
              "type": "address"
            },
            {
              "internalType": "address",
              "name": "attester",
              "type": "address"
            },
            {
              "internalType": "bool",
              "name": "revocable",
              "type": "bool"
            },
            {
              "internalType": "bytes",
              "name": "data",
              "type": "bytes"
            }
          ],
          "internalType": "struct Attestation",
          "name": "attestation",
          "type": "tuple"
        }
      ],
      "name": "attest",
      "outputs": [
        {
          "internalType": "bool",
          "name": "",
          "type": "bool"
        }
      ],
      "stateMutability": "payable",
      "type": "function"
    },
    {
      "inputs": [
        {
          "internalType": "contract ICommunityResolver",
          "name": "resolver",
          "type": "address"
        }
      ],
      "name": "changeCommunityResolver",
      "outputs": [],
      "stateMutability": "nonpayable",
      "type": "function"
    },
    {
      "inputs": [
        {
          "internalType": "bytes",
          "name": "grantData",
          "type": "bytes"
        }
      ],
      "name": "getGrantCommunityUID",
      "outputs": [
        {
          "internalType": "bytes32",
          "name": "",
          "type": "bytes32"
        }
      ],
      "stateMutability": "pure",
      "type": "function"
    },
    {
      "inputs": [
        {
          "internalType": "bytes",
          "name": "milestoneData",
          "type": "bytes"
        }
      ],
      "name": "getMilestoneApprovalType",
      "outputs": [
        {
          "internalType": "bytes32",
          "name": "typeHash",
          "type": "bytes32"
        }
      ],
      "stateMutability": "view",
      "type": "function"
    },
    {
      "inputs": [],
      "name": "isPayable",
      "outputs": [
        {
          "internalType": "bool",
          "name": "",
          "type": "bool"
        }
      ],
      "stateMutability": "pure",
      "type": "function"
    },
    {
      "inputs": [
        {
          "components": [
            {
              "internalType": "bytes32",
              "name": "uid",
              "type": "bytes32"
            },
            {
              "internalType": "bytes32",
              "name": "schema",
              "type": "bytes32"
            },
            {
              "internalType": "uint64",
              "name": "time",
              "type": "uint64"
            },
            {
              "internalType": "uint64",
              "name": "expirationTime",
              "type": "uint64"
            },
            {
              "internalType": "uint64",
              "name": "revocationTime",
              "type": "uint64"
            },
            {
              "internalType": "bytes32",
              "name": "refUID",
              "type": "bytes32"
            },
            {
              "internalType": "address",
              "name": "recipient",
              "type": "address"
            },
            {
              "internalType": "address",
              "name": "attester",
              "type": "address"
            },
            {
              "internalType": "bool",
              "name": "revocable",
              "type": "bool"
            },
            {
              "internalType": "bytes",
              "name": "data",
              "type": "bytes"
            }
          ],
          "internalType": "struct Attestation[]",
          "name": "attestations",
          "type": "tuple[]"
        },
        {
          "internalType": "uint256[]",
          "name": "values",
          "type": "uint256[]"
        }
      ],
      "name": "multiAttest",
      "outputs": [
        {
          "internalType": "bool",
          "name": "",
          "type": "bool"
        }
      ],
      "stateMutability": "payable",
      "type": "function"
    },
    {
      "inputs": [
        {
          "components": [
            {
              "internalType": "bytes32",
              "name": "uid",
              "type": "bytes32"
            },
            {
              "internalType": "bytes32",
              "name": "schema",
              "type": "bytes32"
            },
            {
              "internalType": "uint64",
              "name": "time",
              "type": "uint64"
            },
            {
              "internalType": "uint64",
              "name": "expirationTime",
              "type": "uint64"
            },
            {
              "internalType": "uint64",
              "name": "revocationTime",
              "type": "uint64"
            },
            {
              "internalType": "bytes32",
              "name": "refUID",
              "type": "bytes32"
            },
            {
              "internalType": "address",
              "name": "recipient",
              "type": "address"
            },
            {
              "internalType": "address",
              "name": "attester",
              "type": "address"
            },
            {
              "internalType": "bool",
              "name": "revocable",
              "type": "bool"
            },
            {
              "internalType": "bytes",
              "name": "data",
              "type": "bytes"
            }
          ],
          "internalType": "struct Attestation[]",
          "name": "attestations",
          "type": "tuple[]"
        },
        {
          "internalType": "uint256[]",
          "name": "values",
          "type": "uint256[]"
        }
      ],
      "name": "multiRevoke",
      "outputs": [
        {
          "internalType": "bool",
          "name": "",
          "type": "bool"
        }
      ],
      "stateMutability": "payable",
      "type": "function"
    },
    {
      "inputs": [],
      "name": "owner",
      "outputs": [
        {
          "internalType": "address",
          "name": "",
          "type": "address"
        }
      ],
      "stateMutability": "view",
      "type": "function"
    },
    {
      "inputs": [],
      "name": "renounceOwnership",
      "outputs": [],
      "stateMutability": "nonpayable",
      "type": "function"
    },
    {
      "inputs": [
        {
          "components": [
            {
              "internalType": "bytes32",
              "name": "uid",
              "type": "bytes32"
            },
            {
              "internalType": "bytes32",
              "name": "schema",
              "type": "bytes32"
            },
            {
              "internalType": "uint64",
              "name": "time",
              "type": "uint64"
            },
            {
              "internalType": "uint64",
              "name": "expirationTime",
              "type": "uint64"
            },
            {
              "internalType": "uint64",
              "name": "revocationTime",
              "type": "uint64"
            },
            {
              "internalType": "bytes32",
              "name": "refUID",
              "type": "bytes32"
            },
            {
              "internalType": "address",
              "name": "recipient",
              "type": "address"
            },
            {
              "internalType": "address",
              "name": "attester",
              "type": "address"
            },
            {
              "internalType": "bool",
              "name": "revocable",
              "type": "bool"
            },
            {
              "internalType": "bytes",
              "name": "data",
              "type": "bytes"
            }
          ],
          "internalType": "struct Attestation",
          "name": "attestation",
          "type": "tuple"
        }
      ],
      "name": "revoke",
      "outputs": [
        {
          "internalType": "bool",
          "name": "",
          "type": "bool"
        }
      ],
      "stateMutability": "payable",
      "type": "function"
    },
    {
      "inputs": [
        {
          "internalType": "address",
          "name": "newOwner",
          "type": "address"
        }
      ],
      "name": "transferOwnership",
      "outputs": [],
      "stateMutability": "nonpayable",
      "type": "function"
    },
    {
      "inputs": [],
      "name": "version",
      "outputs": [
        {
          "internalType": "string",
          "name": "",
          "type": "string"
        }
      ],
      "stateMutability": "view",
      "type": "function"
    },
    {
      "stateMutability": "payable",
      "type": "receive"
    }
  ],
  "bytecode": "0x67185c1c1c9bdd995960c21b6101205260086101008190527f2b29265fc125740ae6bbc5035ae7af720b6932f4a3e44ba5ac02955c21ca9a056068556818dbdb5c1b195d195960ba1b610148526009610128527f6216ba39af4188a6d7c765710d7e6075007c3444b59a22a973d1b958c43e60bb606955671c995a9958dd195960c21b61017152610151526101796040527f5e679716a01be890d854f2c1c5cb5336603215e65ff238044a5b11c586f61c1d606a55348015620000c157600080fd5b506040516200172738038062001727833981016040819052620000e49162000249565b6001608052600060a081905260c052816001600160a01b0381166200011c576040516341bc07ff60e11b815260040160405180910390fd5b6001600160a01b0390811660e052606680548483166001600160a01b03199182161790915560678054928416928216929092179091556065805490911633179055620001676200016f565b505062000288565b600054610100900460ff1615620001dc5760405162461bcd60e51b815260206004820152602760248201527f496e697469616c697a61626c653a20636f6e747261637420697320696e697469604482015266616c697a696e6760c81b606482015260840160405180910390fd5b60005460ff908116146200022e576000805460ff191660ff9081179091556040519081527f7f26b83ff96e1f2b6a682f133852f6798a09c465da95921460cefb38474024989060200160405180910390a15b565b6001600160a01b03811681146200024657600080fd5b50565b600080604083850312156200025d57600080fd5b82516200026a8162000230565b60208401519092506200027d8162000230565b809150509250929050565b60805160a05160c05160e051611465620002c260003960006107f001526000610381015260006103580152600061032f01526114656000f3fe6080604052600436106100cb5760003560e01c8063cd2c78b811610074578063e60c35051161004e578063e60c350514610218578063f2fde38b1461022b578063f39f43e31461024b57600080fd5b8063cd2c78b8146101d1578063ce46e046146101f1578063e49617e11461020557600080fd5b806388e5b2d9116100a557806388e5b2d9146101735780638da5cb5b1461019657806391db0b7e146101be57600080fd5b80634a47bb601461010957806354fd4d501461013c578063715018a61461015e57600080fd5b36610104576040517f1574f9f300000000000000000000000000000000000000000000000000000000815260040160405180910390fd5b005b600080fd5b34801561011557600080fd5b50610129610124366004610f25565b61026b565b6040519081526020015b60405180910390f35b34801561014857600080fd5b50610151610328565b6040516101339190610fc9565b34801561016a57600080fd5b506101026103cb565b610186610181366004611048565b6103df565b6040519015158152602001610133565b3480156101a257600080fd5b506033546040516001600160a01b039091168152602001610133565b6101866101cc366004611048565b61048e565b3480156101dd57600080fd5b506101296101ec366004610f25565b61052d565b3480156101fd57600080fd5b506000610186565b6101866102133660046110b4565b610549565b6101866102263660046110b4565b61055f565b34801561023757600080fd5b50610102610246366004611105565b610573565b34801561025757600080fd5b50610102610266366004611105565b610603565b600080828060200190518101906102829190611167565b5090508060405160200161029691906111cb565b60405160208183030381529060405280519060200120915060685482141580156102c257506069548214155b80156102d05750606a548214155b156103225760405162461bcd60e51b815260206004820152601660248201527f496e76616c696420617070726f76616c20747970652e0000000000000000000060448201526064015b60405180910390fd5b50919050565b60606103537f000000000000000000000000000000000000000000000000000000000000000061068c565b61037c7f000000000000000000000000000000000000000000000000000000000000000061068c565b6103a57f000000000000000000000000000000000000000000000000000000000000000061068c565b6040516020016103b7939291906111e7565b604051602081830303815290604052905090565b6103d361072c565b6103dd6000610786565b565b60006103e96107e5565b833460005b8281101561047e57600086868381811061040a5761040a61125d565b905060200201359050828111156104345760405163044044a560e21b815260040160405180910390fd5b6104618989848181106104495761044961125d565b905060200281019061045b9190611273565b50600190565b610472576000945050505050610486565b909103906001016103ee565b506001925050505b949350505050565b60006104986107e5565b833460005b8281101561047e5760008686838181106104b9576104b961125d565b905060200201359050828111156104e35760405163044044a560e21b815260040160405180910390fd5b6105108989848181106104f8576104f861125d565b905060200281019061050a9190611273565b82610847565b610521576000945050505050610486565b9091039060010161049d565b600081806020019051810190610543919061128a565b92915050565b60006105536107e5565b6001610543565b919050565b60006105696107e5565b6105438234610847565b61057b61072c565b6001600160a01b0381166105f75760405162461bcd60e51b815260206004820152602660248201527f4f776e61626c653a206e6577206f776e657220697320746865207a65726f206160448201527f64647265737300000000000000000000000000000000000000000000000000006064820152608401610319565b61060081610786565b50565b6065546001600160a01b0316331461065d5760405162461bcd60e51b815260206004820152600a60248201527f4e6f74206f776e65722e000000000000000000000000000000000000000000006044820152606401610319565b6067805473ffffffffffffffffffffffffffffffffffffffff19166001600160a01b0392909216919091179055565b6060600061069983610d12565b600101905060008167ffffffffffffffff8111156106b9576106b9610e8c565b6040519080825280601f01601f1916602001820160405280156106e3576020820181803683370190505b5090508181016020015b600019017f3031323334353637383961626364656600000000000000000000000000000000600a86061a8153600a85049450846106ed57509392505050565b6033546001600160a01b031633146103dd5760405162461bcd60e51b815260206004820181905260248201527f4f776e61626c653a2063616c6c6572206973206e6f7420746865206f776e65726044820152606401610319565b603380546001600160a01b0383811673ffffffffffffffffffffffffffffffffffffffff19831681179093556040519116919082907f8be0079c531659141344cd1fd0a4f28419497f9722a3daafe3b4186f6b6457e090600090a35050565b336001600160a01b037f000000000000000000000000000000000000000000000000000000000000000016146103dd576040517f4ca8886700000000000000000000000000000000000000000000000000000000815260040160405180910390fd5b600060a083013561089a5760405162461bcd60e51b815260206004820152601a60248201527f496e76616c6964207265666572726564206d696c6573746f6e650000000000006044820152606401610319565b60006108e76108ad6101208601866112a3565b8080601f01602080910402602001604051908101604052809392919081815260200183838082843760009201919091525061026b92505050565b6066546040516328c44a9960e21b815260a087013560048201529192506000916001600160a01b039091169063a3112a6490602401600060405180830381865afa158015610939573d6000803e3d6000fd5b505050506040513d6000823e601f3d908101601f19168201604052610961919081019061131d565b80519091506109b25760405162461bcd60e51b815260206004820152601b60248201527f496e76616c6964206d696c6573746f6e65207265666572656e636500000000006044820152606401610319565b60a0810151610a285760405162461bcd60e51b8152602060048201526024808201527f496e76616c6964206772616e74207265666572656e6365206f6e206d696c657360448201527f746f6e65000000000000000000000000000000000000000000000000000000006064820152608401610319565b60665460a08201516040516328c44a9960e21b815260048101919091526000916001600160a01b03169063a3112a6490602401600060405180830381865afa158015610a78573d6000803e3d6000fd5b505050506040513d6000823e601f3d908101601f19168201604052610aa0919081019061131d565b8051909150610af15760405162461bcd60e51b815260206004820152601760248201527f496e76616c6964206772616e74207265666572656e63650000000000000000006044820152606401610319565b6000610b0182610120015161052d565b90506000610b1f82610b1a6101008b0160e08c01611105565b610df4565b90506069548503610bdc57610b3b610100890160e08a01611105565b6001600160a01b03168460e001516001600160a01b03161480610b835750610b6a610100890160e08a01611105565b6001600160a01b03168460c001516001600160a01b0316145b80610b8b5750805b610bd75760405162461bcd60e51b815260206004820152600960248201527f4e6f742061646d696e00000000000000000000000000000000000000000000006044820152606401610319565b610d04565b606a54851480610bed575060685485145b15610d045780610c3f5760405162461bcd60e51b815260206004820152600960248201527f4e6f74206f776e657200000000000000000000000000000000000000000000006044820152606401610319565b6066546040516328c44a9960e21b8152600481018490526000916001600160a01b03169063a3112a6490602401600060405180830381865afa158015610c89573d6000803e3d6000fd5b505050506040513d6000823e601f3d908101601f19168201604052610cb1919081019061131d565b8051909150610d025760405162461bcd60e51b815260206004820152601b60248201527f496e76616c696420636f6d6d756e697479207265666572656e636500000000006044820152606401610319565b505b506001979650505050505050565b6000807a184f03e93ff9f4daa797ed6e38ed64bf6a1f0100000000000000008310610d5b577a184f03e93ff9f4daa797ed6e38ed64bf6a1f010000000000000000830492506040015b6d04ee2d6d415b85acef81000000008310610d87576d04ee2d6d415b85acef8100000000830492506020015b662386f26fc100008310610da557662386f26fc10000830492506010015b6305f5e1008310610dbd576305f5e100830492506008015b6127108310610dd157612710830492506004015b60648310610de3576064830492506002015b600a83106105435760010192915050565b6067546040517fb75dbb8e000000000000000000000000000000000000000000000000000000008152600481018490526001600160a01b038381166024830152600092169063b75dbb8e906044016020604051808303816000875af1158015610e61573d6000803e3d6000fd5b505050506040513d601f19601f82011682018060405250810190610e859190611414565b9392505050565b634e487b7160e01b600052604160045260246000fd5b604051610140810167ffffffffffffffff81118282101715610ec657610ec6610e8c565b60405290565b604051601f8201601f1916810167ffffffffffffffff81118282101715610ef557610ef5610e8c565b604052919050565b600067ffffffffffffffff821115610f1757610f17610e8c565b50601f01601f191660200190565b600060208284031215610f3757600080fd5b813567ffffffffffffffff811115610f4e57600080fd5b8201601f81018413610f5f57600080fd5b8035610f72610f6d82610efd565b610ecc565b818152856020838501011115610f8757600080fd5b81602084016020830137600091810160200191909152949350505050565b60005b83811015610fc0578181015183820152602001610fa8565b50506000910152565b6020815260008251806020840152610fe8816040850160208701610fa5565b601f01601f19169190910160400192915050565b60008083601f84011261100e57600080fd5b50813567ffffffffffffffff81111561102657600080fd5b6020830191508360208260051b850101111561104157600080fd5b9250929050565b6000806000806040858703121561105e57600080fd5b843567ffffffffffffffff8082111561107657600080fd5b61108288838901610ffc565b9096509450602087013591508082111561109b57600080fd5b506110a887828801610ffc565b95989497509550505050565b6000602082840312156110c657600080fd5b813567ffffffffffffffff8111156110dd57600080fd5b82016101408185031215610e8557600080fd5b6001600160a01b038116811461060057600080fd5b60006020828403121561111757600080fd5b8135610e85816110f0565b600082601f83011261113357600080fd5b8151611141610f6d82610efd565b81815284602083860101111561115657600080fd5b610486826020830160208701610fa5565b6000806040838503121561117a57600080fd5b825167ffffffffffffffff8082111561119257600080fd5b61119e86838701611122565b935060208501519150808211156111b457600080fd5b506111c185828601611122565b9150509250929050565b600082516111dd818460208701610fa5565b9190910192915050565b600084516111f9818460208901610fa5565b80830190507f2e000000000000000000000000000000000000000000000000000000000000008082528551611235816001850160208a01610fa5565b60019201918201528351611250816002840160208801610fa5565b0160020195945050505050565b634e487b7160e01b600052603260045260246000fd5b6000823561013e198336030181126111dd57600080fd5b60006020828403121561129c57600080fd5b5051919050565b6000808335601e198436030181126112ba57600080fd5b83018035915067ffffffffffffffff8211156112d557600080fd5b60200191503681900382131561104157600080fd5b805167ffffffffffffffff8116811461055a57600080fd5b805161055a816110f0565b8051801515811461055a57600080fd5b60006020828403121561132f57600080fd5b815167ffffffffffffffff8082111561134757600080fd5b90830190610140828603121561135c57600080fd5b611364610ea2565b825181526020830151602082015261137e604084016112ea565b604082015261138f606084016112ea565b60608201526113a0608084016112ea565b608082015260a083015160a08201526113bb60c08401611302565b60c08201526113cc60e08401611302565b60e08201526101006113df81850161130d565b9082015261012083810151838111156113f757600080fd5b61140388828701611122565b918301919091525095945050505050565b60006020828403121561142657600080fd5b610e858261130d56fea2646970667358221220906632dd000a5b98f9104a4d87c67d66b8f3f8f7c0e4956cf8022e3b8f1b425f64736f6c63430008130033",
  "linkReferences": {},
  "deployedLinkReferences": {}
}