{"contracts/Gap.sol":{"Gap":{"abi":[{"anonymous":false,"inputs":[{"indexed":false,"internalType":"uint8","name":"version","type":"uint8"}],"name":"Initialized","type":"event"},{"anonymous":false,"inputs":[{"indexed":true,"internalType":"address","name":"previousOwner","type":"address"},{"indexed":true,"internalType":"address","name":"newOwner","type":"address"}],"name":"OwnershipTransferred","type":"event"},{"inputs":[],"name":"eas","outputs":[{"internalType":"contract IEAS","name":"","type":"address"}],"stateMutability":"view","type":"function"},{"inputs":[{"internalType":"address","name":"easAddr","type":"address"}],"name":"initialize","outputs":[],"stateMutability":"nonpayable","type":"function"},{"inputs":[{"components":[{"internalType":"bytes32","name":"uid","type":"bytes32"},{"components":[{"internalType":"bytes32","name":"schema","type":"bytes32"},{"components":[{"internalType":"address","name":"recipient","type":"address"},{"internalType":"uint64","name":"expirationTime","type":"uint64"},{"internalType":"bool","name":"revocable","type":"bool"},{"internalType":"bytes32","name":"refUID","type":"bytes32"},{"internalType":"bytes","name":"data","type":"bytes"},{"internalType":"uint256","name":"value","type":"uint256"}],"internalType":"struct AttestationRequestData[]","name":"data","type":"tuple[]"}],"internalType":"struct MultiAttestationRequest","name":"multiRequest","type":"tuple"},{"internalType":"uint256","name":"refIdx","type":"uint256"}],"internalType":"struct Gap.AttestationRequestNode[]","name":"requestNodes","type":"tuple[]"}],"name":"multiSequentialAttest","outputs":[],"stateMutability":"nonpayable","type":"function"},{"inputs":[],"name":"owner","outputs":[{"internalType":"address","name":"","type":"address"}],"stateMutability":"view","type":"function"},{"inputs":[],"name":"renounceOwnership","outputs":[],"stateMutability":"nonpayable","type":"function"},{"inputs":[{"internalType":"address","name":"newOwner","type":"address"}],"name":"transferOwnership","outputs":[],"stateMutability":"nonpayable","type":"function"}],"devdoc":{"events":{"Initialized(uint8)":{"details":"Triggered when the contract has been initialized or reinitialized."}},"kind":"dev","methods":{"owner()":{"details":"Returns the address of the current owner."},"renounceOwnership()":{"details":"Leaves the contract without owner. It will not be possible to call `onlyOwner` functions. Can only be called by the current owner. NOTE: Renouncing ownership will leave the contract without an owner, thereby disabling any functionality that is only available to the owner."},"transferOwnership(address)":{"details":"Transfers ownership of the contract to a new account (`newOwner`). Can only be called by the current owner."}},"version":1},"evm":{"bytecode":{"linkReferences":{},"object":"608060405234801561001057600080fd5b50610cd3806100206000396000f3fe608060405234801561001057600080fd5b50600436106100725760003560e01c80638da5cb5b116100505780638da5cb5b146100c3578063c4d66de8146100d4578063f2fde38b146100e757600080fd5b80635913a31c14610077578063715018a61461008c5780638150864d14610094575b600080fd5b61008a61008536600461071e565b6100fa565b005b61008a610391565b6065546100a7906001600160a01b031681565b6040516001600160a01b03909116815260200160405180910390f35b6033546001600160a01b03166100a7565b61008a6100e23660046107af565b6103a5565b61008a6100f53660046107af565b6104f3565b60008167ffffffffffffffff811115610115576101156107d1565b60405190808252806020026020018201604052801561014857816020015b60608152602001906001900390816101335790505b50905060005b8281101561038b57600084848381811061016a5761016a6107e7565b905060200281019061017c91906107fd565b61018a90602081019061081d565b61019390610954565b905081156102695760005b816020015151811015610267576000826020015182815181106101c3576101c36107e7565b60200260200101519050848787868181106101e0576101e06107e7565b90506020028101906101f291906107fd565b6040013581518110610206576102066107e7565b6020026020010151600081518110610220576102206107e7565b60200260200101518160600181815250508083602001518381518110610248576102486107e7565b602002602001018190525050808061025f90610aa6565b91505061019e565b505b604080516001808252818301909252600091816020015b60408051808201909152600081526060602082015281526020019060019003908161028057905050905081816000815181106102be576102be6107e7565b60209081029190910101526065546040517f44adc90e0000000000000000000000000000000000000000000000000000000081526001600160a01b03909116906344adc90e90610312908490600401610acd565b6000604051808303816000875af1158015610331573d6000803e3d6000fd5b505050506040513d6000823e601f3d908101601f191682016040526103599190810190610c0c565b84848151811061036b5761036b6107e7565b60200260200101819052505050808061038390610aa6565b91505061014e565b50505050565b610399610583565b6103a360006105dd565b565b600054610100900460ff16158080156103c55750600054600160ff909116105b806103df5750303b1580156103df575060005460ff166001145b6104565760405162461bcd60e51b815260206004820152602e60248201527f496e697469616c697a61626c653a20636f6e747261637420697320616c72656160448201527f647920696e697469616c697a656400000000000000000000000000000000000060648201526084015b60405180910390fd5b6000805460ff191660011790558015610479576000805461ff0019166101001790555b6065805473ffffffffffffffffffffffffffffffffffffffff19166001600160a01b0384161790556104a961063c565b80156104ef576000805461ff0019169055604051600181527f7f26b83ff96e1f2b6a682f133852f6798a09c465da95921460cefb38474024989060200160405180910390a15b5050565b6104fb610583565b6001600160a01b0381166105775760405162461bcd60e51b815260206004820152602660248201527f4f776e61626c653a206e6577206f776e657220697320746865207a65726f206160448201527f6464726573730000000000000000000000000000000000000000000000000000606482015260840161044d565b610580816105dd565b50565b6033546001600160a01b031633146103a35760405162461bcd60e51b815260206004820181905260248201527f4f776e61626c653a2063616c6c6572206973206e6f7420746865206f776e6572604482015260640161044d565b603380546001600160a01b0383811673ffffffffffffffffffffffffffffffffffffffff19831681179093556040519116919082907f8be0079c531659141344cd1fd0a4f28419497f9722a3daafe3b4186f6b6457e090600090a35050565b600054610100900460ff166106a75760405162461bcd60e51b815260206004820152602b60248201527f496e697469616c697a61626c653a20636f6e7472616374206973206e6f74206960448201526a6e697469616c697a696e6760a81b606482015260840161044d565b6103a3600054610100900460ff166107155760405162461bcd60e51b815260206004820152602b60248201527f496e697469616c697a61626c653a20636f6e7472616374206973206e6f74206960448201526a6e697469616c697a696e6760a81b606482015260840161044d565b6103a3336105dd565b6000806020838503121561073157600080fd5b823567ffffffffffffffff8082111561074957600080fd5b818501915085601f83011261075d57600080fd5b81358181111561076c57600080fd5b8660208260051b850101111561078157600080fd5b60209290920196919550909350505050565b80356001600160a01b03811681146107aa57600080fd5b919050565b6000602082840312156107c157600080fd5b6107ca82610793565b9392505050565b634e487b7160e01b600052604160045260246000fd5b634e487b7160e01b600052603260045260246000fd5b60008235605e1983360301811261081357600080fd5b9190910192915050565b60008235603e1983360301811261081357600080fd5b6040805190810167ffffffffffffffff81118282101715610856576108566107d1565b60405290565b60405160c0810167ffffffffffffffff81118282101715610856576108566107d1565b604051601f8201601f1916810167ffffffffffffffff811182821017156108a8576108a86107d1565b604052919050565b600067ffffffffffffffff8211156108ca576108ca6107d1565b5060051b60200190565b803580151581146107aa57600080fd5b600082601f8301126108f557600080fd5b813567ffffffffffffffff81111561090f5761090f6107d1565b610922601f8201601f191660200161087f565b81815284602083860101111561093757600080fd5b816020850160208301376000918101602001919091529392505050565b6000604080833603121561096757600080fd5b61096f610833565b8335815260208085013567ffffffffffffffff8082111561098f57600080fd5b9086019036601f8301126109a257600080fd5b81356109b56109b0826108b0565b61087f565b81815260059190911b830184019084810190368311156109d457600080fd5b8585015b83811015610a92578035858111156109f05760008081fd5b860160c036829003601f1901811315610a095760008081fd5b610a1161085c565b610a1c8a8401610793565b81528b8301358881168114610a315760008081fd5b818b01526060610a428482016108d4565b8d8301526080808501358284015260a09150818501358a811115610a665760008081fd5b610a74368e838901016108e4565b918401919091525091909201359082015283529186019186016109d8565b509486019490945250929695505050505050565b600060018201610ac657634e487b7160e01b600052601160045260246000fd5b5060010190565b60006020808301818452808551808352604092508286019150828160051b87010184880160005b83811015610bfe57603f198984030185528151805184528701518784018790528051878501819052908801906060600582901b86018101919086019060005b81811015610be857605f1988850301835284516001600160a01b03815116855267ffffffffffffffff8d820151168d8601528b81015115158c86015260608101516060860152608081015160c0608087015280518060c088015260005b81811015610baf578f818401015160e0828a0101528f81019050610b90565b50600087820160e09081019190915260a09384015193880193909352968e0196601f01601f1916909501019350918b0191600101610b33565b5050509588019593505090860190600101610af4565b509098975050505050505050565b60006020808385031215610c1f57600080fd5b825167ffffffffffffffff811115610c3657600080fd5b8301601f81018513610c4757600080fd5b8051610c556109b0826108b0565b81815260059190911b82018301908381019087831115610c7457600080fd5b928401925b82841015610c9257835182529284019290840190610c79565b97965050505050505056fea26469706673582212205499387ff34c3bce07996d536378efc23281ae9194540f40a08da9fc3171958464736f6c63430008130033","opcodes":"PUSH1 0x80 PUSH1 0x40 MSTORE CALLVALUE DUP1 ISZERO PUSH2 0x10 JUMPI PUSH1 0x0 DUP1 REVERT JUMPDEST POP PUSH2 0xCD3 DUP1 PUSH2 0x20 PUSH1 0x0 CODECOPY PUSH1 0x0 RETURN INVALID PUSH1 0x80 PUSH1 0x40 MSTORE CALLVALUE DUP1 ISZERO PUSH2 0x10 JUMPI PUSH1 0x0 DUP1 REVERT JUMPDEST POP PUSH1 0x4 CALLDATASIZE LT PUSH2 0x72 JUMPI PUSH1 0x0 CALLDATALOAD PUSH1 0xE0 SHR DUP1 PUSH4 0x8DA5CB5B GT PUSH2 0x50 JUMPI DUP1 PUSH4 0x8DA5CB5B EQ PUSH2 0xC3 JUMPI DUP1 PUSH4 0xC4D66DE8 EQ PUSH2 0xD4 JUMPI DUP1 PUSH4 0xF2FDE38B EQ PUSH2 0xE7 JUMPI PUSH1 0x0 DUP1 REVERT JUMPDEST DUP1 PUSH4 0x5913A31C EQ PUSH2 0x77 JUMPI DUP1 PUSH4 0x715018A6 EQ PUSH2 0x8C JUMPI DUP1 PUSH4 0x8150864D EQ PUSH2 0x94 JUMPI JUMPDEST PUSH1 0x0 DUP1 REVERT JUMPDEST PUSH2 0x8A PUSH2 0x85 CALLDATASIZE PUSH1 0x4 PUSH2 0x71E JUMP JUMPDEST PUSH2 0xFA JUMP JUMPDEST STOP JUMPDEST PUSH2 0x8A PUSH2 0x391 JUMP JUMPDEST PUSH1 0x65 SLOAD PUSH2 0xA7 SWAP1 PUSH1 0x1 PUSH1 0x1 PUSH1 0xA0 SHL SUB AND DUP2 JUMP JUMPDEST PUSH1 0x40 MLOAD PUSH1 0x1 PUSH1 0x1 PUSH1 0xA0 SHL SUB SWAP1 SWAP2 AND DUP2 MSTORE PUSH1 0x20 ADD PUSH1 0x40 MLOAD DUP1 SWAP2 SUB SWAP1 RETURN JUMPDEST PUSH1 0x33 SLOAD PUSH1 0x1 PUSH1 0x1 PUSH1 0xA0 SHL SUB AND PUSH2 0xA7 JUMP JUMPDEST PUSH2 0x8A PUSH2 0xE2 CALLDATASIZE PUSH1 0x4 PUSH2 0x7AF JUMP JUMPDEST PUSH2 0x3A5 JUMP JUMPDEST PUSH2 0x8A PUSH2 0xF5 CALLDATASIZE PUSH1 0x4 PUSH2 0x7AF JUMP JUMPDEST PUSH2 0x4F3 JUMP JUMPDEST PUSH1 0x0 DUP2 PUSH8 0xFFFFFFFFFFFFFFFF DUP2 GT ISZERO PUSH2 0x115 JUMPI PUSH2 0x115 PUSH2 0x7D1 JUMP JUMPDEST PUSH1 0x40 MLOAD SWAP1 DUP1 DUP3 MSTORE DUP1 PUSH1 0x20 MUL PUSH1 0x20 ADD DUP3 ADD PUSH1 0x40 MSTORE DUP1 ISZERO PUSH2 0x148 JUMPI DUP2 PUSH1 0x20 ADD JUMPDEST PUSH1 0x60 DUP2 MSTORE PUSH1 0x20 ADD SWAP1 PUSH1 0x1 SWAP1 SUB SWAP1 DUP2 PUSH2 0x133 JUMPI SWAP1 POP JUMPDEST POP SWAP1 POP PUSH1 0x0 JUMPDEST DUP3 DUP2 LT ISZERO PUSH2 0x38B JUMPI PUSH1 0x0 DUP5 DUP5 DUP4 DUP2 DUP2 LT PUSH2 0x16A JUMPI PUSH2 0x16A PUSH2 0x7E7 JUMP JUMPDEST SWAP1 POP PUSH1 0x20 MUL DUP2 ADD SWAP1 PUSH2 0x17C SWAP2 SWAP1 PUSH2 0x7FD JUMP JUMPDEST PUSH2 0x18A SWAP1 PUSH1 0x20 DUP2 ADD SWAP1 PUSH2 0x81D JUMP JUMPDEST PUSH2 0x193 SWAP1 PUSH2 0x954 JUMP JUMPDEST SWAP1 POP DUP2 ISZERO PUSH2 0x269 JUMPI PUSH1 0x0 JUMPDEST DUP2 PUSH1 0x20 ADD MLOAD MLOAD DUP2 LT ISZERO PUSH2 0x267 JUMPI PUSH1 0x0 DUP3 PUSH1 0x20 ADD MLOAD DUP3 DUP2 MLOAD DUP2 LT PUSH2 0x1C3 JUMPI PUSH2 0x1C3 PUSH2 0x7E7 JUMP JUMPDEST PUSH1 0x20 MUL PUSH1 0x20 ADD ADD MLOAD SWAP1 POP DUP5 DUP8 DUP8 DUP7 DUP2 DUP2 LT PUSH2 0x1E0 JUMPI PUSH2 0x1E0 PUSH2 0x7E7 JUMP JUMPDEST SWAP1 POP PUSH1 0x20 MUL DUP2 ADD SWAP1 PUSH2 0x1F2 SWAP2 SWAP1 PUSH2 0x7FD JUMP JUMPDEST PUSH1 0x40 ADD CALLDATALOAD DUP2 MLOAD DUP2 LT PUSH2 0x206 JUMPI PUSH2 0x206 PUSH2 0x7E7 JUMP JUMPDEST PUSH1 0x20 MUL PUSH1 0x20 ADD ADD MLOAD PUSH1 0x0 DUP2 MLOAD DUP2 LT PUSH2 0x220 JUMPI PUSH2 0x220 PUSH2 0x7E7 JUMP JUMPDEST PUSH1 0x20 MUL PUSH1 0x20 ADD ADD MLOAD DUP2 PUSH1 0x60 ADD DUP2 DUP2 MSTORE POP POP DUP1 DUP4 PUSH1 0x20 ADD MLOAD DUP4 DUP2 MLOAD DUP2 LT PUSH2 0x248 JUMPI PUSH2 0x248 PUSH2 0x7E7 JUMP JUMPDEST PUSH1 0x20 MUL PUSH1 0x20 ADD ADD DUP2 SWAP1 MSTORE POP POP DUP1 DUP1 PUSH2 0x25F SWAP1 PUSH2 0xAA6 JUMP JUMPDEST SWAP2 POP POP PUSH2 0x19E JUMP JUMPDEST POP JUMPDEST PUSH1 0x40 DUP1 MLOAD PUSH1 0x1 DUP1 DUP3 MSTORE DUP2 DUP4 ADD SWAP1 SWAP3 MSTORE PUSH1 0x0 SWAP2 DUP2 PUSH1 0x20 ADD JUMPDEST PUSH1 0x40 DUP1 MLOAD DUP1 DUP3 ADD SWAP1 SWAP2 MSTORE PUSH1 0x0 DUP2 MSTORE PUSH1 0x60 PUSH1 0x20 DUP3 ADD MSTORE DUP2 MSTORE PUSH1 0x20 ADD SWAP1 PUSH1 0x1 SWAP1 SUB SWAP1 DUP2 PUSH2 0x280 JUMPI SWAP1 POP POP SWAP1 POP DUP2 DUP2 PUSH1 0x0 DUP2 MLOAD DUP2 LT PUSH2 0x2BE JUMPI PUSH2 0x2BE PUSH2 0x7E7 JUMP JUMPDEST PUSH1 0x20 SWAP1 DUP2 MUL SWAP2 SWAP1 SWAP2 ADD ADD MSTORE PUSH1 0x65 SLOAD PUSH1 0x40 MLOAD PUSH32 0x44ADC90E00000000000000000000000000000000000000000000000000000000 DUP2 MSTORE PUSH1 0x1 PUSH1 0x1 PUSH1 0xA0 SHL SUB SWAP1 SWAP2 AND SWAP1 PUSH4 0x44ADC90E SWAP1 PUSH2 0x312 SWAP1 DUP5 SWAP1 PUSH1 0x4 ADD PUSH2 0xACD JUMP JUMPDEST PUSH1 0x0 PUSH1 0x40 MLOAD DUP1 DUP4 SUB DUP2 PUSH1 0x0 DUP8 GAS CALL ISZERO DUP1 ISZERO PUSH2 0x331 JUMPI RETURNDATASIZE PUSH1 0x0 DUP1 RETURNDATACOPY RETURNDATASIZE PUSH1 0x0 REVERT JUMPDEST POP POP POP POP PUSH1 0x40 MLOAD RETURNDATASIZE PUSH1 0x0 DUP3 RETURNDATACOPY PUSH1 0x1F RETURNDATASIZE SWAP1 DUP2 ADD PUSH1 0x1F NOT AND DUP3 ADD PUSH1 0x40 MSTORE PUSH2 0x359 SWAP2 SWAP1 DUP2 ADD SWAP1 PUSH2 0xC0C JUMP JUMPDEST DUP5 DUP5 DUP2 MLOAD DUP2 LT PUSH2 0x36B JUMPI PUSH2 0x36B PUSH2 0x7E7 JUMP JUMPDEST PUSH1 0x20 MUL PUSH1 0x20 ADD ADD DUP2 SWAP1 MSTORE POP POP POP DUP1 DUP1 PUSH2 0x383 SWAP1 PUSH2 0xAA6 JUMP JUMPDEST SWAP2 POP POP PUSH2 0x14E JUMP JUMPDEST POP POP POP POP JUMP JUMPDEST PUSH2 0x399 PUSH2 0x583 JUMP JUMPDEST PUSH2 0x3A3 PUSH1 0x0 PUSH2 0x5DD JUMP JUMPDEST JUMP JUMPDEST PUSH1 0x0 SLOAD PUSH2 0x100 SWAP1 DIV PUSH1 0xFF AND ISZERO DUP1 DUP1 ISZERO PUSH2 0x3C5 JUMPI POP PUSH1 0x0 SLOAD PUSH1 0x1 PUSH1 0xFF SWAP1 SWAP2 AND LT JUMPDEST DUP1 PUSH2 0x3DF JUMPI POP ADDRESS EXTCODESIZE ISZERO DUP1 ISZERO PUSH2 0x3DF JUMPI POP PUSH1 0x0 SLOAD PUSH1 0xFF AND PUSH1 0x1 EQ JUMPDEST PUSH2 0x456 JUMPI PUSH1 0x40 MLOAD PUSH3 0x461BCD PUSH1 0xE5 SHL DUP2 MSTORE PUSH1 0x20 PUSH1 0x4 DUP3 ADD MSTORE PUSH1 0x2E PUSH1 0x24 DUP3 ADD MSTORE PUSH32 0x496E697469616C697A61626C653A20636F6E747261637420697320616C726561 PUSH1 0x44 DUP3 ADD MSTORE PUSH32 0x647920696E697469616C697A6564000000000000000000000000000000000000 PUSH1 0x64 DUP3 ADD MSTORE PUSH1 0x84 ADD JUMPDEST PUSH1 0x40 MLOAD DUP1 SWAP2 SUB SWAP1 REVERT JUMPDEST PUSH1 0x0 DUP1 SLOAD PUSH1 0xFF NOT AND PUSH1 0x1 OR SWAP1 SSTORE DUP1 ISZERO PUSH2 0x479 JUMPI PUSH1 0x0 DUP1 SLOAD PUSH2 0xFF00 NOT AND PUSH2 0x100 OR SWAP1 SSTORE JUMPDEST PUSH1 0x65 DUP1 SLOAD PUSH20 0xFFFFFFFFFFFFFFFFFFFFFFFFFFFFFFFFFFFFFFFF NOT AND PUSH1 0x1 PUSH1 0x1 PUSH1 0xA0 SHL SUB DUP5 AND OR SWAP1 SSTORE PUSH2 0x4A9 PUSH2 0x63C JUMP JUMPDEST DUP1 ISZERO PUSH2 0x4EF JUMPI PUSH1 0x0 DUP1 SLOAD PUSH2 0xFF00 NOT AND SWAP1 SSTORE PUSH1 0x40 MLOAD PUSH1 0x1 DUP2 MSTORE PUSH32 0x7F26B83FF96E1F2B6A682F133852F6798A09C465DA95921460CEFB3847402498 SWAP1 PUSH1 0x20 ADD PUSH1 0x40 MLOAD DUP1 SWAP2 SUB SWAP1 LOG1 JUMPDEST POP POP JUMP JUMPDEST PUSH2 0x4FB PUSH2 0x583 JUMP JUMPDEST PUSH1 0x1 PUSH1 0x1 PUSH1 0xA0 SHL SUB DUP2 AND PUSH2 0x577 JUMPI PUSH1 0x40 MLOAD PUSH3 0x461BCD PUSH1 0xE5 SHL DUP2 MSTORE PUSH1 0x20 PUSH1 0x4 DUP3 ADD MSTORE PUSH1 0x26 PUSH1 0x24 DUP3 ADD MSTORE PUSH32 0x4F776E61626C653A206E6577206F776E657220697320746865207A65726F2061 PUSH1 0x44 DUP3 ADD MSTORE PUSH32 0x6464726573730000000000000000000000000000000000000000000000000000 PUSH1 0x64 DUP3 ADD MSTORE PUSH1 0x84 ADD PUSH2 0x44D JUMP JUMPDEST PUSH2 0x580 DUP2 PUSH2 0x5DD JUMP JUMPDEST POP JUMP JUMPDEST PUSH1 0x33 SLOAD PUSH1 0x1 PUSH1 0x1 PUSH1 0xA0 SHL SUB AND CALLER EQ PUSH2 0x3A3 JUMPI PUSH1 0x40 MLOAD PUSH3 0x461BCD PUSH1 0xE5 SHL DUP2 MSTORE PUSH1 0x20 PUSH1 0x4 DUP3 ADD DUP2 SWAP1 MSTORE PUSH1 0x24 DUP3 ADD MSTORE PUSH32 0x4F776E61626C653A2063616C6C6572206973206E6F7420746865206F776E6572 PUSH1 0x44 DUP3 ADD MSTORE PUSH1 0x64 ADD PUSH2 0x44D JUMP JUMPDEST PUSH1 0x33 DUP1 SLOAD PUSH1 0x1 PUSH1 0x1 PUSH1 0xA0 SHL SUB DUP4 DUP2 AND PUSH20 0xFFFFFFFFFFFFFFFFFFFFFFFFFFFFFFFFFFFFFFFF NOT DUP4 AND DUP2 OR SWAP1 SWAP4 SSTORE PUSH1 0x40 MLOAD SWAP2 AND SWAP2 SWAP1 DUP3 SWAP1 PUSH32 0x8BE0079C531659141344CD1FD0A4F28419497F9722A3DAAFE3B4186F6B6457E0 SWAP1 PUSH1 0x0 SWAP1 LOG3 POP POP JUMP JUMPDEST PUSH1 0x0 SLOAD PUSH2 0x100 SWAP1 DIV PUSH1 0xFF AND PUSH2 0x6A7 JUMPI PUSH1 0x40 MLOAD PUSH3 0x461BCD PUSH1 0xE5 SHL DUP2 MSTORE PUSH1 0x20 PUSH1 0x4 DUP3 ADD MSTORE PUSH1 0x2B PUSH1 0x24 DUP3 ADD MSTORE PUSH32 0x496E697469616C697A61626C653A20636F6E7472616374206973206E6F742069 PUSH1 0x44 DUP3 ADD MSTORE PUSH11 0x6E697469616C697A696E67 PUSH1 0xA8 SHL PUSH1 0x64 DUP3 ADD MSTORE PUSH1 0x84 ADD PUSH2 0x44D JUMP JUMPDEST PUSH2 0x3A3 PUSH1 0x0 SLOAD PUSH2 0x100 SWAP1 DIV PUSH1 0xFF AND PUSH2 0x715 JUMPI PUSH1 0x40 MLOAD PUSH3 0x461BCD PUSH1 0xE5 SHL DUP2 MSTORE PUSH1 0x20 PUSH1 0x4 DUP3 ADD MSTORE PUSH1 0x2B PUSH1 0x24 DUP3 ADD MSTORE PUSH32 0x496E697469616C697A61626C653A20636F6E7472616374206973206E6F742069 PUSH1 0x44 DUP3 ADD MSTORE PUSH11 0x6E697469616C697A696E67 PUSH1 0xA8 SHL PUSH1 0x64 DUP3 ADD MSTORE PUSH1 0x84 ADD PUSH2 0x44D JUMP JUMPDEST PUSH2 0x3A3 CALLER PUSH2 0x5DD JUMP JUMPDEST PUSH1 0x0 DUP1 PUSH1 0x20 DUP4 DUP6 SUB SLT ISZERO PUSH2 0x731 JUMPI PUSH1 0x0 DUP1 REVERT JUMPDEST DUP3 CALLDATALOAD PUSH8 0xFFFFFFFFFFFFFFFF DUP1 DUP3 GT ISZERO PUSH2 0x749 JUMPI PUSH1 0x0 DUP1 REVERT JUMPDEST DUP2 DUP6 ADD SWAP2 POP DUP6 PUSH1 0x1F DUP4 ADD SLT PUSH2 0x75D JUMPI PUSH1 0x0 DUP1 REVERT JUMPDEST DUP2 CALLDATALOAD DUP2 DUP2 GT ISZERO PUSH2 0x76C JUMPI PUSH1 0x0 DUP1 REVERT JUMPDEST DUP7 PUSH1 0x20 DUP3 PUSH1 0x5 SHL DUP6 ADD ADD GT ISZERO PUSH2 0x781 JUMPI PUSH1 0x0 DUP1 REVERT JUMPDEST PUSH1 0x20 SWAP3 SWAP1 SWAP3 ADD SWAP7 SWAP2 SWAP6 POP SWAP1 SWAP4 POP POP POP POP JUMP JUMPDEST DUP1 CALLDATALOAD PUSH1 0x1 PUSH1 0x1 PUSH1 0xA0 SHL SUB DUP2 AND DUP2 EQ PUSH2 0x7AA JUMPI PUSH1 0x0 DUP1 REVERT JUMPDEST SWAP2 SWAP1 POP JUMP JUMPDEST PUSH1 0x0 PUSH1 0x20 DUP3 DUP5 SUB SLT ISZERO PUSH2 0x7C1 JUMPI PUSH1 0x0 DUP1 REVERT JUMPDEST PUSH2 0x7CA DUP3 PUSH2 0x793 JUMP JUMPDEST SWAP4 SWAP3 POP POP POP JUMP JUMPDEST PUSH4 0x4E487B71 PUSH1 0xE0 SHL PUSH1 0x0 MSTORE PUSH1 0x41 PUSH1 0x4 MSTORE PUSH1 0x24 PUSH1 0x0 REVERT JUMPDEST PUSH4 0x4E487B71 PUSH1 0xE0 SHL PUSH1 0x0 MSTORE PUSH1 0x32 PUSH1 0x4 MSTORE PUSH1 0x24 PUSH1 0x0 REVERT JUMPDEST PUSH1 0x0 DUP3 CALLDATALOAD PUSH1 0x5E NOT DUP4 CALLDATASIZE SUB ADD DUP2 SLT PUSH2 0x813 JUMPI PUSH1 0x0 DUP1 REVERT JUMPDEST SWAP2 SWAP1 SWAP2 ADD SWAP3 SWAP2 POP POP JUMP JUMPDEST PUSH1 0x0 DUP3 CALLDATALOAD PUSH1 0x3E NOT DUP4 CALLDATASIZE SUB ADD DUP2 SLT PUSH2 0x813 JUMPI PUSH1 0x0 DUP1 REVERT JUMPDEST PUSH1 0x40 DUP1 MLOAD SWAP1 DUP2 ADD PUSH8 0xFFFFFFFFFFFFFFFF DUP2 GT DUP3 DUP3 LT OR ISZERO PUSH2 0x856 JUMPI PUSH2 0x856 PUSH2 0x7D1 JUMP JUMPDEST PUSH1 0x40 MSTORE SWAP1 JUMP JUMPDEST PUSH1 0x40 MLOAD PUSH1 0xC0 DUP2 ADD PUSH8 0xFFFFFFFFFFFFFFFF DUP2 GT DUP3 DUP3 LT OR ISZERO PUSH2 0x856 JUMPI PUSH2 0x856 PUSH2 0x7D1 JUMP JUMPDEST PUSH1 0x40 MLOAD PUSH1 0x1F DUP3 ADD PUSH1 0x1F NOT AND DUP2 ADD PUSH8 0xFFFFFFFFFFFFFFFF DUP2 GT DUP3 DUP3 LT OR ISZERO PUSH2 0x8A8 JUMPI PUSH2 0x8A8 PUSH2 0x7D1 JUMP JUMPDEST PUSH1 0x40 MSTORE SWAP2 SWAP1 POP JUMP JUMPDEST PUSH1 0x0 PUSH8 0xFFFFFFFFFFFFFFFF DUP3 GT ISZERO PUSH2 0x8CA JUMPI PUSH2 0x8CA PUSH2 0x7D1 JUMP JUMPDEST POP PUSH1 0x5 SHL PUSH1 0x20 ADD SWAP1 JUMP JUMPDEST DUP1 CALLDATALOAD DUP1 ISZERO ISZERO DUP2 EQ PUSH2 0x7AA JUMPI PUSH1 0x0 DUP1 REVERT JUMPDEST PUSH1 0x0 DUP3 PUSH1 0x1F DUP4 ADD SLT PUSH2 0x8F5 JUMPI PUSH1 0x0 DUP1 REVERT JUMPDEST DUP2 CALLDATALOAD PUSH8 0xFFFFFFFFFFFFFFFF DUP2 GT ISZERO PUSH2 0x90F JUMPI PUSH2 0x90F PUSH2 0x7D1 JUMP JUMPDEST PUSH2 0x922 PUSH1 0x1F DUP3 ADD PUSH1 0x1F NOT AND PUSH1 0x20 ADD PUSH2 0x87F JUMP JUMPDEST DUP2 DUP2 MSTORE DUP5 PUSH1 0x20 DUP4 DUP7 ADD ADD GT ISZERO PUSH2 0x937 JUMPI PUSH1 0x0 DUP1 REVERT JUMPDEST DUP2 PUSH1 0x20 DUP6 ADD PUSH1 0x20 DUP4 ADD CALLDATACOPY PUSH1 0x0 SWAP2 DUP2 ADD PUSH1 0x20 ADD SWAP2 SWAP1 SWAP2 MSTORE SWAP4 SWAP3 POP POP POP JUMP JUMPDEST PUSH1 0x0 PUSH1 0x40 DUP1 DUP4 CALLDATASIZE SUB SLT ISZERO PUSH2 0x967 JUMPI PUSH1 0x0 DUP1 REVERT JUMPDEST PUSH2 0x96F PUSH2 0x833 JUMP JUMPDEST DUP4 CALLDATALOAD DUP2 MSTORE PUSH1 0x20 DUP1 DUP6 ADD CALLDATALOAD PUSH8 0xFFFFFFFFFFFFFFFF DUP1 DUP3 GT ISZERO PUSH2 0x98F JUMPI PUSH1 0x0 DUP1 REVERT JUMPDEST SWAP1 DUP7 ADD SWAP1 CALLDATASIZE PUSH1 0x1F DUP4 ADD SLT PUSH2 0x9A2 JUMPI PUSH1 0x0 DUP1 REVERT JUMPDEST DUP2 CALLDATALOAD PUSH2 0x9B5 PUSH2 0x9B0 DUP3 PUSH2 0x8B0 JUMP JUMPDEST PUSH2 0x87F JUMP JUMPDEST DUP2 DUP2 MSTORE PUSH1 0x5 SWAP2 SWAP1 SWAP2 SHL DUP4 ADD DUP5 ADD SWAP1 DUP5 DUP2 ADD SWAP1 CALLDATASIZE DUP4 GT ISZERO PUSH2 0x9D4 JUMPI PUSH1 0x0 DUP1 REVERT JUMPDEST DUP6 DUP6 ADD JUMPDEST DUP4 DUP2 LT ISZERO PUSH2 0xA92 JUMPI DUP1 CALLDATALOAD DUP6 DUP2 GT ISZERO PUSH2 0x9F0 JUMPI PUSH1 0x0 DUP1 DUP2 REVERT JUMPDEST DUP7 ADD PUSH1 0xC0 CALLDATASIZE DUP3 SWAP1 SUB PUSH1 0x1F NOT ADD DUP2 SGT ISZERO PUSH2 0xA09 JUMPI PUSH1 0x0 DUP1 DUP2 REVERT JUMPDEST PUSH2 0xA11 PUSH2 0x85C JUMP JUMPDEST PUSH2 0xA1C DUP11 DUP5 ADD PUSH2 0x793 JUMP JUMPDEST DUP2 MSTORE DUP12 DUP4 ADD CALLDATALOAD DUP9 DUP2 AND DUP2 EQ PUSH2 0xA31 JUMPI PUSH1 0x0 DUP1 DUP2 REVERT JUMPDEST DUP2 DUP12 ADD MSTORE PUSH1 0x60 PUSH2 0xA42 DUP5 DUP3 ADD PUSH2 0x8D4 JUMP JUMPDEST DUP14 DUP4 ADD MSTORE PUSH1 0x80 DUP1 DUP6 ADD CALLDATALOAD DUP3 DUP5 ADD MSTORE PUSH1 0xA0 SWAP2 POP DUP2 DUP6 ADD CALLDATALOAD DUP11 DUP2 GT ISZERO PUSH2 0xA66 JUMPI PUSH1 0x0 DUP1 DUP2 REVERT JUMPDEST PUSH2 0xA74 CALLDATASIZE DUP15 DUP4 DUP10 ADD ADD PUSH2 0x8E4 JUMP JUMPDEST SWAP2 DUP5 ADD SWAP2 SWAP1 SWAP2 MSTORE POP SWAP2 SWAP1 SWAP3 ADD CALLDATALOAD SWAP1 DUP3 ADD MSTORE DUP4 MSTORE SWAP2 DUP7 ADD SWAP2 DUP7 ADD PUSH2 0x9D8 JUMP JUMPDEST POP SWAP5 DUP7 ADD SWAP5 SWAP1 SWAP5 MSTORE POP SWAP3 SWAP7 SWAP6 POP POP POP POP POP POP JUMP JUMPDEST PUSH1 0x0 PUSH1 0x1 DUP3 ADD PUSH2 0xAC6 JUMPI PUSH4 0x4E487B71 PUSH1 0xE0 SHL PUSH1 0x0 MSTORE PUSH1 0x11 PUSH1 0x4 MSTORE PUSH1 0x24 PUSH1 0x0 REVERT JUMPDEST POP PUSH1 0x1 ADD SWAP1 JUMP JUMPDEST PUSH1 0x0 PUSH1 0x20 DUP1 DUP4 ADD DUP2 DUP5 MSTORE DUP1 DUP6 MLOAD DUP1 DUP4 MSTORE PUSH1 0x40 SWAP3 POP DUP3 DUP7 ADD SWAP2 POP DUP3 DUP2 PUSH1 0x5 SHL DUP8 ADD ADD DUP5 DUP9 ADD PUSH1 0x0 JUMPDEST DUP4 DUP2 LT ISZERO PUSH2 0xBFE JUMPI PUSH1 0x3F NOT DUP10 DUP5 SUB ADD DUP6 MSTORE DUP2 MLOAD DUP1 MLOAD DUP5 MSTORE DUP8 ADD MLOAD DUP8 DUP5 ADD DUP8 SWAP1 MSTORE DUP1 MLOAD DUP8 DUP6 ADD DUP2 SWAP1 MSTORE SWAP1 DUP9 ADD SWAP1 PUSH1 0x60 PUSH1 0x5 DUP3 SWAP1 SHL DUP7 ADD DUP2 ADD SWAP2 SWAP1 DUP7 ADD SWAP1 PUSH1 0x0 JUMPDEST DUP2 DUP2 LT ISZERO PUSH2 0xBE8 JUMPI PUSH1 0x5F NOT DUP9 DUP6 SUB ADD DUP4 MSTORE DUP5 MLOAD PUSH1 0x1 PUSH1 0x1 PUSH1 0xA0 SHL SUB DUP2 MLOAD AND DUP6 MSTORE PUSH8 0xFFFFFFFFFFFFFFFF DUP14 DUP3 ADD MLOAD AND DUP14 DUP7 ADD MSTORE DUP12 DUP2 ADD MLOAD ISZERO ISZERO DUP13 DUP7 ADD MSTORE PUSH1 0x60 DUP2 ADD MLOAD PUSH1 0x60 DUP7 ADD MSTORE PUSH1 0x80 DUP2 ADD MLOAD PUSH1 0xC0 PUSH1 0x80 DUP8 ADD MSTORE DUP1 MLOAD DUP1 PUSH1 0xC0 DUP9 ADD MSTORE PUSH1 0x0 JUMPDEST DUP2 DUP2 LT ISZERO PUSH2 0xBAF JUMPI DUP16 DUP2 DUP5 ADD ADD MLOAD PUSH1 0xE0 DUP3 DUP11 ADD ADD MSTORE DUP16 DUP2 ADD SWAP1 POP PUSH2 0xB90 JUMP JUMPDEST POP PUSH1 0x0 DUP8 DUP3 ADD PUSH1 0xE0 SWAP1 DUP2 ADD SWAP2 SWAP1 SWAP2 MSTORE PUSH1 0xA0 SWAP4 DUP5 ADD MLOAD SWAP4 DUP9 ADD SWAP4 SWAP1 SWAP4 MSTORE SWAP7 DUP15 ADD SWAP7 PUSH1 0x1F ADD PUSH1 0x1F NOT AND SWAP1 SWAP6 ADD ADD SWAP4 POP SWAP2 DUP12 ADD SWAP2 PUSH1 0x1 ADD PUSH2 0xB33 JUMP JUMPDEST POP POP POP SWAP6 DUP9 ADD SWAP6 SWAP4 POP POP SWAP1 DUP7 ADD SWAP1 PUSH1 0x1 ADD PUSH2 0xAF4 JUMP JUMPDEST POP SWAP1 SWAP9 SWAP8 POP POP POP POP POP POP POP POP JUMP JUMPDEST PUSH1 0x0 PUSH1 0x20 DUP1 DUP4 DUP6 SUB SLT ISZERO PUSH2 0xC1F JUMPI PUSH1 0x0 DUP1 REVERT JUMPDEST DUP3 MLOAD PUSH8 0xFFFFFFFFFFFFFFFF DUP2 GT ISZERO PUSH2 0xC36 JUMPI PUSH1 0x0 DUP1 REVERT JUMPDEST DUP4 ADD PUSH1 0x1F DUP2 ADD DUP6 SGT PUSH2 0xC47 JUMPI PUSH1 0x0 DUP1 REVERT JUMPDEST DUP1 MLOAD PUSH2 0xC55 PUSH2 0x9B0 DUP3 PUSH2 0x8B0 JUMP JUMPDEST DUP2 DUP2 MSTORE PUSH1 0x5 SWAP2 SWAP1 SWAP2 SHL DUP3 ADD DUP4 ADD SWAP1 DUP4 DUP2 ADD SWAP1 DUP8 DUP4 GT ISZERO PUSH2 0xC74 JUMPI PUSH1 0x0 DUP1 REVERT JUMPDEST SWAP3 DUP5 ADD SWAP3 JUMPDEST DUP3 DUP5 LT ISZERO PUSH2 0xC92 JUMPI DUP4 MLOAD DUP3 MSTORE SWAP3 DUP5 ADD SWAP3 SWAP1 DUP5 ADD SWAP1 PUSH2 0xC79 JUMP JUMPDEST SWAP8 SWAP7 POP POP POP POP POP POP POP JUMP INVALID LOG2 PUSH5 0x6970667358 0x22 SLT KECCAK256 SLOAD SWAP10 CODESIZE PUSH32 0xF34C3BCE07996D536378EFC23281AE9194540F40A08DA9FC3171958464736F6C PUSH4 0x43000813 STOP CALLER "},"gasEstimates":{"creation":{"codeDepositCost":"656600","executionCost":"689","totalCost":"657289"},"external":{"eas()":"2370","initialize(address)":"infinite","multiSequentialAttest((bytes32,(bytes32,(address,uint64,bool,bytes32,bytes,uint256)[]),uint256)[])":"infinite","owner()":"2319","renounceOwnership()":"infinite","transferOwnership(address)":"28368"}},"methodIdentifiers":{"eas()":"8150864d","initialize(address)":"c4d66de8","multiSequentialAttest((bytes32,(bytes32,(address,uint64,bool,bytes32,bytes,uint256)[]),uint256)[])":"5913a31c","owner()":"8da5cb5b","renounceOwnership()":"715018a6","transferOwnership(address)":"f2fde38b"}},"storageLayout":{"storage":[{"astId":586,"contract":"contracts/Gap.sol:Gap","label":"_initialized","offset":0,"slot":"0","type":"t_uint8"},{"astId":589,"contract":"contracts/Gap.sol:Gap","label":"_initializing","offset":1,"slot":"0","type":"t_bool"},{"astId":1119,"contract":"contracts/Gap.sol:Gap","label":"__gap","offset":0,"slot":"1","type":"t_array(t_uint256)50_storage"},{"astId":458,"contract":"contracts/Gap.sol:Gap","label":"_owner","offset":0,"slot":"51","type":"t_address"},{"astId":578,"contract":"contracts/Gap.sol:Gap","label":"__gap","offset":0,"slot":"52","type":"t_array(t_uint256)49_storage"},{"astId":1136,"contract":"contracts/Gap.sol:Gap","label":"eas","offset":0,"slot":"101","type":"t_contract(IEAS)346"}],"types":{"t_address":{"encoding":"inplace","label":"address","numberOfBytes":"20"},"t_array(t_uint256)49_storage":{"base":"t_uint256","encoding":"inplace","label":"uint256[49]","numberOfBytes":"1568"},"t_array(t_uint256)50_storage":{"base":"t_uint256","encoding":"inplace","label":"uint256[50]","numberOfBytes":"1600"},"t_bool":{"encoding":"inplace","label":"bool","numberOfBytes":"1"},"t_contract(IEAS)346":{"encoding":"inplace","label":"contract IEAS","numberOfBytes":"20"},"t_uint256":{"encoding":"inplace","label":"uint256","numberOfBytes":"32"},"t_uint8":{"encoding":"inplace","label":"uint8","numberOfBytes":"1"}}},"userdoc":{"kind":"user","methods":{},"version":1}}}}