{"contracts/Gap.sol":{"Gap":{"abi":[{"inputs":[],"stateMutability":"nonpayable","type":"constructor"},{"anonymous":false,"inputs":[],"name":"EIP712DomainChanged","type":"event"},{"anonymous":false,"inputs":[{"indexed":false,"internalType":"uint8","name":"version","type":"uint8"}],"name":"Initialized","type":"event"},{"anonymous":false,"inputs":[{"indexed":true,"internalType":"address","name":"previousOwner","type":"address"},{"indexed":true,"internalType":"address","name":"newOwner","type":"address"}],"name":"OwnershipTransferred","type":"event"},{"inputs":[],"name":"ATTEST_TYPEHASH","outputs":[{"internalType":"bytes32","name":"","type":"bytes32"}],"stateMutability":"view","type":"function"},{"inputs":[{"internalType":"string","name":"payloadHash","type":"string"},{"internalType":"uint256","name":"nonce","type":"uint256"},{"internalType":"uint256","name":"expiry","type":"uint256"},{"internalType":"uint8","name":"v","type":"uint8"},{"internalType":"bytes32","name":"r","type":"bytes32"},{"internalType":"bytes32","name":"s","type":"bytes32"}],"name":"_recoverSignerAddress","outputs":[{"internalType":"address","name":"signer","type":"address"}],"stateMutability":"view","type":"function"},{"inputs":[{"components":[{"internalType":"bytes32","name":"schema","type":"bytes32"},{"components":[{"internalType":"address","name":"recipient","type":"address"},{"internalType":"uint64","name":"expirationTime","type":"uint64"},{"internalType":"bool","name":"revocable","type":"bool"},{"internalType":"bytes32","name":"refUID","type":"bytes32"},{"internalType":"bytes","name":"data","type":"bytes"},{"internalType":"uint256","name":"value","type":"uint256"}],"internalType":"struct AttestationRequestData","name":"data","type":"tuple"}],"internalType":"struct AttestationRequest","name":"request","type":"tuple"}],"name":"attest","outputs":[{"internalType":"bytes32","name":"","type":"bytes32"}],"stateMutability":"payable","type":"function"},{"inputs":[{"components":[{"internalType":"bytes32","name":"schema","type":"bytes32"},{"components":[{"internalType":"address","name":"recipient","type":"address"},{"internalType":"uint64","name":"expirationTime","type":"uint64"},{"internalType":"bool","name":"revocable","type":"bool"},{"internalType":"bytes32","name":"refUID","type":"bytes32"},{"internalType":"bytes","name":"data","type":"bytes"},{"internalType":"uint256","name":"value","type":"uint256"}],"internalType":"struct AttestationRequestData","name":"data","type":"tuple"}],"internalType":"struct AttestationRequest","name":"request","type":"tuple"},{"internalType":"string","name":"payloadHash","type":"string"},{"internalType":"address","name":"attester","type":"address"},{"internalType":"uint256","name":"nonce","type":"uint256"},{"internalType":"uint256","name":"expiry","type":"uint256"},{"internalType":"uint8","name":"v","type":"uint8"},{"internalType":"bytes32","name":"r","type":"bytes32"},{"internalType":"bytes32","name":"s","type":"bytes32"}],"name":"attestBySig","outputs":[{"internalType":"bytes32","name":"","type":"bytes32"}],"stateMutability":"nonpayable","type":"function"},{"inputs":[],"name":"eas","outputs":[{"internalType":"contract IEAS","name":"","type":"address"}],"stateMutability":"view","type":"function"},{"inputs":[],"name":"eip712Domain","outputs":[{"internalType":"bytes1","name":"fields","type":"bytes1"},{"internalType":"string","name":"name","type":"string"},{"internalType":"string","name":"version","type":"string"},{"internalType":"uint256","name":"chainId","type":"uint256"},{"internalType":"address","name":"verifyingContract","type":"address"},{"internalType":"bytes32","name":"salt","type":"bytes32"},{"internalType":"uint256[]","name":"extensions","type":"uint256[]"}],"stateMutability":"view","type":"function"},{"inputs":[{"internalType":"address","name":"easAddr","type":"address"}],"name":"initialize","outputs":[],"stateMutability":"nonpayable","type":"function"},{"inputs":[{"components":[{"internalType":"bytes32","name":"uid","type":"bytes32"},{"components":[{"internalType":"bytes32","name":"schema","type":"bytes32"},{"components":[{"internalType":"address","name":"recipient","type":"address"},{"internalType":"uint64","name":"expirationTime","type":"uint64"},{"internalType":"bool","name":"revocable","type":"bool"},{"internalType":"bytes32","name":"refUID","type":"bytes32"},{"internalType":"bytes","name":"data","type":"bytes"},{"internalType":"uint256","name":"value","type":"uint256"}],"internalType":"struct AttestationRequestData[]","name":"data","type":"tuple[]"}],"internalType":"struct MultiAttestationRequest","name":"multiRequest","type":"tuple"},{"internalType":"uint256","name":"refIdx","type":"uint256"}],"internalType":"struct Gap.AttestationRequestNode[]","name":"requestNodes","type":"tuple[]"},{"internalType":"string","name":"payloadHash","type":"string"},{"internalType":"address","name":"attester","type":"address"},{"internalType":"uint256","name":"nonce","type":"uint256"},{"internalType":"uint256","name":"expiry","type":"uint256"},{"internalType":"uint8","name":"v","type":"uint8"},{"internalType":"bytes32","name":"r","type":"bytes32"},{"internalType":"bytes32","name":"s","type":"bytes32"}],"name":"multiAttestBySig","outputs":[],"stateMutability":"nonpayable","type":"function"},{"inputs":[{"components":[{"internalType":"bytes32","name":"schema","type":"bytes32"},{"components":[{"internalType":"bytes32","name":"uid","type":"bytes32"},{"internalType":"uint256","name":"value","type":"uint256"}],"internalType":"struct RevocationRequestData[]","name":"data","type":"tuple[]"}],"internalType":"struct MultiRevocationRequest[]","name":"multiRequests","type":"tuple[]"}],"name":"multiRevoke","outputs":[],"stateMutability":"payable","type":"function"},{"inputs":[{"components":[{"internalType":"bytes32","name":"schema","type":"bytes32"},{"components":[{"internalType":"bytes32","name":"uid","type":"bytes32"},{"internalType":"uint256","name":"value","type":"uint256"}],"internalType":"struct RevocationRequestData[]","name":"data","type":"tuple[]"}],"internalType":"struct MultiRevocationRequest[]","name":"multiRequests","type":"tuple[]"},{"internalType":"string","name":"payloadHash","type":"string"},{"internalType":"address","name":"attester","type":"address"},{"internalType":"uint256","name":"nonce","type":"uint256"},{"internalType":"uint256","name":"expiry","type":"uint256"},{"internalType":"uint8","name":"v","type":"uint8"},{"internalType":"bytes32","name":"r","type":"bytes32"},{"internalType":"bytes32","name":"s","type":"bytes32"}],"name":"multiRevokeBySig","outputs":[],"stateMutability":"nonpayable","type":"function"},{"inputs":[{"components":[{"internalType":"bytes32","name":"uid","type":"bytes32"},{"components":[{"internalType":"bytes32","name":"schema","type":"bytes32"},{"components":[{"internalType":"address","name":"recipient","type":"address"},{"internalType":"uint64","name":"expirationTime","type":"uint64"},{"internalType":"bool","name":"revocable","type":"bool"},{"internalType":"bytes32","name":"refUID","type":"bytes32"},{"internalType":"bytes","name":"data","type":"bytes"},{"internalType":"uint256","name":"value","type":"uint256"}],"internalType":"struct AttestationRequestData[]","name":"data","type":"tuple[]"}],"internalType":"struct MultiAttestationRequest","name":"multiRequest","type":"tuple"},{"internalType":"uint256","name":"refIdx","type":"uint256"}],"internalType":"struct Gap.AttestationRequestNode[]","name":"requestNodes","type":"tuple[]"}],"name":"multiSequentialAttest","outputs":[],"stateMutability":"nonpayable","type":"function"},{"inputs":[{"internalType":"address","name":"","type":"address"}],"name":"nonces","outputs":[{"internalType":"uint256","name":"","type":"uint256"}],"stateMutability":"view","type":"function"},{"inputs":[],"name":"owner","outputs":[{"internalType":"address","name":"","type":"address"}],"stateMutability":"view","type":"function"},{"inputs":[],"name":"renounceOwnership","outputs":[],"stateMutability":"nonpayable","type":"function"},{"inputs":[{"internalType":"address","name":"newOwner","type":"address"}],"name":"transferOwnership","outputs":[],"stateMutability":"nonpayable","type":"function"}],"devdoc":{"events":{"EIP712DomainChanged()":{"details":"MAY be emitted to signal that the domain could have changed."},"Initialized(uint8)":{"details":"Triggered when the contract has been initialized or reinitialized."}},"kind":"dev","methods":{"constructor":{"custom:oz-upgrades-unsafe-allow":"constructor"},"eip712Domain()":{"details":"See {EIP-5267}. _Available since v4.9._"},"owner()":{"details":"Returns the address of the current owner."},"renounceOwnership()":{"details":"Leaves the contract without owner. It will not be possible to call `onlyOwner` functions. Can only be called by the current owner. NOTE: Renouncing ownership will leave the contract without an owner, thereby disabling any functionality that is only available to the owner."},"transferOwnership(address)":{"details":"Transfers ownership of the contract to a new account (`newOwner`). Can only be called by the current owner."}},"version":1},"evm":{"bytecode":{"linkReferences":{},"object":"60806040523480156200001157600080fd5b506200001c62000022565b620000e3565b600054610100900460ff16156200008f5760405162461bcd60e51b815260206004820152602760248201527f496e697469616c697a61626c653a20636f6e747261637420697320696e697469604482015266616c697a696e6760c81b606482015260840160405180910390fd5b60005460ff90811614620000e1576000805460ff191660ff9081179091556040519081527f7f26b83ff96e1f2b6a682f133852f6798a09c465da95921460cefb38474024989060200160405180910390a15b565b61280280620000f36000396000f3fe6080604052600436106100e85760003560e01c80637ecebe001161008a578063c4d66de811610059578063c4d66de814610289578063d68a5ab6146102a9578063f17325e7146102c9578063f2fde38b146102dc57600080fd5b80637ecebe00146101f65780638150864d1461022357806384b0196e146102435780638da5cb5b1461026b57600080fd5b80635ea677e9116100c65780635ea677e9146101425780635ffed2f014610162578063715018a61461019f5780637e4a7d8f146101b457600080fd5b80634cb7e9e5146100ed5780635913a31c146101025780635cad755514610122575b600080fd5b6101006100fb36600461196b565b6102fc565b005b34801561010e57600080fd5b5061010061011d36600461196b565b6104dd565b34801561012e57600080fd5b5061010061013d366004611aea565b61078f565b34801561014e57600080fd5b5061010061015d366004611aea565b610922565b34801561016e57600080fd5b5061018261017d366004611b9d565b610a68565b6040516001600160a01b0390911681526020015b60405180910390f35b3480156101ab57600080fd5b50610100610af7565b3480156101c057600080fd5b506101e87f17132900f74aadb4a80e6e5d88759b509b5a55861f3e0542632865ccc1180c4981565b604051908152602001610196565b34801561020257600080fd5b506101e8610211366004611c10565b609a6020526000908152604090205481565b34801561022f57600080fd5b50609954610182906001600160a01b031681565b34801561024f57600080fd5b50610258610b0b565b6040516101969796959493929190611c7d565b34801561027757600080fd5b506033546001600160a01b0316610182565b34801561029557600080fd5b506101006102a4366004611c10565b610bcd565b3480156102b557600080fd5b506101e86102c4366004611d47565b610d87565b6101e86102d7366004611df5565b610f2d565b3480156102e857600080fd5b506101006102f7366004611c10565b611041565b60005b8181101561047457600083838381811061031b5761031b611e32565b905060200281019061032d9190611e48565b61033690611e8c565b905060005b81602001515181101561045f57609954602083015180516000926001600160a01b03169163a3112a64918590811061037557610375611e32565b6020026020010151600001516040518263ffffffff1660e01b815260040161039f91815260200190565b600060405180830381865afa1580156103bc573d6000803e3d6000fd5b505050506040513d6000823e601f3d908101601f191682016040526103e49190810190611fe0565b60e08101519091506001600160a01b031633148061040e575060c08101516001600160a01b031633145b61044c5760405162461bcd60e51b815260206004820152600a6024820152692737ba1037bbb732b91760b11b60448201526064015b60405180910390fd5b5080610457816120d7565b91505061033b565b5050808061046c906120d7565b9150506102ff565b50609954604051634cb7e9e560e01b81526001600160a01b0390911690634cb7e9e5906104a790859085906004016120fe565b600060405180830381600087803b1580156104c157600080fd5b505af11580156104d5573d6000803e3d6000fd5b505050505050565b60008167ffffffffffffffff8111156104f8576104f86119ad565b60405190808252806020026020018201604052801561052b57816020015b60608152602001906001900390816105165790505b50905060005b8281101561078957600084848381811061054d5761054d611e32565b905060200281019061055f91906121ee565b61056d906020810190611e48565b610576906122be565b905061058581602001516110d1565b81156106675760005b816020015151811015610665576000826020015182815181106105b3576105b3611e32565b602002602001015190506000801b81606001510361065257848787868181106105de576105de611e32565b90506020028101906105f091906121ee565b604001358151811061060457610604611e32565b602002602001015160008151811061061e5761061e611e32565b6020026020010151816060018181525050808360200151838151811061064657610646611e32565b60200260200101819052505b508061065d816120d7565b91505061058e565b505b604080516001808252818301909252600091816020015b60408051808201909152600081526060602082015281526020019060019003908161067e57905050905081816000815181106106bc576106bc611e32565b60209081029190910101526099546040517f44adc90e0000000000000000000000000000000000000000000000000000000081526001600160a01b03909116906344adc90e90610710908490600401612383565b6000604051808303816000875af115801561072f573d6000803e3d6000fd5b505050506040513d6000823e601f3d908101601f19168201604052610757919081019061247f565b84848151811061076957610769611e32565b602002602001018190525050508080610781906120d7565b915050610531565b50505050565b834211156107d35760405162461bcd60e51b815260206004820152601160248201527014da59db985d1d5c9948195e1c1a5c9959607a1b6044820152606401610443565b60006107e3888787878787610a68565b9050866001600160a01b0316816001600160a01b0316146108595760405162461bcd60e51b815260206004820152602a60248201527f5369676e657220616e642061747465737465722061646472657373657320646f6044820152693713ba1036b0ba31b41760b11b6064820152608401610443565b6001600160a01b0381166000908152609a6020526040812080549161087d836120d7565b9190505586146108bf5760405162461bcd60e51b815260206004820152600d60248201526c496e76616c6964206e6f6e636560981b6044820152606401610443565b604051634cb7e9e560e01b81523090634cb7e9e5906108e4908d908d906004016120fe565b600060405180830381600087803b1580156108fe57600080fd5b505af1158015610912573d6000803e3d6000fd5b5050505050505050505050505050565b834211156109665760405162461bcd60e51b815260206004820152601160248201527014da59db985d1d5c9948195e1c1a5c9959607a1b6044820152606401610443565b6000610976888787878787610a68565b9050866001600160a01b0316816001600160a01b0316146109ec5760405162461bcd60e51b815260206004820152602a60248201527f5369676e657220616e642061747465737465722061646472657373657320646f6044820152693713ba1036b0ba31b41760b11b6064820152608401610443565b6001600160a01b0381166000908152609a60205260408120805491610a10836120d7565b919050558614610a525760405162461bcd60e51b815260206004820152600d60248201526c496e76616c6964206e6f6e636560981b6044820152606401610443565b610a5c8a8a6104dd565b50505050505050505050565b600080610add7f17132900f74aadb4a80e6e5d88759b509b5a55861f3e0542632865ccc1180c4989805190602001208989604051602001610ac2949392919093845260208401929092526040830152606082015260800190565b6040516020818303038152906040528051906020012061113c565b9050610aeb8186868661118a565b98975050505050505050565b610aff6111b2565b610b09600061120c565b565b6000606080600080600060606065546000801b148015610b2b5750606654155b610b775760405162461bcd60e51b815260206004820152601560248201527f4549503731323a20556e696e697469616c697a656400000000000000000000006044820152606401610443565b610b7f61126b565b610b876112fd565b604080516000808252602082019092527f0f000000000000000000000000000000000000000000000000000000000000009b939a50919850469750309650945092509050565b600054610100900460ff1615808015610bed5750600054600160ff909116105b80610c075750303b158015610c07575060005460ff166001145b610c795760405162461bcd60e51b815260206004820152602e60248201527f496e697469616c697a61626c653a20636f6e747261637420697320616c72656160448201527f647920696e697469616c697a65640000000000000000000000000000000000006064820152608401610443565b6000805460ff191660011790558015610c9c576000805461ff0019166101001790555b6099805473ffffffffffffffffffffffffffffffffffffffff19166001600160a01b038416179055604080518082018252600f81527f6761702d6174746573746174696f6e00000000000000000000000000000000006020808301919091528251808401909352600383527f312e30000000000000000000000000000000000000000000000000000000000090830152610d359161130c565b610d3d611381565b8015610d83576000805461ff0019169055604051600181527f7f26b83ff96e1f2b6a682f133852f6798a09c465da95921460cefb38474024989060200160405180910390a15b5050565b600084421115610dcd5760405162461bcd60e51b815260206004820152601160248201527014da59db985d1d5c9948195e1c1a5c9959607a1b6044820152606401610443565b6000610ddd898888888888610a68565b9050876001600160a01b0316816001600160a01b031614610e535760405162461bcd60e51b815260206004820152602a60248201527f5369676e657220616e642061747465737465722061646472657373657320646f6044820152693713ba1036b0ba31b41760b11b6064820152608401610443565b6001600160a01b0381166000908152609a60205260408120805491610e77836120d7565b919050558714610eb95760405162461bcd60e51b815260206004820152600d60248201526c496e76616c6964206e6f6e636560981b6044820152606401610443565b60405163f17325e760e01b8152309063f17325e790610edc908d9060040161257f565b6020604051808303816000875af1158015610efb573d6000803e3d6000fd5b505050506040513d601f19601f82011682018060405250810190610f1f919061263c565b9a9950505050505050505050565b604080516001808252818301909252600091829190816020015b6040805160c081018252600080825260208083018290529282018190526060808301829052608083015260a08201528252600019909201910181610f47579050509050610f976020840184612655565b610fa09061266b565b81600081518110610fb357610fb3611e32565b6020026020010181905250610fc7816110d1565b60995460405163f17325e760e01b81526001600160a01b039091169063f17325e790610ff790869060040161257f565b6020604051808303816000875af1158015611016573d6000803e3d6000fd5b505050506040513d601f19601f8201168201806040525081019061103a919061263c565b9392505050565b6110496111b2565b6001600160a01b0381166110c55760405162461bcd60e51b815260206004820152602660248201527f4f776e61626c653a206e6577206f776e657220697320746865207a65726f206160448201527f64647265737300000000000000000000000000000000000000000000000000006064820152608401610443565b6110ce8161120c565b50565b60005b8151811015610d83576000801b8282815181106110f3576110f3611e32565b6020026020010151606001511461112a5761112a82828151811061111957611119611e32565b6020026020010151606001516113f4565b80611134816120d7565b9150506110d4565b60006111846111496114e2565b836040517f19010000000000000000000000000000000000000000000000000000000000008152600281019290925260228201526042902090565b92915050565b600080600061119b878787876114f1565b915091506111a8816115b5565b5095945050505050565b6033546001600160a01b03163314610b095760405162461bcd60e51b815260206004820181905260248201527f4f776e61626c653a2063616c6c6572206973206e6f7420746865206f776e65726044820152606401610443565b603380546001600160a01b0383811673ffffffffffffffffffffffffffffffffffffffff19831681179093556040519116919082907f8be0079c531659141344cd1fd0a4f28419497f9722a3daafe3b4186f6b6457e090600090a35050565b60606067805461127a90612677565b80601f01602080910402602001604051908101604052809291908181526020018280546112a690612677565b80156112f35780601f106112c8576101008083540402835291602001916112f3565b820191906000526020600020905b8154815290600101906020018083116112d657829003601f168201915b5050505050905090565b60606068805461127a90612677565b600054610100900460ff166113775760405162461bcd60e51b815260206004820152602b60248201527f496e697469616c697a61626c653a20636f6e7472616374206973206e6f74206960448201526a6e697469616c697a696e6760a81b6064820152608401610443565b610d83828261171a565b600054610100900460ff166113ec5760405162461bcd60e51b815260206004820152602b60248201527f496e697469616c697a61626c653a20636f6e7472616374206973206e6f74206960448201526a6e697469616c697a696e6760a81b6064820152608401610443565b610b096117ad565b6099546040517fa3112a64000000000000000000000000000000000000000000000000000000008152600481018390526000916001600160a01b03169063a3112a6490602401600060405180830381865afa158015611457573d6000803e3d6000fd5b505050506040513d6000823e601f3d908101601f1916820160405261147f9190810190611fe0565b60e08101519091506001600160a01b03163314806114a9575060c08101516001600160a01b031633145b610d835760405162461bcd60e51b815260206004820152600a6024820152692737ba1037bbb732b91760b11b6044820152606401610443565b60006114ec611821565b905090565b6000807f7fffffffffffffffffffffffffffffff5d576e7357a4501ddfe92f46681b20a083111561152857506000905060036115ac565b6040805160008082526020820180845289905260ff881692820192909252606081018690526080810185905260019060a0016020604051602081039080840390855afa15801561157c573d6000803e3d6000fd5b5050604051601f1901519150506001600160a01b0381166115a5576000600192509250506115ac565b9150600090505b94509492505050565b60008160048111156115c9576115c96126ab565b036115d15750565b60018160048111156115e5576115e56126ab565b036116325760405162461bcd60e51b815260206004820152601860248201527f45434453413a20696e76616c6964207369676e617475726500000000000000006044820152606401610443565b6002816004811115611646576116466126ab565b036116935760405162461bcd60e51b815260206004820152601f60248201527f45434453413a20696e76616c6964207369676e6174757265206c656e677468006044820152606401610443565b60038160048111156116a7576116a76126ab565b036110ce5760405162461bcd60e51b815260206004820152602260248201527f45434453413a20696e76616c6964207369676e6174757265202773272076616c60448201527f75650000000000000000000000000000000000000000000000000000000000006064820152608401610443565b600054610100900460ff166117855760405162461bcd60e51b815260206004820152602b60248201527f496e697469616c697a61626c653a20636f6e7472616374206973206e6f74206960448201526a6e697469616c697a696e6760a81b6064820152608401610443565b6067611791838261270c565b50606861179e828261270c565b50506000606581905560665550565b600054610100900460ff166118185760405162461bcd60e51b815260206004820152602b60248201527f496e697469616c697a61626c653a20636f6e7472616374206973206e6f74206960448201526a6e697469616c697a696e6760a81b6064820152608401610443565b610b093361120c565b60007f8b73c3c69bb8fe3d512ecc4cf759cc79239f7b179b0ffacaa9a75d522b39400f61184c611895565b6118546118ee565b60408051602081019490945283019190915260608201524660808201523060a082015260c00160405160208183030381529060405280519060200120905090565b6000806118a061126b565b8051909150156118b7578051602090910120919050565b60655480156118c65792915050565b7fc5d2460186f7233c927e7db2dcc703c0e500b653ca82273b7bfad8045d85a4709250505090565b6000806118f96112fd565b805190915015611910578051602090910120919050565b60665480156118c65792915050565b60008083601f84011261193157600080fd5b50813567ffffffffffffffff81111561194957600080fd5b6020830191508360208260051b850101111561196457600080fd5b9250929050565b6000806020838503121561197e57600080fd5b823567ffffffffffffffff81111561199557600080fd5b6119a18582860161191f565b90969095509350505050565b634e487b7160e01b600052604160045260246000fd5b6040805190810167ffffffffffffffff811182821017156119e6576119e66119ad565b60405290565b604051610140810167ffffffffffffffff811182821017156119e6576119e66119ad565b604051601f8201601f1916810167ffffffffffffffff81118282101715611a3957611a396119ad565b604052919050565b600067ffffffffffffffff821115611a5b57611a5b6119ad565b50601f01601f191660200190565b600082601f830112611a7a57600080fd5b8135611a8d611a8882611a41565b611a10565b818152846020838601011115611aa257600080fd5b816020850160208301376000918101602001919091529392505050565b6001600160a01b03811681146110ce57600080fd5b803560ff81168114611ae557600080fd5b919050565b60008060008060008060008060006101008a8c031215611b0957600080fd5b893567ffffffffffffffff80821115611b2157600080fd5b611b2d8d838e0161191f565b909b50995060208c0135915080821115611b4657600080fd5b50611b538c828d01611a69565b97505060408a0135611b6481611abf565b955060608a0135945060808a01359350611b8060a08b01611ad4565b925060c08a0135915060e08a013590509295985092959850929598565b60008060008060008060c08789031215611bb657600080fd5b863567ffffffffffffffff811115611bcd57600080fd5b611bd989828a01611a69565b9650506020870135945060408701359350611bf660608801611ad4565b92506080870135915060a087013590509295509295509295565b600060208284031215611c2257600080fd5b813561103a81611abf565b60005b83811015611c48578181015183820152602001611c30565b50506000910152565b60008151808452611c69816020860160208601611c2d565b601f01601f19169290920160200192915050565b7fff00000000000000000000000000000000000000000000000000000000000000881681526000602060e081840152611cb960e084018a611c51565b8381036040850152611ccb818a611c51565b606085018990526001600160a01b038816608086015260a0850187905284810360c0860152855180825283870192509083019060005b81811015611d1d57835183529284019291840191600101611d01565b50909c9b505050505050505050505050565b600060408284031215611d4157600080fd5b50919050565b600080600080600080600080610100898b031215611d6457600080fd5b883567ffffffffffffffff80821115611d7c57600080fd5b611d888c838d01611d2f565b995060208b0135915080821115611d9e57600080fd5b50611dab8b828c01611a69565b9750506040890135611dbc81611abf565b95506060890135945060808901359350611dd860a08a01611ad4565b925060c0890135915060e089013590509295985092959890939650565b600060208284031215611e0757600080fd5b813567ffffffffffffffff811115611e1e57600080fd5b611e2a84828501611d2f565b949350505050565b634e487b7160e01b600052603260045260246000fd5b60008235603e19833603018112611e5e57600080fd5b9190910192915050565b600067ffffffffffffffff821115611e8257611e826119ad565b5060051b60200190565b60006040808336031215611e9f57600080fd5b611ea76119c3565b8335815260208085013567ffffffffffffffff811115611ec657600080fd5b850136601f820112611ed757600080fd5b8035611ee5611a8882611e68565b81815260069190911b82018301908381019036831115611f0457600080fd5b928401925b82841015611f4457868436031215611f215760008081fd5b611f296119c3565b84358152858501358682015282529286019290840190611f09565b93850193909352509195945050505050565b67ffffffffffffffff811681146110ce57600080fd5b8051611ae581611f56565b8051611ae581611abf565b80151581146110ce57600080fd5b8051611ae581611f82565b600082601f830112611fac57600080fd5b8151611fba611a8882611a41565b818152846020838601011115611fcf57600080fd5b611e2a826020830160208701611c2d565b600060208284031215611ff257600080fd5b815167ffffffffffffffff8082111561200a57600080fd5b90830190610140828603121561201f57600080fd5b6120276119ec565b825181526020830151602082015261204160408401611f6c565b604082015261205260608401611f6c565b606082015261206360808401611f6c565b608082015260a083015160a082015261207e60c08401611f77565b60c082015261208f60e08401611f77565b60e08201526101006120a2818501611f90565b9082015261012083810151838111156120ba57600080fd5b6120c688828701611f9b565b918301919091525095945050505050565b6000600182016120f757634e487b7160e01b600052601160045260246000fd5b5060010190565b60208082528181018390526000906040808401600586901b8501820187855b888110156121e057878303603f190184528135368b9003603e1901811261214357600080fd5b8a01803584528386018782013536839003601e1901811261216357600080fd5b90910187810191903567ffffffffffffffff81111561218157600080fd5b8060061b360383131561219357600080fd5b85890188905290819052600090606086015b818310156121cb5783358152898401358a820152928801926001929092019188016121a5565b9689019695505050918601915060010161211d565b509098975050505050505050565b60008235605e19833603018112611e5e57600080fd5b600060c0828403121561221657600080fd5b60405160c0810167ffffffffffffffff828210818311171561223a5761223a6119ad565b816040528293508435915061224e82611abf565b90825260208401359061226082611f56565b8160208401526040850135915061227682611f82565b81604084015260608501356060840152608085013591508082111561229a57600080fd5b506122a785828601611a69565b60808301525060a083013560a08201525092915050565b6000604082360312156122d057600080fd5b6122d86119c3565b8235815260208084013567ffffffffffffffff808211156122f857600080fd5b9085019036601f83011261230b57600080fd5b8135612319611a8882611e68565b81815260059190911b8301840190848101903683111561233857600080fd5b8585015b83811015612370578035858111156123545760008081fd5b6123623689838a0101612204565b84525091860191860161233c565b5094860194909452509295945050505050565b60006020808301818452808551808352604092508286019150828160051b87010184880160005b838110156121e057888303603f1901855281518051845287015187840187905280518785018190529088019060609081860190600581901b8701830160005b8281101561246857605f19898303018452855160c06001600160a01b03825116845267ffffffffffffffff8f830151168f8501528d82015115158e8501528682015187850152608080830151828287015261244683870182611c51565b60a09485015196909401959095525050958d0195938d019391506001016123e9565b50988b0198965050509288019250506001016123aa565b6000602080838503121561249257600080fd5b825167ffffffffffffffff8111156124a957600080fd5b8301601f810185136124ba57600080fd5b80516124c8611a8882611e68565b81815260059190911b820183019083810190878311156124e757600080fd5b928401925b82841015612505578351825292840192908401906124ec565b979650505050505050565b6000808335601e1984360301811261252757600080fd5b830160208101925035905067ffffffffffffffff81111561254757600080fd5b80360382131561196457600080fd5b81835281816020850137506000828201602090810191909152601f909101601f19169091010190565b60208152813560208201526000602083013560be198436030181126125a357600080fd5b604083810152830180356125b681611abf565b6001600160a01b0316606084015260208101356125d281611f56565b67ffffffffffffffff16608084015260408101356125ef81611f82565b151560a0840152606081013560c084015261260d6080820182612510565b60c060e086015261262361012086018284612556565b91505060a0820135610100850152809250505092915050565b60006020828403121561264e57600080fd5b5051919050565b6000823560be19833603018112611e5e57600080fd5b60006111843683612204565b600181811c9082168061268b57607f821691505b602082108103611d4157634e487b7160e01b600052602260045260246000fd5b634e487b7160e01b600052602160045260246000fd5b601f82111561270757600081815260208120601f850160051c810160208610156126e85750805b601f850160051c820191505b818110156104d5578281556001016126f4565b505050565b815167ffffffffffffffff811115612726576127266119ad565b61273a816127348454612677565b846126c1565b602080601f83116001811461276f57600084156127575750858301515b600019600386901b1c1916600185901b1785556104d5565b600085815260208120601f198616915b8281101561279e5788860151825594840194600190910190840161277f565b50858210156127bc5787850151600019600388901b60f8161c191681555b5050505050600190811b0190555056fea26469706673582212209d295fc07ad69dc0e81e72abc01012614638b062bf313c22b8963e0db80fb9bb64736f6c63430008130033","opcodes":"PUSH1 0x80 PUSH1 0x40 MSTORE CALLVALUE DUP1 ISZERO PUSH3 0x11 JUMPI PUSH1 0x0 DUP1 REVERT JUMPDEST POP PUSH3 0x1C PUSH3 0x22 JUMP JUMPDEST PUSH3 0xE3 JUMP JUMPDEST PUSH1 0x0 SLOAD PUSH2 0x100 SWAP1 DIV PUSH1 0xFF AND ISZERO PUSH3 0x8F JUMPI PUSH1 0x40 MLOAD PUSH3 0x461BCD PUSH1 0xE5 SHL DUP2 MSTORE PUSH1 0x20 PUSH1 0x4 DUP3 ADD MSTORE PUSH1 0x27 PUSH1 0x24 DUP3 ADD MSTORE PUSH32 0x496E697469616C697A61626C653A20636F6E747261637420697320696E697469 PUSH1 0x44 DUP3 ADD MSTORE PUSH7 0x616C697A696E67 PUSH1 0xC8 SHL PUSH1 0x64 DUP3 ADD MSTORE PUSH1 0x84 ADD PUSH1 0x40 MLOAD DUP1 SWAP2 SUB SWAP1 REVERT JUMPDEST PUSH1 0x0 SLOAD PUSH1 0xFF SWAP1 DUP2 AND EQ PUSH3 0xE1 JUMPI PUSH1 0x0 DUP1 SLOAD PUSH1 0xFF NOT AND PUSH1 0xFF SWAP1 DUP2 OR SWAP1 SWAP2 SSTORE PUSH1 0x40 MLOAD SWAP1 DUP2 MSTORE PUSH32 0x7F26B83FF96E1F2B6A682F133852F6798A09C465DA95921460CEFB3847402498 SWAP1 PUSH1 0x20 ADD PUSH1 0x40 MLOAD DUP1 SWAP2 SUB SWAP1 LOG1 JUMPDEST JUMP JUMPDEST PUSH2 0x2802 DUP1 PUSH3 0xF3 PUSH1 0x0 CODECOPY PUSH1 0x0 RETURN INVALID PUSH1 0x80 PUSH1 0x40 MSTORE PUSH1 0x4 CALLDATASIZE LT PUSH2 0xE8 JUMPI PUSH1 0x0 CALLDATALOAD PUSH1 0xE0 SHR DUP1 PUSH4 0x7ECEBE00 GT PUSH2 0x8A JUMPI DUP1 PUSH4 0xC4D66DE8 GT PUSH2 0x59 JUMPI DUP1 PUSH4 0xC4D66DE8 EQ PUSH2 0x289 JUMPI DUP1 PUSH4 0xD68A5AB6 EQ PUSH2 0x2A9 JUMPI DUP1 PUSH4 0xF17325E7 EQ PUSH2 0x2C9 JUMPI DUP1 PUSH4 0xF2FDE38B EQ PUSH2 0x2DC JUMPI PUSH1 0x0 DUP1 REVERT JUMPDEST DUP1 PUSH4 0x7ECEBE00 EQ PUSH2 0x1F6 JUMPI DUP1 PUSH4 0x8150864D EQ PUSH2 0x223 JUMPI DUP1 PUSH4 0x84B0196E EQ PUSH2 0x243 JUMPI DUP1 PUSH4 0x8DA5CB5B EQ PUSH2 0x26B JUMPI PUSH1 0x0 DUP1 REVERT JUMPDEST DUP1 PUSH4 0x5EA677E9 GT PUSH2 0xC6 JUMPI DUP1 PUSH4 0x5EA677E9 EQ PUSH2 0x142 JUMPI DUP1 PUSH4 0x5FFED2F0 EQ PUSH2 0x162 JUMPI DUP1 PUSH4 0x715018A6 EQ PUSH2 0x19F JUMPI DUP1 PUSH4 0x7E4A7D8F EQ PUSH2 0x1B4 JUMPI PUSH1 0x0 DUP1 REVERT JUMPDEST DUP1 PUSH4 0x4CB7E9E5 EQ PUSH2 0xED JUMPI DUP1 PUSH4 0x5913A31C EQ PUSH2 0x102 JUMPI DUP1 PUSH4 0x5CAD7555 EQ PUSH2 0x122 JUMPI JUMPDEST PUSH1 0x0 DUP1 REVERT JUMPDEST PUSH2 0x100 PUSH2 0xFB CALLDATASIZE PUSH1 0x4 PUSH2 0x196B JUMP JUMPDEST PUSH2 0x2FC JUMP JUMPDEST STOP JUMPDEST CALLVALUE DUP1 ISZERO PUSH2 0x10E JUMPI PUSH1 0x0 DUP1 REVERT JUMPDEST POP PUSH2 0x100 PUSH2 0x11D CALLDATASIZE PUSH1 0x4 PUSH2 0x196B JUMP JUMPDEST PUSH2 0x4DD JUMP JUMPDEST CALLVALUE DUP1 ISZERO PUSH2 0x12E JUMPI PUSH1 0x0 DUP1 REVERT JUMPDEST POP PUSH2 0x100 PUSH2 0x13D CALLDATASIZE PUSH1 0x4 PUSH2 0x1AEA JUMP JUMPDEST PUSH2 0x78F JUMP JUMPDEST CALLVALUE DUP1 ISZERO PUSH2 0x14E JUMPI PUSH1 0x0 DUP1 REVERT JUMPDEST POP PUSH2 0x100 PUSH2 0x15D CALLDATASIZE PUSH1 0x4 PUSH2 0x1AEA JUMP JUMPDEST PUSH2 0x922 JUMP JUMPDEST CALLVALUE DUP1 ISZERO PUSH2 0x16E JUMPI PUSH1 0x0 DUP1 REVERT JUMPDEST POP PUSH2 0x182 PUSH2 0x17D CALLDATASIZE PUSH1 0x4 PUSH2 0x1B9D JUMP JUMPDEST PUSH2 0xA68 JUMP JUMPDEST PUSH1 0x40 MLOAD PUSH1 0x1 PUSH1 0x1 PUSH1 0xA0 SHL SUB SWAP1 SWAP2 AND DUP2 MSTORE PUSH1 0x20 ADD JUMPDEST PUSH1 0x40 MLOAD DUP1 SWAP2 SUB SWAP1 RETURN JUMPDEST CALLVALUE DUP1 ISZERO PUSH2 0x1AB JUMPI PUSH1 0x0 DUP1 REVERT JUMPDEST POP PUSH2 0x100 PUSH2 0xAF7 JUMP JUMPDEST CALLVALUE DUP1 ISZERO PUSH2 0x1C0 JUMPI PUSH1 0x0 DUP1 REVERT JUMPDEST POP PUSH2 0x1E8 PUSH32 0x17132900F74AADB4A80E6E5D88759B509B5A55861F3E0542632865CCC1180C49 DUP2 JUMP JUMPDEST PUSH1 0x40 MLOAD SWAP1 DUP2 MSTORE PUSH1 0x20 ADD PUSH2 0x196 JUMP JUMPDEST CALLVALUE DUP1 ISZERO PUSH2 0x202 JUMPI PUSH1 0x0 DUP1 REVERT JUMPDEST POP PUSH2 0x1E8 PUSH2 0x211 CALLDATASIZE PUSH1 0x4 PUSH2 0x1C10 JUMP JUMPDEST PUSH1 0x9A PUSH1 0x20 MSTORE PUSH1 0x0 SWAP1 DUP2 MSTORE PUSH1 0x40 SWAP1 KECCAK256 SLOAD DUP2 JUMP JUMPDEST CALLVALUE DUP1 ISZERO PUSH2 0x22F JUMPI PUSH1 0x0 DUP1 REVERT JUMPDEST POP PUSH1 0x99 SLOAD PUSH2 0x182 SWAP1 PUSH1 0x1 PUSH1 0x1 PUSH1 0xA0 SHL SUB AND DUP2 JUMP JUMPDEST CALLVALUE DUP1 ISZERO PUSH2 0x24F JUMPI PUSH1 0x0 DUP1 REVERT JUMPDEST POP PUSH2 0x258 PUSH2 0xB0B JUMP JUMPDEST PUSH1 0x40 MLOAD PUSH2 0x196 SWAP8 SWAP7 SWAP6 SWAP5 SWAP4 SWAP3 SWAP2 SWAP1 PUSH2 0x1C7D JUMP JUMPDEST CALLVALUE DUP1 ISZERO PUSH2 0x277 JUMPI PUSH1 0x0 DUP1 REVERT JUMPDEST POP PUSH1 0x33 SLOAD PUSH1 0x1 PUSH1 0x1 PUSH1 0xA0 SHL SUB AND PUSH2 0x182 JUMP JUMPDEST CALLVALUE DUP1 ISZERO PUSH2 0x295 JUMPI PUSH1 0x0 DUP1 REVERT JUMPDEST POP PUSH2 0x100 PUSH2 0x2A4 CALLDATASIZE PUSH1 0x4 PUSH2 0x1C10 JUMP JUMPDEST PUSH2 0xBCD JUMP JUMPDEST CALLVALUE DUP1 ISZERO PUSH2 0x2B5 JUMPI PUSH1 0x0 DUP1 REVERT JUMPDEST POP PUSH2 0x1E8 PUSH2 0x2C4 CALLDATASIZE PUSH1 0x4 PUSH2 0x1D47 JUMP JUMPDEST PUSH2 0xD87 JUMP JUMPDEST PUSH2 0x1E8 PUSH2 0x2D7 CALLDATASIZE PUSH1 0x4 PUSH2 0x1DF5 JUMP JUMPDEST PUSH2 0xF2D JUMP JUMPDEST CALLVALUE DUP1 ISZERO PUSH2 0x2E8 JUMPI PUSH1 0x0 DUP1 REVERT JUMPDEST POP PUSH2 0x100 PUSH2 0x2F7 CALLDATASIZE PUSH1 0x4 PUSH2 0x1C10 JUMP JUMPDEST PUSH2 0x1041 JUMP JUMPDEST PUSH1 0x0 JUMPDEST DUP2 DUP2 LT ISZERO PUSH2 0x474 JUMPI PUSH1 0x0 DUP4 DUP4 DUP4 DUP2 DUP2 LT PUSH2 0x31B JUMPI PUSH2 0x31B PUSH2 0x1E32 JUMP JUMPDEST SWAP1 POP PUSH1 0x20 MUL DUP2 ADD SWAP1 PUSH2 0x32D SWAP2 SWAP1 PUSH2 0x1E48 JUMP JUMPDEST PUSH2 0x336 SWAP1 PUSH2 0x1E8C JUMP JUMPDEST SWAP1 POP PUSH1 0x0 JUMPDEST DUP2 PUSH1 0x20 ADD MLOAD MLOAD DUP2 LT ISZERO PUSH2 0x45F JUMPI PUSH1 0x99 SLOAD PUSH1 0x20 DUP4 ADD MLOAD DUP1 MLOAD PUSH1 0x0 SWAP3 PUSH1 0x1 PUSH1 0x1 PUSH1 0xA0 SHL SUB AND SWAP2 PUSH4 0xA3112A64 SWAP2 DUP6 SWAP1 DUP2 LT PUSH2 0x375 JUMPI PUSH2 0x375 PUSH2 0x1E32 JUMP JUMPDEST PUSH1 0x20 MUL PUSH1 0x20 ADD ADD MLOAD PUSH1 0x0 ADD MLOAD PUSH1 0x40 MLOAD DUP3 PUSH4 0xFFFFFFFF AND PUSH1 0xE0 SHL DUP2 MSTORE PUSH1 0x4 ADD PUSH2 0x39F SWAP2 DUP2 MSTORE PUSH1 0x20 ADD SWAP1 JUMP JUMPDEST PUSH1 0x0 PUSH1 0x40 MLOAD DUP1 DUP4 SUB DUP2 DUP7 GAS STATICCALL ISZERO DUP1 ISZERO PUSH2 0x3BC JUMPI RETURNDATASIZE PUSH1 0x0 DUP1 RETURNDATACOPY RETURNDATASIZE PUSH1 0x0 REVERT JUMPDEST POP POP POP POP PUSH1 0x40 MLOAD RETURNDATASIZE PUSH1 0x0 DUP3 RETURNDATACOPY PUSH1 0x1F RETURNDATASIZE SWAP1 DUP2 ADD PUSH1 0x1F NOT AND DUP3 ADD PUSH1 0x40 MSTORE PUSH2 0x3E4 SWAP2 SWAP1 DUP2 ADD SWAP1 PUSH2 0x1FE0 JUMP JUMPDEST PUSH1 0xE0 DUP2 ADD MLOAD SWAP1 SWAP2 POP PUSH1 0x1 PUSH1 0x1 PUSH1 0xA0 SHL SUB AND CALLER EQ DUP1 PUSH2 0x40E JUMPI POP PUSH1 0xC0 DUP2 ADD MLOAD PUSH1 0x1 PUSH1 0x1 PUSH1 0xA0 SHL SUB AND CALLER EQ JUMPDEST PUSH2 0x44C JUMPI PUSH1 0x40 MLOAD PUSH3 0x461BCD PUSH1 0xE5 SHL DUP2 MSTORE PUSH1 0x20 PUSH1 0x4 DUP3 ADD MSTORE PUSH1 0xA PUSH1 0x24 DUP3 ADD MSTORE PUSH10 0x2737BA1037BBB732B917 PUSH1 0xB1 SHL PUSH1 0x44 DUP3 ADD MSTORE PUSH1 0x64 ADD JUMPDEST PUSH1 0x40 MLOAD DUP1 SWAP2 SUB SWAP1 REVERT JUMPDEST POP DUP1 PUSH2 0x457 DUP2 PUSH2 0x20D7 JUMP JUMPDEST SWAP2 POP POP PUSH2 0x33B JUMP JUMPDEST POP POP DUP1 DUP1 PUSH2 0x46C SWAP1 PUSH2 0x20D7 JUMP JUMPDEST SWAP2 POP POP PUSH2 0x2FF JUMP JUMPDEST POP PUSH1 0x99 SLOAD PUSH1 0x40 MLOAD PUSH4 0x4CB7E9E5 PUSH1 0xE0 SHL DUP2 MSTORE PUSH1 0x1 PUSH1 0x1 PUSH1 0xA0 SHL SUB SWAP1 SWAP2 AND SWAP1 PUSH4 0x4CB7E9E5 SWAP1 PUSH2 0x4A7 SWAP1 DUP6 SWAP1 DUP6 SWAP1 PUSH1 0x4 ADD PUSH2 0x20FE JUMP JUMPDEST PUSH1 0x0 PUSH1 0x40 MLOAD DUP1 DUP4 SUB DUP2 PUSH1 0x0 DUP8 DUP1 EXTCODESIZE ISZERO DUP1 ISZERO PUSH2 0x4C1 JUMPI PUSH1 0x0 DUP1 REVERT JUMPDEST POP GAS CALL ISZERO DUP1 ISZERO PUSH2 0x4D5 JUMPI RETURNDATASIZE PUSH1 0x0 DUP1 RETURNDATACOPY RETURNDATASIZE PUSH1 0x0 REVERT JUMPDEST POP POP POP POP POP POP JUMP JUMPDEST PUSH1 0x0 DUP2 PUSH8 0xFFFFFFFFFFFFFFFF DUP2 GT ISZERO PUSH2 0x4F8 JUMPI PUSH2 0x4F8 PUSH2 0x19AD JUMP JUMPDEST PUSH1 0x40 MLOAD SWAP1 DUP1 DUP3 MSTORE DUP1 PUSH1 0x20 MUL PUSH1 0x20 ADD DUP3 ADD PUSH1 0x40 MSTORE DUP1 ISZERO PUSH2 0x52B JUMPI DUP2 PUSH1 0x20 ADD JUMPDEST PUSH1 0x60 DUP2 MSTORE PUSH1 0x20 ADD SWAP1 PUSH1 0x1 SWAP1 SUB SWAP1 DUP2 PUSH2 0x516 JUMPI SWAP1 POP JUMPDEST POP SWAP1 POP PUSH1 0x0 JUMPDEST DUP3 DUP2 LT ISZERO PUSH2 0x789 JUMPI PUSH1 0x0 DUP5 DUP5 DUP4 DUP2 DUP2 LT PUSH2 0x54D JUMPI PUSH2 0x54D PUSH2 0x1E32 JUMP JUMPDEST SWAP1 POP PUSH1 0x20 MUL DUP2 ADD SWAP1 PUSH2 0x55F SWAP2 SWAP1 PUSH2 0x21EE JUMP JUMPDEST PUSH2 0x56D SWAP1 PUSH1 0x20 DUP2 ADD SWAP1 PUSH2 0x1E48 JUMP JUMPDEST PUSH2 0x576 SWAP1 PUSH2 0x22BE JUMP JUMPDEST SWAP1 POP PUSH2 0x585 DUP2 PUSH1 0x20 ADD MLOAD PUSH2 0x10D1 JUMP JUMPDEST DUP2 ISZERO PUSH2 0x667 JUMPI PUSH1 0x0 JUMPDEST DUP2 PUSH1 0x20 ADD MLOAD MLOAD DUP2 LT ISZERO PUSH2 0x665 JUMPI PUSH1 0x0 DUP3 PUSH1 0x20 ADD MLOAD DUP3 DUP2 MLOAD DUP2 LT PUSH2 0x5B3 JUMPI PUSH2 0x5B3 PUSH2 0x1E32 JUMP JUMPDEST PUSH1 0x20 MUL PUSH1 0x20 ADD ADD MLOAD SWAP1 POP PUSH1 0x0 DUP1 SHL DUP2 PUSH1 0x60 ADD MLOAD SUB PUSH2 0x652 JUMPI DUP5 DUP8 DUP8 DUP7 DUP2 DUP2 LT PUSH2 0x5DE JUMPI PUSH2 0x5DE PUSH2 0x1E32 JUMP JUMPDEST SWAP1 POP PUSH1 0x20 MUL DUP2 ADD SWAP1 PUSH2 0x5F0 SWAP2 SWAP1 PUSH2 0x21EE JUMP JUMPDEST PUSH1 0x40 ADD CALLDATALOAD DUP2 MLOAD DUP2 LT PUSH2 0x604 JUMPI PUSH2 0x604 PUSH2 0x1E32 JUMP JUMPDEST PUSH1 0x20 MUL PUSH1 0x20 ADD ADD MLOAD PUSH1 0x0 DUP2 MLOAD DUP2 LT PUSH2 0x61E JUMPI PUSH2 0x61E PUSH2 0x1E32 JUMP JUMPDEST PUSH1 0x20 MUL PUSH1 0x20 ADD ADD MLOAD DUP2 PUSH1 0x60 ADD DUP2 DUP2 MSTORE POP POP DUP1 DUP4 PUSH1 0x20 ADD MLOAD DUP4 DUP2 MLOAD DUP2 LT PUSH2 0x646 JUMPI PUSH2 0x646 PUSH2 0x1E32 JUMP JUMPDEST PUSH1 0x20 MUL PUSH1 0x20 ADD ADD DUP2 SWAP1 MSTORE POP JUMPDEST POP DUP1 PUSH2 0x65D DUP2 PUSH2 0x20D7 JUMP JUMPDEST SWAP2 POP POP PUSH2 0x58E JUMP JUMPDEST POP JUMPDEST PUSH1 0x40 DUP1 MLOAD PUSH1 0x1 DUP1 DUP3 MSTORE DUP2 DUP4 ADD SWAP1 SWAP3 MSTORE PUSH1 0x0 SWAP2 DUP2 PUSH1 0x20 ADD JUMPDEST PUSH1 0x40 DUP1 MLOAD DUP1 DUP3 ADD SWAP1 SWAP2 MSTORE PUSH1 0x0 DUP2 MSTORE PUSH1 0x60 PUSH1 0x20 DUP3 ADD MSTORE DUP2 MSTORE PUSH1 0x20 ADD SWAP1 PUSH1 0x1 SWAP1 SUB SWAP1 DUP2 PUSH2 0x67E JUMPI SWAP1 POP POP SWAP1 POP DUP2 DUP2 PUSH1 0x0 DUP2 MLOAD DUP2 LT PUSH2 0x6BC JUMPI PUSH2 0x6BC PUSH2 0x1E32 JUMP JUMPDEST PUSH1 0x20 SWAP1 DUP2 MUL SWAP2 SWAP1 SWAP2 ADD ADD MSTORE PUSH1 0x99 SLOAD PUSH1 0x40 MLOAD PUSH32 0x44ADC90E00000000000000000000000000000000000000000000000000000000 DUP2 MSTORE PUSH1 0x1 PUSH1 0x1 PUSH1 0xA0 SHL SUB SWAP1 SWAP2 AND SWAP1 PUSH4 0x44ADC90E SWAP1 PUSH2 0x710 SWAP1 DUP5 SWAP1 PUSH1 0x4 ADD PUSH2 0x2383 JUMP JUMPDEST PUSH1 0x0 PUSH1 0x40 MLOAD DUP1 DUP4 SUB DUP2 PUSH1 0x0 DUP8 GAS CALL ISZERO DUP1 ISZERO PUSH2 0x72F JUMPI RETURNDATASIZE PUSH1 0x0 DUP1 RETURNDATACOPY RETURNDATASIZE PUSH1 0x0 REVERT JUMPDEST POP POP POP POP PUSH1 0x40 MLOAD RETURNDATASIZE PUSH1 0x0 DUP3 RETURNDATACOPY PUSH1 0x1F RETURNDATASIZE SWAP1 DUP2 ADD PUSH1 0x1F NOT AND DUP3 ADD PUSH1 0x40 MSTORE PUSH2 0x757 SWAP2 SWAP1 DUP2 ADD SWAP1 PUSH2 0x247F JUMP JUMPDEST DUP5 DUP5 DUP2 MLOAD DUP2 LT PUSH2 0x769 JUMPI PUSH2 0x769 PUSH2 0x1E32 JUMP JUMPDEST PUSH1 0x20 MUL PUSH1 0x20 ADD ADD DUP2 SWAP1 MSTORE POP POP POP DUP1 DUP1 PUSH2 0x781 SWAP1 PUSH2 0x20D7 JUMP JUMPDEST SWAP2 POP POP PUSH2 0x531 JUMP JUMPDEST POP POP POP POP JUMP JUMPDEST DUP4 TIMESTAMP GT ISZERO PUSH2 0x7D3 JUMPI PUSH1 0x40 MLOAD PUSH3 0x461BCD PUSH1 0xE5 SHL DUP2 MSTORE PUSH1 0x20 PUSH1 0x4 DUP3 ADD MSTORE PUSH1 0x11 PUSH1 0x24 DUP3 ADD MSTORE PUSH17 0x14DA59DB985D1D5C9948195E1C1A5C9959 PUSH1 0x7A SHL PUSH1 0x44 DUP3 ADD MSTORE PUSH1 0x64 ADD PUSH2 0x443 JUMP JUMPDEST PUSH1 0x0 PUSH2 0x7E3 DUP9 DUP8 DUP8 DUP8 DUP8 DUP8 PUSH2 0xA68 JUMP JUMPDEST SWAP1 POP DUP7 PUSH1 0x1 PUSH1 0x1 PUSH1 0xA0 SHL SUB AND DUP2 PUSH1 0x1 PUSH1 0x1 PUSH1 0xA0 SHL SUB AND EQ PUSH2 0x859 JUMPI PUSH1 0x40 MLOAD PUSH3 0x461BCD PUSH1 0xE5 SHL DUP2 MSTORE PUSH1 0x20 PUSH1 0x4 DUP3 ADD MSTORE PUSH1 0x2A PUSH1 0x24 DUP3 ADD MSTORE PUSH32 0x5369676E657220616E642061747465737465722061646472657373657320646F PUSH1 0x44 DUP3 ADD MSTORE PUSH10 0x3713BA1036B0BA31B417 PUSH1 0xB1 SHL PUSH1 0x64 DUP3 ADD MSTORE PUSH1 0x84 ADD PUSH2 0x443 JUMP JUMPDEST PUSH1 0x1 PUSH1 0x1 PUSH1 0xA0 SHL SUB DUP2 AND PUSH1 0x0 SWAP1 DUP2 MSTORE PUSH1 0x9A PUSH1 0x20 MSTORE PUSH1 0x40 DUP2 KECCAK256 DUP1 SLOAD SWAP2 PUSH2 0x87D DUP4 PUSH2 0x20D7 JUMP JUMPDEST SWAP2 SWAP1 POP SSTORE DUP7 EQ PUSH2 0x8BF JUMPI PUSH1 0x40 MLOAD PUSH3 0x461BCD PUSH1 0xE5 SHL DUP2 MSTORE PUSH1 0x20 PUSH1 0x4 DUP3 ADD MSTORE PUSH1 0xD PUSH1 0x24 DUP3 ADD MSTORE PUSH13 0x496E76616C6964206E6F6E6365 PUSH1 0x98 SHL PUSH1 0x44 DUP3 ADD MSTORE PUSH1 0x64 ADD PUSH2 0x443 JUMP JUMPDEST PUSH1 0x40 MLOAD PUSH4 0x4CB7E9E5 PUSH1 0xE0 SHL DUP2 MSTORE ADDRESS SWAP1 PUSH4 0x4CB7E9E5 SWAP1 PUSH2 0x8E4 SWAP1 DUP14 SWAP1 DUP14 SWAP1 PUSH1 0x4 ADD PUSH2 0x20FE JUMP JUMPDEST PUSH1 0x0 PUSH1 0x40 MLOAD DUP1 DUP4 SUB DUP2 PUSH1 0x0 DUP8 DUP1 EXTCODESIZE ISZERO DUP1 ISZERO PUSH2 0x8FE JUMPI PUSH1 0x0 DUP1 REVERT JUMPDEST POP GAS CALL ISZERO DUP1 ISZERO PUSH2 0x912 JUMPI RETURNDATASIZE PUSH1 0x0 DUP1 RETURNDATACOPY RETURNDATASIZE PUSH1 0x0 REVERT JUMPDEST POP POP POP POP POP POP POP POP POP POP POP POP POP POP JUMP JUMPDEST DUP4 TIMESTAMP GT ISZERO PUSH2 0x966 JUMPI PUSH1 0x40 MLOAD PUSH3 0x461BCD PUSH1 0xE5 SHL DUP2 MSTORE PUSH1 0x20 PUSH1 0x4 DUP3 ADD MSTORE PUSH1 0x11 PUSH1 0x24 DUP3 ADD MSTORE PUSH17 0x14DA59DB985D1D5C9948195E1C1A5C9959 PUSH1 0x7A SHL PUSH1 0x44 DUP3 ADD MSTORE PUSH1 0x64 ADD PUSH2 0x443 JUMP JUMPDEST PUSH1 0x0 PUSH2 0x976 DUP9 DUP8 DUP8 DUP8 DUP8 DUP8 PUSH2 0xA68 JUMP JUMPDEST SWAP1 POP DUP7 PUSH1 0x1 PUSH1 0x1 PUSH1 0xA0 SHL SUB AND DUP2 PUSH1 0x1 PUSH1 0x1 PUSH1 0xA0 SHL SUB AND EQ PUSH2 0x9EC JUMPI PUSH1 0x40 MLOAD PUSH3 0x461BCD PUSH1 0xE5 SHL DUP2 MSTORE PUSH1 0x20 PUSH1 0x4 DUP3 ADD MSTORE PUSH1 0x2A PUSH1 0x24 DUP3 ADD MSTORE PUSH32 0x5369676E657220616E642061747465737465722061646472657373657320646F PUSH1 0x44 DUP3 ADD MSTORE PUSH10 0x3713BA1036B0BA31B417 PUSH1 0xB1 SHL PUSH1 0x64 DUP3 ADD MSTORE PUSH1 0x84 ADD PUSH2 0x443 JUMP JUMPDEST PUSH1 0x1 PUSH1 0x1 PUSH1 0xA0 SHL SUB DUP2 AND PUSH1 0x0 SWAP1 DUP2 MSTORE PUSH1 0x9A PUSH1 0x20 MSTORE PUSH1 0x40 DUP2 KECCAK256 DUP1 SLOAD SWAP2 PUSH2 0xA10 DUP4 PUSH2 0x20D7 JUMP JUMPDEST SWAP2 SWAP1 POP SSTORE DUP7 EQ PUSH2 0xA52 JUMPI PUSH1 0x40 MLOAD PUSH3 0x461BCD PUSH1 0xE5 SHL DUP2 MSTORE PUSH1 0x20 PUSH1 0x4 DUP3 ADD MSTORE PUSH1 0xD PUSH1 0x24 DUP3 ADD MSTORE PUSH13 0x496E76616C6964206E6F6E6365 PUSH1 0x98 SHL PUSH1 0x44 DUP3 ADD MSTORE PUSH1 0x64 ADD PUSH2 0x443 JUMP JUMPDEST PUSH2 0xA5C DUP11 DUP11 PUSH2 0x4DD JUMP JUMPDEST POP POP POP POP POP POP POP POP POP POP JUMP JUMPDEST PUSH1 0x0 DUP1 PUSH2 0xADD PUSH32 0x17132900F74AADB4A80E6E5D88759B509B5A55861F3E0542632865CCC1180C49 DUP10 DUP1 MLOAD SWAP1 PUSH1 0x20 ADD KECCAK256 DUP10 DUP10 PUSH1 0x40 MLOAD PUSH1 0x20 ADD PUSH2 0xAC2 SWAP5 SWAP4 SWAP3 SWAP2 SWAP1 SWAP4 DUP5 MSTORE PUSH1 0x20 DUP5 ADD SWAP3 SWAP1 SWAP3 MSTORE PUSH1 0x40 DUP4 ADD MSTORE PUSH1 0x60 DUP3 ADD MSTORE PUSH1 0x80 ADD SWAP1 JUMP JUMPDEST PUSH1 0x40 MLOAD PUSH1 0x20 DUP2 DUP4 SUB SUB DUP2 MSTORE SWAP1 PUSH1 0x40 MSTORE DUP1 MLOAD SWAP1 PUSH1 0x20 ADD KECCAK256 PUSH2 0x113C JUMP JUMPDEST SWAP1 POP PUSH2 0xAEB DUP2 DUP7 DUP7 DUP7 PUSH2 0x118A JUMP JUMPDEST SWAP9 SWAP8 POP POP POP POP POP POP POP POP JUMP JUMPDEST PUSH2 0xAFF PUSH2 0x11B2 JUMP JUMPDEST PUSH2 0xB09 PUSH1 0x0 PUSH2 0x120C JUMP JUMPDEST JUMP JUMPDEST PUSH1 0x0 PUSH1 0x60 DUP1 PUSH1 0x0 DUP1 PUSH1 0x0 PUSH1 0x60 PUSH1 0x65 SLOAD PUSH1 0x0 DUP1 SHL EQ DUP1 ISZERO PUSH2 0xB2B JUMPI POP PUSH1 0x66 SLOAD ISZERO JUMPDEST PUSH2 0xB77 JUMPI PUSH1 0x40 MLOAD PUSH3 0x461BCD PUSH1 0xE5 SHL DUP2 MSTORE PUSH1 0x20 PUSH1 0x4 DUP3 ADD MSTORE PUSH1 0x15 PUSH1 0x24 DUP3 ADD MSTORE PUSH32 0x4549503731323A20556E696E697469616C697A65640000000000000000000000 PUSH1 0x44 DUP3 ADD MSTORE PUSH1 0x64 ADD PUSH2 0x443 JUMP JUMPDEST PUSH2 0xB7F PUSH2 0x126B JUMP JUMPDEST PUSH2 0xB87 PUSH2 0x12FD JUMP JUMPDEST PUSH1 0x40 DUP1 MLOAD PUSH1 0x0 DUP1 DUP3 MSTORE PUSH1 0x20 DUP3 ADD SWAP1 SWAP3 MSTORE PUSH32 0xF00000000000000000000000000000000000000000000000000000000000000 SWAP12 SWAP4 SWAP11 POP SWAP2 SWAP9 POP CHAINID SWAP8 POP ADDRESS SWAP7 POP SWAP5 POP SWAP3 POP SWAP1 POP JUMP JUMPDEST PUSH1 0x0 SLOAD PUSH2 0x100 SWAP1 DIV PUSH1 0xFF AND ISZERO DUP1 DUP1 ISZERO PUSH2 0xBED JUMPI POP PUSH1 0x0 SLOAD PUSH1 0x1 PUSH1 0xFF SWAP1 SWAP2 AND LT JUMPDEST DUP1 PUSH2 0xC07 JUMPI POP ADDRESS EXTCODESIZE ISZERO DUP1 ISZERO PUSH2 0xC07 JUMPI POP PUSH1 0x0 SLOAD PUSH1 0xFF AND PUSH1 0x1 EQ JUMPDEST PUSH2 0xC79 JUMPI PUSH1 0x40 MLOAD PUSH3 0x461BCD PUSH1 0xE5 SHL DUP2 MSTORE PUSH1 0x20 PUSH1 0x4 DUP3 ADD MSTORE PUSH1 0x2E PUSH1 0x24 DUP3 ADD MSTORE PUSH32 0x496E697469616C697A61626C653A20636F6E747261637420697320616C726561 PUSH1 0x44 DUP3 ADD MSTORE PUSH32 0x647920696E697469616C697A6564000000000000000000000000000000000000 PUSH1 0x64 DUP3 ADD MSTORE PUSH1 0x84 ADD PUSH2 0x443 JUMP JUMPDEST PUSH1 0x0 DUP1 SLOAD PUSH1 0xFF NOT AND PUSH1 0x1 OR SWAP1 SSTORE DUP1 ISZERO PUSH2 0xC9C JUMPI PUSH1 0x0 DUP1 SLOAD PUSH2 0xFF00 NOT AND PUSH2 0x100 OR SWAP1 SSTORE JUMPDEST PUSH1 0x99 DUP1 SLOAD PUSH20 0xFFFFFFFFFFFFFFFFFFFFFFFFFFFFFFFFFFFFFFFF NOT AND PUSH1 0x1 PUSH1 0x1 PUSH1 0xA0 SHL SUB DUP5 AND OR SWAP1 SSTORE PUSH1 0x40 DUP1 MLOAD DUP1 DUP3 ADD DUP3 MSTORE PUSH1 0xF DUP2 MSTORE PUSH32 0x6761702D6174746573746174696F6E0000000000000000000000000000000000 PUSH1 0x20 DUP1 DUP4 ADD SWAP2 SWAP1 SWAP2 MSTORE DUP3 MLOAD DUP1 DUP5 ADD SWAP1 SWAP4 MSTORE PUSH1 0x3 DUP4 MSTORE PUSH32 0x312E300000000000000000000000000000000000000000000000000000000000 SWAP1 DUP4 ADD MSTORE PUSH2 0xD35 SWAP2 PUSH2 0x130C JUMP JUMPDEST PUSH2 0xD3D PUSH2 0x1381 JUMP JUMPDEST DUP1 ISZERO PUSH2 0xD83 JUMPI PUSH1 0x0 DUP1 SLOAD PUSH2 0xFF00 NOT AND SWAP1 SSTORE PUSH1 0x40 MLOAD PUSH1 0x1 DUP2 MSTORE PUSH32 0x7F26B83FF96E1F2B6A682F133852F6798A09C465DA95921460CEFB3847402498 SWAP1 PUSH1 0x20 ADD PUSH1 0x40 MLOAD DUP1 SWAP2 SUB SWAP1 LOG1 JUMPDEST POP POP JUMP JUMPDEST PUSH1 0x0 DUP5 TIMESTAMP GT ISZERO PUSH2 0xDCD JUMPI PUSH1 0x40 MLOAD PUSH3 0x461BCD PUSH1 0xE5 SHL DUP2 MSTORE PUSH1 0x20 PUSH1 0x4 DUP3 ADD MSTORE PUSH1 0x11 PUSH1 0x24 DUP3 ADD MSTORE PUSH17 0x14DA59DB985D1D5C9948195E1C1A5C9959 PUSH1 0x7A SHL PUSH1 0x44 DUP3 ADD MSTORE PUSH1 0x64 ADD PUSH2 0x443 JUMP JUMPDEST PUSH1 0x0 PUSH2 0xDDD DUP10 DUP9 DUP9 DUP9 DUP9 DUP9 PUSH2 0xA68 JUMP JUMPDEST SWAP1 POP DUP8 PUSH1 0x1 PUSH1 0x1 PUSH1 0xA0 SHL SUB AND DUP2 PUSH1 0x1 PUSH1 0x1 PUSH1 0xA0 SHL SUB AND EQ PUSH2 0xE53 JUMPI PUSH1 0x40 MLOAD PUSH3 0x461BCD PUSH1 0xE5 SHL DUP2 MSTORE PUSH1 0x20 PUSH1 0x4 DUP3 ADD MSTORE PUSH1 0x2A PUSH1 0x24 DUP3 ADD MSTORE PUSH32 0x5369676E657220616E642061747465737465722061646472657373657320646F PUSH1 0x44 DUP3 ADD MSTORE PUSH10 0x3713BA1036B0BA31B417 PUSH1 0xB1 SHL PUSH1 0x64 DUP3 ADD MSTORE PUSH1 0x84 ADD PUSH2 0x443 JUMP JUMPDEST PUSH1 0x1 PUSH1 0x1 PUSH1 0xA0 SHL SUB DUP2 AND PUSH1 0x0 SWAP1 DUP2 MSTORE PUSH1 0x9A PUSH1 0x20 MSTORE PUSH1 0x40 DUP2 KECCAK256 DUP1 SLOAD SWAP2 PUSH2 0xE77 DUP4 PUSH2 0x20D7 JUMP JUMPDEST SWAP2 SWAP1 POP SSTORE DUP8 EQ PUSH2 0xEB9 JUMPI PUSH1 0x40 MLOAD PUSH3 0x461BCD PUSH1 0xE5 SHL DUP2 MSTORE PUSH1 0x20 PUSH1 0x4 DUP3 ADD MSTORE PUSH1 0xD PUSH1 0x24 DUP3 ADD MSTORE PUSH13 0x496E76616C6964206E6F6E6365 PUSH1 0x98 SHL PUSH1 0x44 DUP3 ADD MSTORE PUSH1 0x64 ADD PUSH2 0x443 JUMP JUMPDEST PUSH1 0x40 MLOAD PUSH4 0xF17325E7 PUSH1 0xE0 SHL DUP2 MSTORE ADDRESS SWAP1 PUSH4 0xF17325E7 SWAP1 PUSH2 0xEDC SWAP1 DUP14 SWAP1 PUSH1 0x4 ADD PUSH2 0x257F JUMP JUMPDEST PUSH1 0x20 PUSH1 0x40 MLOAD DUP1 DUP4 SUB DUP2 PUSH1 0x0 DUP8 GAS CALL ISZERO DUP1 ISZERO PUSH2 0xEFB JUMPI RETURNDATASIZE PUSH1 0x0 DUP1 RETURNDATACOPY RETURNDATASIZE PUSH1 0x0 REVERT JUMPDEST POP POP POP POP PUSH1 0x40 MLOAD RETURNDATASIZE PUSH1 0x1F NOT PUSH1 0x1F DUP3 ADD AND DUP3 ADD DUP1 PUSH1 0x40 MSTORE POP DUP2 ADD SWAP1 PUSH2 0xF1F SWAP2 SWAP1 PUSH2 0x263C JUMP JUMPDEST SWAP11 SWAP10 POP POP POP POP POP POP POP POP POP POP JUMP JUMPDEST PUSH1 0x40 DUP1 MLOAD PUSH1 0x1 DUP1 DUP3 MSTORE DUP2 DUP4 ADD SWAP1 SWAP3 MSTORE PUSH1 0x0 SWAP2 DUP3 SWAP2 SWAP1 DUP2 PUSH1 0x20 ADD JUMPDEST PUSH1 0x40 DUP1 MLOAD PUSH1 0xC0 DUP2 ADD DUP3 MSTORE PUSH1 0x0 DUP1 DUP3 MSTORE PUSH1 0x20 DUP1 DUP4 ADD DUP3 SWAP1 MSTORE SWAP3 DUP3 ADD DUP2 SWAP1 MSTORE PUSH1 0x60 DUP1 DUP4 ADD DUP3 SWAP1 MSTORE PUSH1 0x80 DUP4 ADD MSTORE PUSH1 0xA0 DUP3 ADD MSTORE DUP3 MSTORE PUSH1 0x0 NOT SWAP1 SWAP3 ADD SWAP2 ADD DUP2 PUSH2 0xF47 JUMPI SWAP1 POP POP SWAP1 POP PUSH2 0xF97 PUSH1 0x20 DUP5 ADD DUP5 PUSH2 0x2655 JUMP JUMPDEST PUSH2 0xFA0 SWAP1 PUSH2 0x266B JUMP JUMPDEST DUP2 PUSH1 0x0 DUP2 MLOAD DUP2 LT PUSH2 0xFB3 JUMPI PUSH2 0xFB3 PUSH2 0x1E32 JUMP JUMPDEST PUSH1 0x20 MUL PUSH1 0x20 ADD ADD DUP2 SWAP1 MSTORE POP PUSH2 0xFC7 DUP2 PUSH2 0x10D1 JUMP JUMPDEST PUSH1 0x99 SLOAD PUSH1 0x40 MLOAD PUSH4 0xF17325E7 PUSH1 0xE0 SHL DUP2 MSTORE PUSH1 0x1 PUSH1 0x1 PUSH1 0xA0 SHL SUB SWAP1 SWAP2 AND SWAP1 PUSH4 0xF17325E7 SWAP1 PUSH2 0xFF7 SWAP1 DUP7 SWAP1 PUSH1 0x4 ADD PUSH2 0x257F JUMP JUMPDEST PUSH1 0x20 PUSH1 0x40 MLOAD DUP1 DUP4 SUB DUP2 PUSH1 0x0 DUP8 GAS CALL ISZERO DUP1 ISZERO PUSH2 0x1016 JUMPI RETURNDATASIZE PUSH1 0x0 DUP1 RETURNDATACOPY RETURNDATASIZE PUSH1 0x0 REVERT JUMPDEST POP POP POP POP PUSH1 0x40 MLOAD RETURNDATASIZE PUSH1 0x1F NOT PUSH1 0x1F DUP3 ADD AND DUP3 ADD DUP1 PUSH1 0x40 MSTORE POP DUP2 ADD SWAP1 PUSH2 0x103A SWAP2 SWAP1 PUSH2 0x263C JUMP JUMPDEST SWAP4 SWAP3 POP POP POP JUMP JUMPDEST PUSH2 0x1049 PUSH2 0x11B2 JUMP JUMPDEST PUSH1 0x1 PUSH1 0x1 PUSH1 0xA0 SHL SUB DUP2 AND PUSH2 0x10C5 JUMPI PUSH1 0x40 MLOAD PUSH3 0x461BCD PUSH1 0xE5 SHL DUP2 MSTORE PUSH1 0x20 PUSH1 0x4 DUP3 ADD MSTORE PUSH1 0x26 PUSH1 0x24 DUP3 ADD MSTORE PUSH32 0x4F776E61626C653A206E6577206F776E657220697320746865207A65726F2061 PUSH1 0x44 DUP3 ADD MSTORE PUSH32 0x6464726573730000000000000000000000000000000000000000000000000000 PUSH1 0x64 DUP3 ADD MSTORE PUSH1 0x84 ADD PUSH2 0x443 JUMP JUMPDEST PUSH2 0x10CE DUP2 PUSH2 0x120C JUMP JUMPDEST POP JUMP JUMPDEST PUSH1 0x0 JUMPDEST DUP2 MLOAD DUP2 LT ISZERO PUSH2 0xD83 JUMPI PUSH1 0x0 DUP1 SHL DUP3 DUP3 DUP2 MLOAD DUP2 LT PUSH2 0x10F3 JUMPI PUSH2 0x10F3 PUSH2 0x1E32 JUMP JUMPDEST PUSH1 0x20 MUL PUSH1 0x20 ADD ADD MLOAD PUSH1 0x60 ADD MLOAD EQ PUSH2 0x112A JUMPI PUSH2 0x112A DUP3 DUP3 DUP2 MLOAD DUP2 LT PUSH2 0x1119 JUMPI PUSH2 0x1119 PUSH2 0x1E32 JUMP JUMPDEST PUSH1 0x20 MUL PUSH1 0x20 ADD ADD MLOAD PUSH1 0x60 ADD MLOAD PUSH2 0x13F4 JUMP JUMPDEST DUP1 PUSH2 0x1134 DUP2 PUSH2 0x20D7 JUMP JUMPDEST SWAP2 POP POP PUSH2 0x10D4 JUMP JUMPDEST PUSH1 0x0 PUSH2 0x1184 PUSH2 0x1149 PUSH2 0x14E2 JUMP JUMPDEST DUP4 PUSH1 0x40 MLOAD PUSH32 0x1901000000000000000000000000000000000000000000000000000000000000 DUP2 MSTORE PUSH1 0x2 DUP2 ADD SWAP3 SWAP1 SWAP3 MSTORE PUSH1 0x22 DUP3 ADD MSTORE PUSH1 0x42 SWAP1 KECCAK256 SWAP1 JUMP JUMPDEST SWAP3 SWAP2 POP POP JUMP JUMPDEST PUSH1 0x0 DUP1 PUSH1 0x0 PUSH2 0x119B DUP8 DUP8 DUP8 DUP8 PUSH2 0x14F1 JUMP JUMPDEST SWAP2 POP SWAP2 POP PUSH2 0x11A8 DUP2 PUSH2 0x15B5 JUMP JUMPDEST POP SWAP6 SWAP5 POP POP POP POP POP JUMP JUMPDEST PUSH1 0x33 SLOAD PUSH1 0x1 PUSH1 0x1 PUSH1 0xA0 SHL SUB AND CALLER EQ PUSH2 0xB09 JUMPI PUSH1 0x40 MLOAD PUSH3 0x461BCD PUSH1 0xE5 SHL DUP2 MSTORE PUSH1 0x20 PUSH1 0x4 DUP3 ADD DUP2 SWAP1 MSTORE PUSH1 0x24 DUP3 ADD MSTORE PUSH32 0x4F776E61626C653A2063616C6C6572206973206E6F7420746865206F776E6572 PUSH1 0x44 DUP3 ADD MSTORE PUSH1 0x64 ADD PUSH2 0x443 JUMP JUMPDEST PUSH1 0x33 DUP1 SLOAD PUSH1 0x1 PUSH1 0x1 PUSH1 0xA0 SHL SUB DUP4 DUP2 AND PUSH20 0xFFFFFFFFFFFFFFFFFFFFFFFFFFFFFFFFFFFFFFFF NOT DUP4 AND DUP2 OR SWAP1 SWAP4 SSTORE PUSH1 0x40 MLOAD SWAP2 AND SWAP2 SWAP1 DUP3 SWAP1 PUSH32 0x8BE0079C531659141344CD1FD0A4F28419497F9722A3DAAFE3B4186F6B6457E0 SWAP1 PUSH1 0x0 SWAP1 LOG3 POP POP JUMP JUMPDEST PUSH1 0x60 PUSH1 0x67 DUP1 SLOAD PUSH2 0x127A SWAP1 PUSH2 0x2677 JUMP JUMPDEST DUP1 PUSH1 0x1F ADD PUSH1 0x20 DUP1 SWAP2 DIV MUL PUSH1 0x20 ADD PUSH1 0x40 MLOAD SWAP1 DUP2 ADD PUSH1 0x40 MSTORE DUP1 SWAP3 SWAP2 SWAP1 DUP2 DUP2 MSTORE PUSH1 0x20 ADD DUP3 DUP1 SLOAD PUSH2 0x12A6 SWAP1 PUSH2 0x2677 JUMP JUMPDEST DUP1 ISZERO PUSH2 0x12F3 JUMPI DUP1 PUSH1 0x1F LT PUSH2 0x12C8 JUMPI PUSH2 0x100 DUP1 DUP4 SLOAD DIV MUL DUP4 MSTORE SWAP2 PUSH1 0x20 ADD SWAP2 PUSH2 0x12F3 JUMP JUMPDEST DUP3 ADD SWAP2 SWAP1 PUSH1 0x0 MSTORE PUSH1 0x20 PUSH1 0x0 KECCAK256 SWAP1 JUMPDEST DUP2 SLOAD DUP2 MSTORE SWAP1 PUSH1 0x1 ADD SWAP1 PUSH1 0x20 ADD DUP1 DUP4 GT PUSH2 0x12D6 JUMPI DUP3 SWAP1 SUB PUSH1 0x1F AND DUP3 ADD SWAP2 JUMPDEST POP POP POP POP POP SWAP1 POP SWAP1 JUMP JUMPDEST PUSH1 0x60 PUSH1 0x68 DUP1 SLOAD PUSH2 0x127A SWAP1 PUSH2 0x2677 JUMP JUMPDEST PUSH1 0x0 SLOAD PUSH2 0x100 SWAP1 DIV PUSH1 0xFF AND PUSH2 0x1377 JUMPI PUSH1 0x40 MLOAD PUSH3 0x461BCD PUSH1 0xE5 SHL DUP2 MSTORE PUSH1 0x20 PUSH1 0x4 DUP3 ADD MSTORE PUSH1 0x2B PUSH1 0x24 DUP3 ADD MSTORE PUSH32 0x496E697469616C697A61626C653A20636F6E7472616374206973206E6F742069 PUSH1 0x44 DUP3 ADD MSTORE PUSH11 0x6E697469616C697A696E67 PUSH1 0xA8 SHL PUSH1 0x64 DUP3 ADD MSTORE PUSH1 0x84 ADD PUSH2 0x443 JUMP JUMPDEST PUSH2 0xD83 DUP3 DUP3 PUSH2 0x171A JUMP JUMPDEST PUSH1 0x0 SLOAD PUSH2 0x100 SWAP1 DIV PUSH1 0xFF AND PUSH2 0x13EC JUMPI PUSH1 0x40 MLOAD PUSH3 0x461BCD PUSH1 0xE5 SHL DUP2 MSTORE PUSH1 0x20 PUSH1 0x4 DUP3 ADD MSTORE PUSH1 0x2B PUSH1 0x24 DUP3 ADD MSTORE PUSH32 0x496E697469616C697A61626C653A20636F6E7472616374206973206E6F742069 PUSH1 0x44 DUP3 ADD MSTORE PUSH11 0x6E697469616C697A696E67 PUSH1 0xA8 SHL PUSH1 0x64 DUP3 ADD MSTORE PUSH1 0x84 ADD PUSH2 0x443 JUMP JUMPDEST PUSH2 0xB09 PUSH2 0x17AD JUMP JUMPDEST PUSH1 0x99 SLOAD PUSH1 0x40 MLOAD PUSH32 0xA3112A6400000000000000000000000000000000000000000000000000000000 DUP2 MSTORE PUSH1 0x4 DUP2 ADD DUP4 SWAP1 MSTORE PUSH1 0x0 SWAP2 PUSH1 0x1 PUSH1 0x1 PUSH1 0xA0 SHL SUB AND SWAP1 PUSH4 0xA3112A64 SWAP1 PUSH1 0x24 ADD PUSH1 0x0 PUSH1 0x40 MLOAD DUP1 DUP4 SUB DUP2 DUP7 GAS STATICCALL ISZERO DUP1 ISZERO PUSH2 0x1457 JUMPI RETURNDATASIZE PUSH1 0x0 DUP1 RETURNDATACOPY RETURNDATASIZE PUSH1 0x0 REVERT JUMPDEST POP POP POP POP PUSH1 0x40 MLOAD RETURNDATASIZE PUSH1 0x0 DUP3 RETURNDATACOPY PUSH1 0x1F RETURNDATASIZE SWAP1 DUP2 ADD PUSH1 0x1F NOT AND DUP3 ADD PUSH1 0x40 MSTORE PUSH2 0x147F SWAP2 SWAP1 DUP2 ADD SWAP1 PUSH2 0x1FE0 JUMP JUMPDEST PUSH1 0xE0 DUP2 ADD MLOAD SWAP1 SWAP2 POP PUSH1 0x1 PUSH1 0x1 PUSH1 0xA0 SHL SUB AND CALLER EQ DUP1 PUSH2 0x14A9 JUMPI POP PUSH1 0xC0 DUP2 ADD MLOAD PUSH1 0x1 PUSH1 0x1 PUSH1 0xA0 SHL SUB AND CALLER EQ JUMPDEST PUSH2 0xD83 JUMPI PUSH1 0x40 MLOAD PUSH3 0x461BCD PUSH1 0xE5 SHL DUP2 MSTORE PUSH1 0x20 PUSH1 0x4 DUP3 ADD MSTORE PUSH1 0xA PUSH1 0x24 DUP3 ADD MSTORE PUSH10 0x2737BA1037BBB732B917 PUSH1 0xB1 SHL PUSH1 0x44 DUP3 ADD MSTORE PUSH1 0x64 ADD PUSH2 0x443 JUMP JUMPDEST PUSH1 0x0 PUSH2 0x14EC PUSH2 0x1821 JUMP JUMPDEST SWAP1 POP SWAP1 JUMP JUMPDEST PUSH1 0x0 DUP1 PUSH32 0x7FFFFFFFFFFFFFFFFFFFFFFFFFFFFFFF5D576E7357A4501DDFE92F46681B20A0 DUP4 GT ISZERO PUSH2 0x1528 JUMPI POP PUSH1 0x0 SWAP1 POP PUSH1 0x3 PUSH2 0x15AC JUMP JUMPDEST PUSH1 0x40 DUP1 MLOAD PUSH1 0x0 DUP1 DUP3 MSTORE PUSH1 0x20 DUP3 ADD DUP1 DUP5 MSTORE DUP10 SWAP1 MSTORE PUSH1 0xFF DUP9 AND SWAP3 DUP3 ADD SWAP3 SWAP1 SWAP3 MSTORE PUSH1 0x60 DUP2 ADD DUP7 SWAP1 MSTORE PUSH1 0x80 DUP2 ADD DUP6 SWAP1 MSTORE PUSH1 0x1 SWAP1 PUSH1 0xA0 ADD PUSH1 0x20 PUSH1 0x40 MLOAD PUSH1 0x20 DUP2 SUB SWAP1 DUP1 DUP5 SUB SWAP1 DUP6 GAS STATICCALL ISZERO DUP1 ISZERO PUSH2 0x157C JUMPI RETURNDATASIZE PUSH1 0x0 DUP1 RETURNDATACOPY RETURNDATASIZE PUSH1 0x0 REVERT JUMPDEST POP POP PUSH1 0x40 MLOAD PUSH1 0x1F NOT ADD MLOAD SWAP2 POP POP PUSH1 0x1 PUSH1 0x1 PUSH1 0xA0 SHL SUB DUP2 AND PUSH2 0x15A5 JUMPI PUSH1 0x0 PUSH1 0x1 SWAP3 POP SWAP3 POP POP PUSH2 0x15AC JUMP JUMPDEST SWAP2 POP PUSH1 0x0 SWAP1 POP JUMPDEST SWAP5 POP SWAP5 SWAP3 POP POP POP JUMP JUMPDEST PUSH1 0x0 DUP2 PUSH1 0x4 DUP2 GT ISZERO PUSH2 0x15C9 JUMPI PUSH2 0x15C9 PUSH2 0x26AB JUMP JUMPDEST SUB PUSH2 0x15D1 JUMPI POP JUMP JUMPDEST PUSH1 0x1 DUP2 PUSH1 0x4 DUP2 GT ISZERO PUSH2 0x15E5 JUMPI PUSH2 0x15E5 PUSH2 0x26AB JUMP JUMPDEST SUB PUSH2 0x1632 JUMPI PUSH1 0x40 MLOAD PUSH3 0x461BCD PUSH1 0xE5 SHL DUP2 MSTORE PUSH1 0x20 PUSH1 0x4 DUP3 ADD MSTORE PUSH1 0x18 PUSH1 0x24 DUP3 ADD MSTORE PUSH32 0x45434453413A20696E76616C6964207369676E61747572650000000000000000 PUSH1 0x44 DUP3 ADD MSTORE PUSH1 0x64 ADD PUSH2 0x443 JUMP JUMPDEST PUSH1 0x2 DUP2 PUSH1 0x4 DUP2 GT ISZERO PUSH2 0x1646 JUMPI PUSH2 0x1646 PUSH2 0x26AB JUMP JUMPDEST SUB PUSH2 0x1693 JUMPI PUSH1 0x40 MLOAD PUSH3 0x461BCD PUSH1 0xE5 SHL DUP2 MSTORE PUSH1 0x20 PUSH1 0x4 DUP3 ADD MSTORE PUSH1 0x1F PUSH1 0x24 DUP3 ADD MSTORE PUSH32 0x45434453413A20696E76616C6964207369676E6174757265206C656E67746800 PUSH1 0x44 DUP3 ADD MSTORE PUSH1 0x64 ADD PUSH2 0x443 JUMP JUMPDEST PUSH1 0x3 DUP2 PUSH1 0x4 DUP2 GT ISZERO PUSH2 0x16A7 JUMPI PUSH2 0x16A7 PUSH2 0x26AB JUMP JUMPDEST SUB PUSH2 0x10CE JUMPI PUSH1 0x40 MLOAD PUSH3 0x461BCD PUSH1 0xE5 SHL DUP2 MSTORE PUSH1 0x20 PUSH1 0x4 DUP3 ADD MSTORE PUSH1 0x22 PUSH1 0x24 DUP3 ADD MSTORE PUSH32 0x45434453413A20696E76616C6964207369676E6174757265202773272076616C PUSH1 0x44 DUP3 ADD MSTORE PUSH32 0x7565000000000000000000000000000000000000000000000000000000000000 PUSH1 0x64 DUP3 ADD MSTORE PUSH1 0x84 ADD PUSH2 0x443 JUMP JUMPDEST PUSH1 0x0 SLOAD PUSH2 0x100 SWAP1 DIV PUSH1 0xFF AND PUSH2 0x1785 JUMPI PUSH1 0x40 MLOAD PUSH3 0x461BCD PUSH1 0xE5 SHL DUP2 MSTORE PUSH1 0x20 PUSH1 0x4 DUP3 ADD MSTORE PUSH1 0x2B PUSH1 0x24 DUP3 ADD MSTORE PUSH32 0x496E697469616C697A61626C653A20636F6E7472616374206973206E6F742069 PUSH1 0x44 DUP3 ADD MSTORE PUSH11 0x6E697469616C697A696E67 PUSH1 0xA8 SHL PUSH1 0x64 DUP3 ADD MSTORE PUSH1 0x84 ADD PUSH2 0x443 JUMP JUMPDEST PUSH1 0x67 PUSH2 0x1791 DUP4 DUP3 PUSH2 0x270C JUMP JUMPDEST POP PUSH1 0x68 PUSH2 0x179E DUP3 DUP3 PUSH2 0x270C JUMP JUMPDEST POP POP PUSH1 0x0 PUSH1 0x65 DUP2 SWAP1 SSTORE PUSH1 0x66 SSTORE POP JUMP JUMPDEST PUSH1 0x0 SLOAD PUSH2 0x100 SWAP1 DIV PUSH1 0xFF AND PUSH2 0x1818 JUMPI PUSH1 0x40 MLOAD PUSH3 0x461BCD PUSH1 0xE5 SHL DUP2 MSTORE PUSH1 0x20 PUSH1 0x4 DUP3 ADD MSTORE PUSH1 0x2B PUSH1 0x24 DUP3 ADD MSTORE PUSH32 0x496E697469616C697A61626C653A20636F6E7472616374206973206E6F742069 PUSH1 0x44 DUP3 ADD MSTORE PUSH11 0x6E697469616C697A696E67 PUSH1 0xA8 SHL PUSH1 0x64 DUP3 ADD MSTORE PUSH1 0x84 ADD PUSH2 0x443 JUMP JUMPDEST PUSH2 0xB09 CALLER PUSH2 0x120C JUMP JUMPDEST PUSH1 0x0 PUSH32 0x8B73C3C69BB8FE3D512ECC4CF759CC79239F7B179B0FFACAA9A75D522B39400F PUSH2 0x184C PUSH2 0x1895 JUMP JUMPDEST PUSH2 0x1854 PUSH2 0x18EE JUMP JUMPDEST PUSH1 0x40 DUP1 MLOAD PUSH1 0x20 DUP2 ADD SWAP5 SWAP1 SWAP5 MSTORE DUP4 ADD SWAP2 SWAP1 SWAP2 MSTORE PUSH1 0x60 DUP3 ADD MSTORE CHAINID PUSH1 0x80 DUP3 ADD MSTORE ADDRESS PUSH1 0xA0 DUP3 ADD MSTORE PUSH1 0xC0 ADD PUSH1 0x40 MLOAD PUSH1 0x20 DUP2 DUP4 SUB SUB DUP2 MSTORE SWAP1 PUSH1 0x40 MSTORE DUP1 MLOAD SWAP1 PUSH1 0x20 ADD KECCAK256 SWAP1 POP SWAP1 JUMP JUMPDEST PUSH1 0x0 DUP1 PUSH2 0x18A0 PUSH2 0x126B JUMP JUMPDEST DUP1 MLOAD SWAP1 SWAP2 POP ISZERO PUSH2 0x18B7 JUMPI DUP1 MLOAD PUSH1 0x20 SWAP1 SWAP2 ADD KECCAK256 SWAP2 SWAP1 POP JUMP JUMPDEST PUSH1 0x65 SLOAD DUP1 ISZERO PUSH2 0x18C6 JUMPI SWAP3 SWAP2 POP POP JUMP JUMPDEST PUSH32 0xC5D2460186F7233C927E7DB2DCC703C0E500B653CA82273B7BFAD8045D85A470 SWAP3 POP POP POP SWAP1 JUMP JUMPDEST PUSH1 0x0 DUP1 PUSH2 0x18F9 PUSH2 0x12FD JUMP JUMPDEST DUP1 MLOAD SWAP1 SWAP2 POP ISZERO PUSH2 0x1910 JUMPI DUP1 MLOAD PUSH1 0x20 SWAP1 SWAP2 ADD KECCAK256 SWAP2 SWAP1 POP JUMP JUMPDEST PUSH1 0x66 SLOAD DUP1 ISZERO PUSH2 0x18C6 JUMPI SWAP3 SWAP2 POP POP JUMP JUMPDEST PUSH1 0x0 DUP1 DUP4 PUSH1 0x1F DUP5 ADD SLT PUSH2 0x1931 JUMPI PUSH1 0x0 DUP1 REVERT JUMPDEST POP DUP2 CALLDATALOAD PUSH8 0xFFFFFFFFFFFFFFFF DUP2 GT ISZERO PUSH2 0x1949 JUMPI PUSH1 0x0 DUP1 REVERT JUMPDEST PUSH1 0x20 DUP4 ADD SWAP2 POP DUP4 PUSH1 0x20 DUP3 PUSH1 0x5 SHL DUP6 ADD ADD GT ISZERO PUSH2 0x1964 JUMPI PUSH1 0x0 DUP1 REVERT JUMPDEST SWAP3 POP SWAP3 SWAP1 POP JUMP JUMPDEST PUSH1 0x0 DUP1 PUSH1 0x20 DUP4 DUP6 SUB SLT ISZERO PUSH2 0x197E JUMPI PUSH1 0x0 DUP1 REVERT JUMPDEST DUP3 CALLDATALOAD PUSH8 0xFFFFFFFFFFFFFFFF DUP2 GT ISZERO PUSH2 0x1995 JUMPI PUSH1 0x0 DUP1 REVERT JUMPDEST PUSH2 0x19A1 DUP6 DUP3 DUP7 ADD PUSH2 0x191F JUMP JUMPDEST SWAP1 SWAP7 SWAP1 SWAP6 POP SWAP4 POP POP POP POP JUMP JUMPDEST PUSH4 0x4E487B71 PUSH1 0xE0 SHL PUSH1 0x0 MSTORE PUSH1 0x41 PUSH1 0x4 MSTORE PUSH1 0x24 PUSH1 0x0 REVERT JUMPDEST PUSH1 0x40 DUP1 MLOAD SWAP1 DUP2 ADD PUSH8 0xFFFFFFFFFFFFFFFF DUP2 GT DUP3 DUP3 LT OR ISZERO PUSH2 0x19E6 JUMPI PUSH2 0x19E6 PUSH2 0x19AD JUMP JUMPDEST PUSH1 0x40 MSTORE SWAP1 JUMP JUMPDEST PUSH1 0x40 MLOAD PUSH2 0x140 DUP2 ADD PUSH8 0xFFFFFFFFFFFFFFFF DUP2 GT DUP3 DUP3 LT OR ISZERO PUSH2 0x19E6 JUMPI PUSH2 0x19E6 PUSH2 0x19AD JUMP JUMPDEST PUSH1 0x40 MLOAD PUSH1 0x1F DUP3 ADD PUSH1 0x1F NOT AND DUP2 ADD PUSH8 0xFFFFFFFFFFFFFFFF DUP2 GT DUP3 DUP3 LT OR ISZERO PUSH2 0x1A39 JUMPI PUSH2 0x1A39 PUSH2 0x19AD JUMP JUMPDEST PUSH1 0x40 MSTORE SWAP2 SWAP1 POP JUMP JUMPDEST PUSH1 0x0 PUSH8 0xFFFFFFFFFFFFFFFF DUP3 GT ISZERO PUSH2 0x1A5B JUMPI PUSH2 0x1A5B PUSH2 0x19AD JUMP JUMPDEST POP PUSH1 0x1F ADD PUSH1 0x1F NOT AND PUSH1 0x20 ADD SWAP1 JUMP JUMPDEST PUSH1 0x0 DUP3 PUSH1 0x1F DUP4 ADD SLT PUSH2 0x1A7A JUMPI PUSH1 0x0 DUP1 REVERT JUMPDEST DUP2 CALLDATALOAD PUSH2 0x1A8D PUSH2 0x1A88 DUP3 PUSH2 0x1A41 JUMP JUMPDEST PUSH2 0x1A10 JUMP JUMPDEST DUP2 DUP2 MSTORE DUP5 PUSH1 0x20 DUP4 DUP7 ADD ADD GT ISZERO PUSH2 0x1AA2 JUMPI PUSH1 0x0 DUP1 REVERT JUMPDEST DUP2 PUSH1 0x20 DUP6 ADD PUSH1 0x20 DUP4 ADD CALLDATACOPY PUSH1 0x0 SWAP2 DUP2 ADD PUSH1 0x20 ADD SWAP2 SWAP1 SWAP2 MSTORE SWAP4 SWAP3 POP POP POP JUMP JUMPDEST PUSH1 0x1 PUSH1 0x1 PUSH1 0xA0 SHL SUB DUP2 AND DUP2 EQ PUSH2 0x10CE JUMPI PUSH1 0x0 DUP1 REVERT JUMPDEST DUP1 CALLDATALOAD PUSH1 0xFF DUP2 AND DUP2 EQ PUSH2 0x1AE5 JUMPI PUSH1 0x0 DUP1 REVERT JUMPDEST SWAP2 SWAP1 POP JUMP JUMPDEST PUSH1 0x0 DUP1 PUSH1 0x0 DUP1 PUSH1 0x0 DUP1 PUSH1 0x0 DUP1 PUSH1 0x0 PUSH2 0x100 DUP11 DUP13 SUB SLT ISZERO PUSH2 0x1B09 JUMPI PUSH1 0x0 DUP1 REVERT JUMPDEST DUP10 CALLDATALOAD PUSH8 0xFFFFFFFFFFFFFFFF DUP1 DUP3 GT ISZERO PUSH2 0x1B21 JUMPI PUSH1 0x0 DUP1 REVERT JUMPDEST PUSH2 0x1B2D DUP14 DUP4 DUP15 ADD PUSH2 0x191F JUMP JUMPDEST SWAP1 SWAP12 POP SWAP10 POP PUSH1 0x20 DUP13 ADD CALLDATALOAD SWAP2 POP DUP1 DUP3 GT ISZERO PUSH2 0x1B46 JUMPI PUSH1 0x0 DUP1 REVERT JUMPDEST POP PUSH2 0x1B53 DUP13 DUP3 DUP14 ADD PUSH2 0x1A69 JUMP JUMPDEST SWAP8 POP POP PUSH1 0x40 DUP11 ADD CALLDATALOAD PUSH2 0x1B64 DUP2 PUSH2 0x1ABF JUMP JUMPDEST SWAP6 POP PUSH1 0x60 DUP11 ADD CALLDATALOAD SWAP5 POP PUSH1 0x80 DUP11 ADD CALLDATALOAD SWAP4 POP PUSH2 0x1B80 PUSH1 0xA0 DUP12 ADD PUSH2 0x1AD4 JUMP JUMPDEST SWAP3 POP PUSH1 0xC0 DUP11 ADD CALLDATALOAD SWAP2 POP PUSH1 0xE0 DUP11 ADD CALLDATALOAD SWAP1 POP SWAP3 SWAP6 SWAP9 POP SWAP3 SWAP6 SWAP9 POP SWAP3 SWAP6 SWAP9 JUMP JUMPDEST PUSH1 0x0 DUP1 PUSH1 0x0 DUP1 PUSH1 0x0 DUP1 PUSH1 0xC0 DUP8 DUP10 SUB SLT ISZERO PUSH2 0x1BB6 JUMPI PUSH1 0x0 DUP1 REVERT JUMPDEST DUP7 CALLDATALOAD PUSH8 0xFFFFFFFFFFFFFFFF DUP2 GT ISZERO PUSH2 0x1BCD JUMPI PUSH1 0x0 DUP1 REVERT JUMPDEST PUSH2 0x1BD9 DUP10 DUP3 DUP11 ADD PUSH2 0x1A69 JUMP JUMPDEST SWAP7 POP POP PUSH1 0x20 DUP8 ADD CALLDATALOAD SWAP5 POP PUSH1 0x40 DUP8 ADD CALLDATALOAD SWAP4 POP PUSH2 0x1BF6 PUSH1 0x60 DUP9 ADD PUSH2 0x1AD4 JUMP JUMPDEST SWAP3 POP PUSH1 0x80 DUP8 ADD CALLDATALOAD SWAP2 POP PUSH1 0xA0 DUP8 ADD CALLDATALOAD SWAP1 POP SWAP3 SWAP6 POP SWAP3 SWAP6 POP SWAP3 SWAP6 JUMP JUMPDEST PUSH1 0x0 PUSH1 0x20 DUP3 DUP5 SUB SLT ISZERO PUSH2 0x1C22 JUMPI PUSH1 0x0 DUP1 REVERT JUMPDEST DUP2 CALLDATALOAD PUSH2 0x103A DUP2 PUSH2 0x1ABF JUMP JUMPDEST PUSH1 0x0 JUMPDEST DUP4 DUP2 LT ISZERO PUSH2 0x1C48 JUMPI DUP2 DUP2 ADD MLOAD DUP4 DUP3 ADD MSTORE PUSH1 0x20 ADD PUSH2 0x1C30 JUMP JUMPDEST POP POP PUSH1 0x0 SWAP2 ADD MSTORE JUMP JUMPDEST PUSH1 0x0 DUP2 MLOAD DUP1 DUP5 MSTORE PUSH2 0x1C69 DUP2 PUSH1 0x20 DUP7 ADD PUSH1 0x20 DUP7 ADD PUSH2 0x1C2D JUMP JUMPDEST PUSH1 0x1F ADD PUSH1 0x1F NOT AND SWAP3 SWAP1 SWAP3 ADD PUSH1 0x20 ADD SWAP3 SWAP2 POP POP JUMP JUMPDEST PUSH32 0xFF00000000000000000000000000000000000000000000000000000000000000 DUP9 AND DUP2 MSTORE PUSH1 0x0 PUSH1 0x20 PUSH1 0xE0 DUP2 DUP5 ADD MSTORE PUSH2 0x1CB9 PUSH1 0xE0 DUP5 ADD DUP11 PUSH2 0x1C51 JUMP JUMPDEST DUP4 DUP2 SUB PUSH1 0x40 DUP6 ADD MSTORE PUSH2 0x1CCB DUP2 DUP11 PUSH2 0x1C51 JUMP JUMPDEST PUSH1 0x60 DUP6 ADD DUP10 SWAP1 MSTORE PUSH1 0x1 PUSH1 0x1 PUSH1 0xA0 SHL SUB DUP9 AND PUSH1 0x80 DUP7 ADD MSTORE PUSH1 0xA0 DUP6 ADD DUP8 SWAP1 MSTORE DUP5 DUP2 SUB PUSH1 0xC0 DUP7 ADD MSTORE DUP6 MLOAD DUP1 DUP3 MSTORE DUP4 DUP8 ADD SWAP3 POP SWAP1 DUP4 ADD SWAP1 PUSH1 0x0 JUMPDEST DUP2 DUP2 LT ISZERO PUSH2 0x1D1D JUMPI DUP4 MLOAD DUP4 MSTORE SWAP3 DUP5 ADD SWAP3 SWAP2 DUP5 ADD SWAP2 PUSH1 0x1 ADD PUSH2 0x1D01 JUMP JUMPDEST POP SWAP1 SWAP13 SWAP12 POP POP POP POP POP POP POP POP POP POP POP POP JUMP JUMPDEST PUSH1 0x0 PUSH1 0x40 DUP3 DUP5 SUB SLT ISZERO PUSH2 0x1D41 JUMPI PUSH1 0x0 DUP1 REVERT JUMPDEST POP SWAP2 SWAP1 POP JUMP JUMPDEST PUSH1 0x0 DUP1 PUSH1 0x0 DUP1 PUSH1 0x0 DUP1 PUSH1 0x0 DUP1 PUSH2 0x100 DUP10 DUP12 SUB SLT ISZERO PUSH2 0x1D64 JUMPI PUSH1 0x0 DUP1 REVERT JUMPDEST DUP9 CALLDATALOAD PUSH8 0xFFFFFFFFFFFFFFFF DUP1 DUP3 GT ISZERO PUSH2 0x1D7C JUMPI PUSH1 0x0 DUP1 REVERT JUMPDEST PUSH2 0x1D88 DUP13 DUP4 DUP14 ADD PUSH2 0x1D2F JUMP JUMPDEST SWAP10 POP PUSH1 0x20 DUP12 ADD CALLDATALOAD SWAP2 POP DUP1 DUP3 GT ISZERO PUSH2 0x1D9E JUMPI PUSH1 0x0 DUP1 REVERT JUMPDEST POP PUSH2 0x1DAB DUP12 DUP3 DUP13 ADD PUSH2 0x1A69 JUMP JUMPDEST SWAP8 POP POP PUSH1 0x40 DUP10 ADD CALLDATALOAD PUSH2 0x1DBC DUP2 PUSH2 0x1ABF JUMP JUMPDEST SWAP6 POP PUSH1 0x60 DUP10 ADD CALLDATALOAD SWAP5 POP PUSH1 0x80 DUP10 ADD CALLDATALOAD SWAP4 POP PUSH2 0x1DD8 PUSH1 0xA0 DUP11 ADD PUSH2 0x1AD4 JUMP JUMPDEST SWAP3 POP PUSH1 0xC0 DUP10 ADD CALLDATALOAD SWAP2 POP PUSH1 0xE0 DUP10 ADD CALLDATALOAD SWAP1 POP SWAP3 SWAP6 SWAP9 POP SWAP3 SWAP6 SWAP9 SWAP1 SWAP4 SWAP7 POP JUMP JUMPDEST PUSH1 0x0 PUSH1 0x20 DUP3 DUP5 SUB SLT ISZERO PUSH2 0x1E07 JUMPI PUSH1 0x0 DUP1 REVERT JUMPDEST DUP2 CALLDATALOAD PUSH8 0xFFFFFFFFFFFFFFFF DUP2 GT ISZERO PUSH2 0x1E1E JUMPI PUSH1 0x0 DUP1 REVERT JUMPDEST PUSH2 0x1E2A DUP5 DUP3 DUP6 ADD PUSH2 0x1D2F JUMP JUMPDEST SWAP5 SWAP4 POP POP POP POP JUMP JUMPDEST PUSH4 0x4E487B71 PUSH1 0xE0 SHL PUSH1 0x0 MSTORE PUSH1 0x32 PUSH1 0x4 MSTORE PUSH1 0x24 PUSH1 0x0 REVERT JUMPDEST PUSH1 0x0 DUP3 CALLDATALOAD PUSH1 0x3E NOT DUP4 CALLDATASIZE SUB ADD DUP2 SLT PUSH2 0x1E5E JUMPI PUSH1 0x0 DUP1 REVERT JUMPDEST SWAP2 SWAP1 SWAP2 ADD SWAP3 SWAP2 POP POP JUMP JUMPDEST PUSH1 0x0 PUSH8 0xFFFFFFFFFFFFFFFF DUP3 GT ISZERO PUSH2 0x1E82 JUMPI PUSH2 0x1E82 PUSH2 0x19AD JUMP JUMPDEST POP PUSH1 0x5 SHL PUSH1 0x20 ADD SWAP1 JUMP JUMPDEST PUSH1 0x0 PUSH1 0x40 DUP1 DUP4 CALLDATASIZE SUB SLT ISZERO PUSH2 0x1E9F JUMPI PUSH1 0x0 DUP1 REVERT JUMPDEST PUSH2 0x1EA7 PUSH2 0x19C3 JUMP JUMPDEST DUP4 CALLDATALOAD DUP2 MSTORE PUSH1 0x20 DUP1 DUP6 ADD CALLDATALOAD PUSH8 0xFFFFFFFFFFFFFFFF DUP2 GT ISZERO PUSH2 0x1EC6 JUMPI PUSH1 0x0 DUP1 REVERT JUMPDEST DUP6 ADD CALLDATASIZE PUSH1 0x1F DUP3 ADD SLT PUSH2 0x1ED7 JUMPI PUSH1 0x0 DUP1 REVERT JUMPDEST DUP1 CALLDATALOAD PUSH2 0x1EE5 PUSH2 0x1A88 DUP3 PUSH2 0x1E68 JUMP JUMPDEST DUP2 DUP2 MSTORE PUSH1 0x6 SWAP2 SWAP1 SWAP2 SHL DUP3 ADD DUP4 ADD SWAP1 DUP4 DUP2 ADD SWAP1 CALLDATASIZE DUP4 GT ISZERO PUSH2 0x1F04 JUMPI PUSH1 0x0 DUP1 REVERT JUMPDEST SWAP3 DUP5 ADD SWAP3 JUMPDEST DUP3 DUP5 LT ISZERO PUSH2 0x1F44 JUMPI DUP7 DUP5 CALLDATASIZE SUB SLT ISZERO PUSH2 0x1F21 JUMPI PUSH1 0x0 DUP1 DUP2 REVERT JUMPDEST PUSH2 0x1F29 PUSH2 0x19C3 JUMP JUMPDEST DUP5 CALLDATALOAD DUP2 MSTORE DUP6 DUP6 ADD CALLDATALOAD DUP7 DUP3 ADD MSTORE DUP3 MSTORE SWAP3 DUP7 ADD SWAP3 SWAP1 DUP5 ADD SWAP1 PUSH2 0x1F09 JUMP JUMPDEST SWAP4 DUP6 ADD SWAP4 SWAP1 SWAP4 MSTORE POP SWAP2 SWAP6 SWAP5 POP POP POP POP POP JUMP JUMPDEST PUSH8 0xFFFFFFFFFFFFFFFF DUP2 AND DUP2 EQ PUSH2 0x10CE JUMPI PUSH1 0x0 DUP1 REVERT JUMPDEST DUP1 MLOAD PUSH2 0x1AE5 DUP2 PUSH2 0x1F56 JUMP JUMPDEST DUP1 MLOAD PUSH2 0x1AE5 DUP2 PUSH2 0x1ABF JUMP JUMPDEST DUP1 ISZERO ISZERO DUP2 EQ PUSH2 0x10CE JUMPI PUSH1 0x0 DUP1 REVERT JUMPDEST DUP1 MLOAD PUSH2 0x1AE5 DUP2 PUSH2 0x1F82 JUMP JUMPDEST PUSH1 0x0 DUP3 PUSH1 0x1F DUP4 ADD SLT PUSH2 0x1FAC JUMPI PUSH1 0x0 DUP1 REVERT JUMPDEST DUP2 MLOAD PUSH2 0x1FBA PUSH2 0x1A88 DUP3 PUSH2 0x1A41 JUMP JUMPDEST DUP2 DUP2 MSTORE DUP5 PUSH1 0x20 DUP4 DUP7 ADD ADD GT ISZERO PUSH2 0x1FCF JUMPI PUSH1 0x0 DUP1 REVERT JUMPDEST PUSH2 0x1E2A DUP3 PUSH1 0x20 DUP4 ADD PUSH1 0x20 DUP8 ADD PUSH2 0x1C2D JUMP JUMPDEST PUSH1 0x0 PUSH1 0x20 DUP3 DUP5 SUB SLT ISZERO PUSH2 0x1FF2 JUMPI PUSH1 0x0 DUP1 REVERT JUMPDEST DUP2 MLOAD PUSH8 0xFFFFFFFFFFFFFFFF DUP1 DUP3 GT ISZERO PUSH2 0x200A JUMPI PUSH1 0x0 DUP1 REVERT JUMPDEST SWAP1 DUP4 ADD SWAP1 PUSH2 0x140 DUP3 DUP7 SUB SLT ISZERO PUSH2 0x201F JUMPI PUSH1 0x0 DUP1 REVERT JUMPDEST PUSH2 0x2027 PUSH2 0x19EC JUMP JUMPDEST DUP3 MLOAD DUP2 MSTORE PUSH1 0x20 DUP4 ADD MLOAD PUSH1 0x20 DUP3 ADD MSTORE PUSH2 0x2041 PUSH1 0x40 DUP5 ADD PUSH2 0x1F6C JUMP JUMPDEST PUSH1 0x40 DUP3 ADD MSTORE PUSH2 0x2052 PUSH1 0x60 DUP5 ADD PUSH2 0x1F6C JUMP JUMPDEST PUSH1 0x60 DUP3 ADD MSTORE PUSH2 0x2063 PUSH1 0x80 DUP5 ADD PUSH2 0x1F6C JUMP JUMPDEST PUSH1 0x80 DUP3 ADD MSTORE PUSH1 0xA0 DUP4 ADD MLOAD PUSH1 0xA0 DUP3 ADD MSTORE PUSH2 0x207E PUSH1 0xC0 DUP5 ADD PUSH2 0x1F77 JUMP JUMPDEST PUSH1 0xC0 DUP3 ADD MSTORE PUSH2 0x208F PUSH1 0xE0 DUP5 ADD PUSH2 0x1F77 JUMP JUMPDEST PUSH1 0xE0 DUP3 ADD MSTORE PUSH2 0x100 PUSH2 0x20A2 DUP2 DUP6 ADD PUSH2 0x1F90 JUMP JUMPDEST SWAP1 DUP3 ADD MSTORE PUSH2 0x120 DUP4 DUP2 ADD MLOAD DUP4 DUP2 GT ISZERO PUSH2 0x20BA JUMPI PUSH1 0x0 DUP1 REVERT JUMPDEST PUSH2 0x20C6 DUP9 DUP3 DUP8 ADD PUSH2 0x1F9B JUMP JUMPDEST SWAP2 DUP4 ADD SWAP2 SWAP1 SWAP2 MSTORE POP SWAP6 SWAP5 POP POP POP POP POP JUMP JUMPDEST PUSH1 0x0 PUSH1 0x1 DUP3 ADD PUSH2 0x20F7 JUMPI PUSH4 0x4E487B71 PUSH1 0xE0 SHL PUSH1 0x0 MSTORE PUSH1 0x11 PUSH1 0x4 MSTORE PUSH1 0x24 PUSH1 0x0 REVERT JUMPDEST POP PUSH1 0x1 ADD SWAP1 JUMP JUMPDEST PUSH1 0x20 DUP1 DUP3 MSTORE DUP2 DUP2 ADD DUP4 SWAP1 MSTORE PUSH1 0x0 SWAP1 PUSH1 0x40 DUP1 DUP5 ADD PUSH1 0x5 DUP7 SWAP1 SHL DUP6 ADD DUP3 ADD DUP8 DUP6 JUMPDEST DUP9 DUP2 LT ISZERO PUSH2 0x21E0 JUMPI DUP8 DUP4 SUB PUSH1 0x3F NOT ADD DUP5 MSTORE DUP2 CALLDATALOAD CALLDATASIZE DUP12 SWAP1 SUB PUSH1 0x3E NOT ADD DUP2 SLT PUSH2 0x2143 JUMPI PUSH1 0x0 DUP1 REVERT JUMPDEST DUP11 ADD DUP1 CALLDATALOAD DUP5 MSTORE DUP4 DUP7 ADD DUP8 DUP3 ADD CALLDATALOAD CALLDATASIZE DUP4 SWAP1 SUB PUSH1 0x1E NOT ADD DUP2 SLT PUSH2 0x2163 JUMPI PUSH1 0x0 DUP1 REVERT JUMPDEST SWAP1 SWAP2 ADD DUP8 DUP2 ADD SWAP2 SWAP1 CALLDATALOAD PUSH8 0xFFFFFFFFFFFFFFFF DUP2 GT ISZERO PUSH2 0x2181 JUMPI PUSH1 0x0 DUP1 REVERT JUMPDEST DUP1 PUSH1 0x6 SHL CALLDATASIZE SUB DUP4 SGT ISZERO PUSH2 0x2193 JUMPI PUSH1 0x0 DUP1 REVERT JUMPDEST DUP6 DUP10 ADD DUP9 SWAP1 MSTORE SWAP1 DUP2 SWAP1 MSTORE PUSH1 0x0 SWAP1 PUSH1 0x60 DUP7 ADD JUMPDEST DUP2 DUP4 LT ISZERO PUSH2 0x21CB JUMPI DUP4 CALLDATALOAD DUP2 MSTORE DUP10 DUP5 ADD CALLDATALOAD DUP11 DUP3 ADD MSTORE SWAP3 DUP9 ADD SWAP3 PUSH1 0x1 SWAP3 SWAP1 SWAP3 ADD SWAP2 DUP9 ADD PUSH2 0x21A5 JUMP JUMPDEST SWAP7 DUP10 ADD SWAP7 SWAP6 POP POP POP SWAP2 DUP7 ADD SWAP2 POP PUSH1 0x1 ADD PUSH2 0x211D JUMP JUMPDEST POP SWAP1 SWAP9 SWAP8 POP POP POP POP POP POP POP POP JUMP JUMPDEST PUSH1 0x0 DUP3 CALLDATALOAD PUSH1 0x5E NOT DUP4 CALLDATASIZE SUB ADD DUP2 SLT PUSH2 0x1E5E JUMPI PUSH1 0x0 DUP1 REVERT JUMPDEST PUSH1 0x0 PUSH1 0xC0 DUP3 DUP5 SUB SLT ISZERO PUSH2 0x2216 JUMPI PUSH1 0x0 DUP1 REVERT JUMPDEST PUSH1 0x40 MLOAD PUSH1 0xC0 DUP2 ADD PUSH8 0xFFFFFFFFFFFFFFFF DUP3 DUP3 LT DUP2 DUP4 GT OR ISZERO PUSH2 0x223A JUMPI PUSH2 0x223A PUSH2 0x19AD JUMP JUMPDEST DUP2 PUSH1 0x40 MSTORE DUP3 SWAP4 POP DUP5 CALLDATALOAD SWAP2 POP PUSH2 0x224E DUP3 PUSH2 0x1ABF JUMP JUMPDEST SWAP1 DUP3 MSTORE PUSH1 0x20 DUP5 ADD CALLDATALOAD SWAP1 PUSH2 0x2260 DUP3 PUSH2 0x1F56 JUMP JUMPDEST DUP2 PUSH1 0x20 DUP5 ADD MSTORE PUSH1 0x40 DUP6 ADD CALLDATALOAD SWAP2 POP PUSH2 0x2276 DUP3 PUSH2 0x1F82 JUMP JUMPDEST DUP2 PUSH1 0x40 DUP5 ADD MSTORE PUSH1 0x60 DUP6 ADD CALLDATALOAD PUSH1 0x60 DUP5 ADD MSTORE PUSH1 0x80 DUP6 ADD CALLDATALOAD SWAP2 POP DUP1 DUP3 GT ISZERO PUSH2 0x229A JUMPI PUSH1 0x0 DUP1 REVERT JUMPDEST POP PUSH2 0x22A7 DUP6 DUP3 DUP7 ADD PUSH2 0x1A69 JUMP JUMPDEST PUSH1 0x80 DUP4 ADD MSTORE POP PUSH1 0xA0 DUP4 ADD CALLDATALOAD PUSH1 0xA0 DUP3 ADD MSTORE POP SWAP3 SWAP2 POP POP JUMP JUMPDEST PUSH1 0x0 PUSH1 0x40 DUP3 CALLDATASIZE SUB SLT ISZERO PUSH2 0x22D0 JUMPI PUSH1 0x0 DUP1 REVERT JUMPDEST PUSH2 0x22D8 PUSH2 0x19C3 JUMP JUMPDEST DUP3 CALLDATALOAD DUP2 MSTORE PUSH1 0x20 DUP1 DUP5 ADD CALLDATALOAD PUSH8 0xFFFFFFFFFFFFFFFF DUP1 DUP3 GT ISZERO PUSH2 0x22F8 JUMPI PUSH1 0x0 DUP1 REVERT JUMPDEST SWAP1 DUP6 ADD SWAP1 CALLDATASIZE PUSH1 0x1F DUP4 ADD SLT PUSH2 0x230B JUMPI PUSH1 0x0 DUP1 REVERT JUMPDEST DUP2 CALLDATALOAD PUSH2 0x2319 PUSH2 0x1A88 DUP3 PUSH2 0x1E68 JUMP JUMPDEST DUP2 DUP2 MSTORE PUSH1 0x5 SWAP2 SWAP1 SWAP2 SHL DUP4 ADD DUP5 ADD SWAP1 DUP5 DUP2 ADD SWAP1 CALLDATASIZE DUP4 GT ISZERO PUSH2 0x2338 JUMPI PUSH1 0x0 DUP1 REVERT JUMPDEST DUP6 DUP6 ADD JUMPDEST DUP4 DUP2 LT ISZERO PUSH2 0x2370 JUMPI DUP1 CALLDATALOAD DUP6 DUP2 GT ISZERO PUSH2 0x2354 JUMPI PUSH1 0x0 DUP1 DUP2 REVERT JUMPDEST PUSH2 0x2362 CALLDATASIZE DUP10 DUP4 DUP11 ADD ADD PUSH2 0x2204 JUMP JUMPDEST DUP5 MSTORE POP SWAP2 DUP7 ADD SWAP2 DUP7 ADD PUSH2 0x233C JUMP JUMPDEST POP SWAP5 DUP7 ADD SWAP5 SWAP1 SWAP5 MSTORE POP SWAP3 SWAP6 SWAP5 POP POP POP POP POP JUMP JUMPDEST PUSH1 0x0 PUSH1 0x20 DUP1 DUP4 ADD DUP2 DUP5 MSTORE DUP1 DUP6 MLOAD DUP1 DUP4 MSTORE PUSH1 0x40 SWAP3 POP DUP3 DUP7 ADD SWAP2 POP DUP3 DUP2 PUSH1 0x5 SHL DUP8 ADD ADD DUP5 DUP9 ADD PUSH1 0x0 JUMPDEST DUP4 DUP2 LT ISZERO PUSH2 0x21E0 JUMPI DUP9 DUP4 SUB PUSH1 0x3F NOT ADD DUP6 MSTORE DUP2 MLOAD DUP1 MLOAD DUP5 MSTORE DUP8 ADD MLOAD DUP8 DUP5 ADD DUP8 SWAP1 MSTORE DUP1 MLOAD DUP8 DUP6 ADD DUP2 SWAP1 MSTORE SWAP1 DUP9 ADD SWAP1 PUSH1 0x60 SWAP1 DUP2 DUP7 ADD SWAP1 PUSH1 0x5 DUP2 SWAP1 SHL DUP8 ADD DUP4 ADD PUSH1 0x0 JUMPDEST DUP3 DUP2 LT ISZERO PUSH2 0x2468 JUMPI PUSH1 0x5F NOT DUP10 DUP4 SUB ADD DUP5 MSTORE DUP6 MLOAD PUSH1 0xC0 PUSH1 0x1 PUSH1 0x1 PUSH1 0xA0 SHL SUB DUP3 MLOAD AND DUP5 MSTORE PUSH8 0xFFFFFFFFFFFFFFFF DUP16 DUP4 ADD MLOAD AND DUP16 DUP6 ADD MSTORE DUP14 DUP3 ADD MLOAD ISZERO ISZERO DUP15 DUP6 ADD MSTORE DUP7 DUP3 ADD MLOAD DUP8 DUP6 ADD MSTORE PUSH1 0x80 DUP1 DUP4 ADD MLOAD DUP3 DUP3 DUP8 ADD MSTORE PUSH2 0x2446 DUP4 DUP8 ADD DUP3 PUSH2 0x1C51 JUMP JUMPDEST PUSH1 0xA0 SWAP5 DUP6 ADD MLOAD SWAP7 SWAP1 SWAP5 ADD SWAP6 SWAP1 SWAP6 MSTORE POP POP SWAP6 DUP14 ADD SWAP6 SWAP4 DUP14 ADD SWAP4 SWAP2 POP PUSH1 0x1 ADD PUSH2 0x23E9 JUMP JUMPDEST POP SWAP9 DUP12 ADD SWAP9 SWAP7 POP POP POP SWAP3 DUP9 ADD SWAP3 POP POP PUSH1 0x1 ADD PUSH2 0x23AA JUMP JUMPDEST PUSH1 0x0 PUSH1 0x20 DUP1 DUP4 DUP6 SUB SLT ISZERO PUSH2 0x2492 JUMPI PUSH1 0x0 DUP1 REVERT JUMPDEST DUP3 MLOAD PUSH8 0xFFFFFFFFFFFFFFFF DUP2 GT ISZERO PUSH2 0x24A9 JUMPI PUSH1 0x0 DUP1 REVERT JUMPDEST DUP4 ADD PUSH1 0x1F DUP2 ADD DUP6 SGT PUSH2 0x24BA JUMPI PUSH1 0x0 DUP1 REVERT JUMPDEST DUP1 MLOAD PUSH2 0x24C8 PUSH2 0x1A88 DUP3 PUSH2 0x1E68 JUMP JUMPDEST DUP2 DUP2 MSTORE PUSH1 0x5 SWAP2 SWAP1 SWAP2 SHL DUP3 ADD DUP4 ADD SWAP1 DUP4 DUP2 ADD SWAP1 DUP8 DUP4 GT ISZERO PUSH2 0x24E7 JUMPI PUSH1 0x0 DUP1 REVERT JUMPDEST SWAP3 DUP5 ADD SWAP3 JUMPDEST DUP3 DUP5 LT ISZERO PUSH2 0x2505 JUMPI DUP4 MLOAD DUP3 MSTORE SWAP3 DUP5 ADD SWAP3 SWAP1 DUP5 ADD SWAP1 PUSH2 0x24EC JUMP JUMPDEST SWAP8 SWAP7 POP POP POP POP POP POP POP JUMP JUMPDEST PUSH1 0x0 DUP1 DUP4 CALLDATALOAD PUSH1 0x1E NOT DUP5 CALLDATASIZE SUB ADD DUP2 SLT PUSH2 0x2527 JUMPI PUSH1 0x0 DUP1 REVERT JUMPDEST DUP4 ADD PUSH1 0x20 DUP2 ADD SWAP3 POP CALLDATALOAD SWAP1 POP PUSH8 0xFFFFFFFFFFFFFFFF DUP2 GT ISZERO PUSH2 0x2547 JUMPI PUSH1 0x0 DUP1 REVERT JUMPDEST DUP1 CALLDATASIZE SUB DUP3 SGT ISZERO PUSH2 0x1964 JUMPI PUSH1 0x0 DUP1 REVERT JUMPDEST DUP2 DUP4 MSTORE DUP2 DUP2 PUSH1 0x20 DUP6 ADD CALLDATACOPY POP PUSH1 0x0 DUP3 DUP3 ADD PUSH1 0x20 SWAP1 DUP2 ADD SWAP2 SWAP1 SWAP2 MSTORE PUSH1 0x1F SWAP1 SWAP2 ADD PUSH1 0x1F NOT AND SWAP1 SWAP2 ADD ADD SWAP1 JUMP JUMPDEST PUSH1 0x20 DUP2 MSTORE DUP2 CALLDATALOAD PUSH1 0x20 DUP3 ADD MSTORE PUSH1 0x0 PUSH1 0x20 DUP4 ADD CALLDATALOAD PUSH1 0xBE NOT DUP5 CALLDATASIZE SUB ADD DUP2 SLT PUSH2 0x25A3 JUMPI PUSH1 0x0 DUP1 REVERT JUMPDEST PUSH1 0x40 DUP4 DUP2 ADD MSTORE DUP4 ADD DUP1 CALLDATALOAD PUSH2 0x25B6 DUP2 PUSH2 0x1ABF JUMP JUMPDEST PUSH1 0x1 PUSH1 0x1 PUSH1 0xA0 SHL SUB AND PUSH1 0x60 DUP5 ADD MSTORE PUSH1 0x20 DUP2 ADD CALLDATALOAD PUSH2 0x25D2 DUP2 PUSH2 0x1F56 JUMP JUMPDEST PUSH8 0xFFFFFFFFFFFFFFFF AND PUSH1 0x80 DUP5 ADD MSTORE PUSH1 0x40 DUP2 ADD CALLDATALOAD PUSH2 0x25EF DUP2 PUSH2 0x1F82 JUMP JUMPDEST ISZERO ISZERO PUSH1 0xA0 DUP5 ADD MSTORE PUSH1 0x60 DUP2 ADD CALLDATALOAD PUSH1 0xC0 DUP5 ADD MSTORE PUSH2 0x260D PUSH1 0x80 DUP3 ADD DUP3 PUSH2 0x2510 JUMP JUMPDEST PUSH1 0xC0 PUSH1 0xE0 DUP7 ADD MSTORE PUSH2 0x2623 PUSH2 0x120 DUP7 ADD DUP3 DUP5 PUSH2 0x2556 JUMP JUMPDEST SWAP2 POP POP PUSH1 0xA0 DUP3 ADD CALLDATALOAD PUSH2 0x100 DUP6 ADD MSTORE DUP1 SWAP3 POP POP POP SWAP3 SWAP2 POP POP JUMP JUMPDEST PUSH1 0x0 PUSH1 0x20 DUP3 DUP5 SUB SLT ISZERO PUSH2 0x264E JUMPI PUSH1 0x0 DUP1 REVERT JUMPDEST POP MLOAD SWAP2 SWAP1 POP JUMP JUMPDEST PUSH1 0x0 DUP3 CALLDATALOAD PUSH1 0xBE NOT DUP4 CALLDATASIZE SUB ADD DUP2 SLT PUSH2 0x1E5E JUMPI PUSH1 0x0 DUP1 REVERT JUMPDEST PUSH1 0x0 PUSH2 0x1184 CALLDATASIZE DUP4 PUSH2 0x2204 JUMP JUMPDEST PUSH1 0x1 DUP2 DUP2 SHR SWAP1 DUP3 AND DUP1 PUSH2 0x268B JUMPI PUSH1 0x7F DUP3 AND SWAP2 POP JUMPDEST PUSH1 0x20 DUP3 LT DUP2 SUB PUSH2 0x1D41 JUMPI PUSH4 0x4E487B71 PUSH1 0xE0 SHL PUSH1 0x0 MSTORE PUSH1 0x22 PUSH1 0x4 MSTORE PUSH1 0x24 PUSH1 0x0 REVERT JUMPDEST PUSH4 0x4E487B71 PUSH1 0xE0 SHL PUSH1 0x0 MSTORE PUSH1 0x21 PUSH1 0x4 MSTORE PUSH1 0x24 PUSH1 0x0 REVERT JUMPDEST PUSH1 0x1F DUP3 GT ISZERO PUSH2 0x2707 JUMPI PUSH1 0x0 DUP2 DUP2 MSTORE PUSH1 0x20 DUP2 KECCAK256 PUSH1 0x1F DUP6 ADD PUSH1 0x5 SHR DUP2 ADD PUSH1 0x20 DUP7 LT ISZERO PUSH2 0x26E8 JUMPI POP DUP1 JUMPDEST PUSH1 0x1F DUP6 ADD PUSH1 0x5 SHR DUP3 ADD SWAP2 POP JUMPDEST DUP2 DUP2 LT ISZERO PUSH2 0x4D5 JUMPI DUP3 DUP2 SSTORE PUSH1 0x1 ADD PUSH2 0x26F4 JUMP JUMPDEST POP POP POP JUMP JUMPDEST DUP2 MLOAD PUSH8 0xFFFFFFFFFFFFFFFF DUP2 GT ISZERO PUSH2 0x2726 JUMPI PUSH2 0x2726 PUSH2 0x19AD JUMP JUMPDEST PUSH2 0x273A DUP2 PUSH2 0x2734 DUP5 SLOAD PUSH2 0x2677 JUMP JUMPDEST DUP5 PUSH2 0x26C1 JUMP JUMPDEST PUSH1 0x20 DUP1 PUSH1 0x1F DUP4 GT PUSH1 0x1 DUP2 EQ PUSH2 0x276F JUMPI PUSH1 0x0 DUP5 ISZERO PUSH2 0x2757 JUMPI POP DUP6 DUP4 ADD MLOAD JUMPDEST PUSH1 0x0 NOT PUSH1 0x3 DUP7 SWAP1 SHL SHR NOT AND PUSH1 0x1 DUP6 SWAP1 SHL OR DUP6 SSTORE PUSH2 0x4D5 JUMP JUMPDEST PUSH1 0x0 DUP6 DUP2 MSTORE PUSH1 0x20 DUP2 KECCAK256 PUSH1 0x1F NOT DUP7 AND SWAP2 JUMPDEST DUP3 DUP2 LT ISZERO PUSH2 0x279E JUMPI DUP9 DUP7 ADD MLOAD DUP3 SSTORE SWAP5 DUP5 ADD SWAP5 PUSH1 0x1 SWAP1 SWAP2 ADD SWAP1 DUP5 ADD PUSH2 0x277F JUMP JUMPDEST POP DUP6 DUP3 LT ISZERO PUSH2 0x27BC JUMPI DUP8 DUP6 ADD MLOAD PUSH1 0x0 NOT PUSH1 0x3 DUP9 SWAP1 SHL PUSH1 0xF8 AND SHR NOT AND DUP2 SSTORE JUMPDEST POP POP POP POP POP PUSH1 0x1 SWAP1 DUP2 SHL ADD SWAP1 SSTORE POP JUMP INVALID LOG2 PUSH5 0x6970667358 0x22 SLT KECCAK256 SWAP14 0x29 0x5F 0xC0 PUSH27 0xD69DC0E81E72ABC01012614638B062BF313C22B8963E0DB80FB9BB PUSH5 0x736F6C6343 STOP ADDMOD SGT STOP CALLER "},"gasEstimates":{"creation":{"codeDepositCost":"2048400","executionCost":"31767","totalCost":"2080167"},"external":{"ATTEST_TYPEHASH()":"284","_recoverSignerAddress(string,uint256,uint256,uint8,bytes32,bytes32)":"infinite","attest((bytes32,(address,uint64,bool,bytes32,bytes,uint256)))":"infinite","attestBySig((bytes32,(address,uint64,bool,bytes32,bytes,uint256)),string,address,uint256,uint256,uint8,bytes32,bytes32)":"infinite","eas()":"2371","eip712Domain()":"infinite","initialize(address)":"infinite","multiAttestBySig((bytes32,(bytes32,(address,uint64,bool,bytes32,bytes,uint256)[]),uint256)[],string,address,uint256,uint256,uint8,bytes32,bytes32)":"infinite","multiRevoke((bytes32,(bytes32,uint256)[])[])":"infinite","multiRevokeBySig((bytes32,(bytes32,uint256)[])[],string,address,uint256,uint256,uint8,bytes32,bytes32)":"infinite","multiSequentialAttest((bytes32,(bytes32,(address,uint64,bool,bytes32,bytes,uint256)[]),uint256)[])":"infinite","nonces(address)":"2536","owner()":"2409","renounceOwnership()":"infinite","transferOwnership(address)":"infinite"},"internal":{"validateCanAttestToRef(bytes32)":"infinite","validateCanAttestToRefs(struct AttestationRequestData memory[] memory)":"infinite"}},"methodIdentifiers":{"ATTEST_TYPEHASH()":"7e4a7d8f","_recoverSignerAddress(string,uint256,uint256,uint8,bytes32,bytes32)":"5ffed2f0","attest((bytes32,(address,uint64,bool,bytes32,bytes,uint256)))":"f17325e7","attestBySig((bytes32,(address,uint64,bool,bytes32,bytes,uint256)),string,address,uint256,uint256,uint8,bytes32,bytes32)":"d68a5ab6","eas()":"8150864d","eip712Domain()":"84b0196e","initialize(address)":"c4d66de8","multiAttestBySig((bytes32,(bytes32,(address,uint64,bool,bytes32,bytes,uint256)[]),uint256)[],string,address,uint256,uint256,uint8,bytes32,bytes32)":"5ea677e9","multiRevoke((bytes32,(bytes32,uint256)[])[])":"4cb7e9e5","multiRevokeBySig((bytes32,(bytes32,uint256)[])[],string,address,uint256,uint256,uint8,bytes32,bytes32)":"5cad7555","multiSequentialAttest((bytes32,(bytes32,(address,uint64,bool,bytes32,bytes,uint256)[]),uint256)[])":"5913a31c","nonces(address)":"7ecebe00","owner()":"8da5cb5b","renounceOwnership()":"715018a6","transferOwnership(address)":"f2fde38b"}},"storageLayout":{"storage":[{"astId":983,"contract":"contracts/Gap.sol:Gap","label":"_initialized","offset":0,"slot":"0","type":"t_uint8"},{"astId":986,"contract":"contracts/Gap.sol:Gap","label":"_initializing","offset":1,"slot":"0","type":"t_bool"},{"astId":1516,"contract":"contracts/Gap.sol:Gap","label":"__gap","offset":0,"slot":"1","type":"t_array(t_uint256)50_storage"},{"astId":830,"contract":"contracts/Gap.sol:Gap","label":"_owner","offset":0,"slot":"51","type":"t_address"},{"astId":950,"contract":"contracts/Gap.sol:Gap","label":"__gap","offset":0,"slot":"52","type":"t_array(t_uint256)49_storage"},{"astId":2130,"contract":"contracts/Gap.sol:Gap","label":"_hashedName","offset":0,"slot":"101","type":"t_bytes32"},{"astId":2133,"contract":"contracts/Gap.sol:Gap","label":"_hashedVersion","offset":0,"slot":"102","type":"t_bytes32"},{"astId":2135,"contract":"contracts/Gap.sol:Gap","label":"_name","offset":0,"slot":"103","type":"t_string_storage"},{"astId":2137,"contract":"contracts/Gap.sol:Gap","label":"_version","offset":0,"slot":"104","type":"t_string_storage"},{"astId":2395,"contract":"contracts/Gap.sol:Gap","label":"__gap","offset":0,"slot":"105","type":"t_array(t_uint256)48_storage"},{"astId":5207,"contract":"contracts/Gap.sol:Gap","label":"eas","offset":0,"slot":"153","type":"t_contract(IEAS)346"},{"astId":5211,"contract":"contracts/Gap.sol:Gap","label":"nonces","offset":0,"slot":"154","type":"t_mapping(t_address,t_uint256)"}],"types":{"t_address":{"encoding":"inplace","label":"address","numberOfBytes":"20"},"t_array(t_uint256)48_storage":{"base":"t_uint256","encoding":"inplace","label":"uint256[48]","numberOfBytes":"1536"},"t_array(t_uint256)49_storage":{"base":"t_uint256","encoding":"inplace","label":"uint256[49]","numberOfBytes":"1568"},"t_array(t_uint256)50_storage":{"base":"t_uint256","encoding":"inplace","label":"uint256[50]","numberOfBytes":"1600"},"t_bool":{"encoding":"inplace","label":"bool","numberOfBytes":"1"},"t_bytes32":{"encoding":"inplace","label":"bytes32","numberOfBytes":"32"},"t_contract(IEAS)346":{"encoding":"inplace","label":"contract IEAS","numberOfBytes":"20"},"t_mapping(t_address,t_uint256)":{"encoding":"mapping","key":"t_address","label":"mapping(address => uint256)","numberOfBytes":"32","value":"t_uint256"},"t_string_storage":{"encoding":"bytes","label":"string","numberOfBytes":"32"},"t_uint256":{"encoding":"inplace","label":"uint256","numberOfBytes":"32"},"t_uint8":{"encoding":"inplace","label":"uint8","numberOfBytes":"1"}}},"userdoc":{"kind":"user","methods":{"attest((bytes32,(address,uint64,bool,bytes32,bytes,uint256)))":{"notice":" Perform a single attestation"},"attestBySig((bytes32,(address,uint64,bool,bytes32,bytes,uint256)),string,address,uint256,uint256,uint8,bytes32,bytes32)":{"notice":" Performs a single attestation by signature"},"multiAttestBySig((bytes32,(bytes32,(address,uint64,bool,bytes32,bytes,uint256)[]),uint256)[],string,address,uint256,uint256,uint8,bytes32,bytes32)":{"notice":" Performs multi attestations by signature"},"multiRevoke((bytes32,(bytes32,uint256)[])[])":{"notice":" Revokes multiple attestations"},"multiRevokeBySig((bytes32,(bytes32,uint256)[])[],string,address,uint256,uint256,uint8,bytes32,bytes32)":{"notice":" Performs multi revoke by sig"},"multiSequentialAttest((bytes32,(bytes32,(address,uint64,bool,bytes32,bytes,uint256)[]),uint256)[])":{"notice":" Performs a multi attest with relations between attestations and assess for attesation permissions based on the parent attestation. If refUID is set in any attestation it will be ignored."}},"version":1}}}}