{
  "address": "0xbb958805bFFF4D1a07e8d9f871622fBf318F6A5F",
  "abi": [
    {
      "inputs": [],
      "stateMutability": "nonpayable",
      "type": "constructor"
    },
    {
      "inputs": [],
      "name": "IncorrectETHAmount",
      "type": "error"
    },
    {
      "inputs": [],
      "name": "InvalidProjectAddress",
      "type": "error"
    },
    {
      "inputs": [],
      "name": "InvalidTokenAmount",
      "type": "error"
    },
    {
      "inputs": [],
      "name": "NoDonationsProvided",
      "type": "error"
    },
    {
      "inputs": [],
      "name": "TooManyProjects",
      "type": "error"
    },
    {
      "anonymous": false,
      "inputs": [
        {
          "indexed": false,
          "internalType": "address",
          "name": "previousAdmin",
          "type": "address"
        },
        {
          "indexed": false,
          "internalType": "address",
          "name": "newAdmin",
          "type": "address"
        }
      ],
      "name": "AdminChanged",
      "type": "event"
    },
    {
      "anonymous": false,
      "inputs": [
        {
          "indexed": true,
          "internalType": "address",
          "name": "donor",
          "type": "address"
        },
        {
          "indexed": false,
          "internalType": "uint256",
          "name": "projectCount",
          "type": "uint256"
        },
        {
          "indexed": false,
          "internalType": "uint256",
          "name": "totalETH",
          "type": "uint256"
        },
        {
          "indexed": false,
          "internalType": "uint256",
          "name": "totalTokenTransfers",
          "type": "uint256"
        }
      ],
      "name": "BatchDonationCompleted",
      "type": "event"
    },
    {
      "anonymous": false,
      "inputs": [
        {
          "indexed": true,
          "internalType": "address",
          "name": "beacon",
          "type": "address"
        }
      ],
      "name": "BeaconUpgraded",
      "type": "event"
    },
    {
      "anonymous": false,
      "inputs": [
        {
          "indexed": true,
          "internalType": "address",
          "name": "donor",
          "type": "address"
        },
        {
          "indexed": true,
          "internalType": "address",
          "name": "project",
          "type": "address"
        },
        {
          "indexed": true,
          "internalType": "address",
          "name": "token",
          "type": "address"
        },
        {
          "indexed": false,
          "internalType": "uint256",
          "name": "amount",
          "type": "uint256"
        }
      ],
      "name": "DonationMade",
      "type": "event"
    },
    {
      "anonymous": false,
      "inputs": [
        {
          "indexed": false,
          "internalType": "uint8",
          "name": "version",
          "type": "uint8"
        }
      ],
      "name": "Initialized",
      "type": "event"
    },
    {
      "anonymous": false,
      "inputs": [
        {
          "indexed": true,
          "internalType": "address",
          "name": "previousOwner",
          "type": "address"
        },
        {
          "indexed": true,
          "internalType": "address",
          "name": "newOwner",
          "type": "address"
        }
      ],
      "name": "OwnershipTransferred",
      "type": "event"
    },
    {
      "anonymous": false,
      "inputs": [
        {
          "indexed": true,
          "internalType": "address",
          "name": "implementation",
          "type": "address"
        }
      ],
      "name": "Upgraded",
      "type": "event"
    },
    {
      "inputs": [],
      "name": "MAX_PROJECTS_PER_BATCH",
      "outputs": [
        {
          "internalType": "uint256",
          "name": "",
          "type": "uint256"
        }
      ],
      "stateMutability": "view",
      "type": "function"
    },
    {
      "inputs": [],
      "name": "PERMIT2",
      "outputs": [
        {
          "internalType": "contract IPermit2",
          "name": "",
          "type": "address"
        }
      ],
      "stateMutability": "view",
      "type": "function"
    },
    {
      "inputs": [
        {
          "components": [
            {
              "internalType": "address",
              "name": "project",
              "type": "address"
            },
            {
              "internalType": "uint256",
              "name": "ethAmount",
              "type": "uint256"
            },
            {
              "internalType": "address",
              "name": "token",
              "type": "address"
            },
            {
              "internalType": "uint256",
              "name": "tokenAmount",
              "type": "uint256"
            }
          ],
          "internalType": "struct BatchDonations.ProjectDonation[]",
          "name": "donations",
          "type": "tuple[]"
        }
      ],
      "name": "batchDonate",
      "outputs": [],
      "stateMutability": "payable",
      "type": "function"
    },
    {
      "inputs": [
        {
          "components": [
            {
              "internalType": "address",
              "name": "project",
              "type": "address"
            },
            {
              "internalType": "uint256",
              "name": "ethAmount",
              "type": "uint256"
            },
            {
              "internalType": "address",
              "name": "token",
              "type": "address"
            },
            {
              "internalType": "uint256",
              "name": "tokenAmount",
              "type": "uint256"
            }
          ],
          "internalType": "struct BatchDonations.ProjectDonation[]",
          "name": "donations",
          "type": "tuple[]"
        },
        {
          "components": [
            {
              "components": [
                {
                  "internalType": "address",
                  "name": "token",
                  "type": "address"
                },
                {
                  "internalType": "uint256",
                  "name": "amount",
                  "type": "uint256"
                }
              ],
              "internalType": "struct IPermit2.TokenPermissions[]",
              "name": "permitted",
              "type": "tuple[]"
            },
            {
              "internalType": "uint256",
              "name": "nonce",
              "type": "uint256"
            },
            {
              "internalType": "uint256",
              "name": "deadline",
              "type": "uint256"
            }
          ],
          "internalType": "struct IPermit2.PermitBatchTransferFrom",
          "name": "permit",
          "type": "tuple"
        },
        {
          "internalType": "bytes",
          "name": "signature",
          "type": "bytes"
        }
      ],
      "name": "batchDonateWithPermit",
      "outputs": [],
      "stateMutability": "payable",
      "type": "function"
    },
    {
      "inputs": [],
      "name": "initialize",
      "outputs": [],
      "stateMutability": "nonpayable",
      "type": "function"
    },
    {
      "inputs": [],
      "name": "owner",
      "outputs": [
        {
          "internalType": "address",
          "name": "",
          "type": "address"
        }
      ],
      "stateMutability": "view",
      "type": "function"
    },
    {
      "inputs": [],
      "name": "proxiableUUID",
      "outputs": [
        {
          "internalType": "bytes32",
          "name": "",
          "type": "bytes32"
        }
      ],
      "stateMutability": "view",
      "type": "function"
    },
    {
      "inputs": [],
      "name": "renounceOwnership",
      "outputs": [],
      "stateMutability": "nonpayable",
      "type": "function"
    },
    {
      "inputs": [
        {
          "internalType": "address",
          "name": "newOwner",
          "type": "address"
        }
      ],
      "name": "transferOwnership",
      "outputs": [],
      "stateMutability": "nonpayable",
      "type": "function"
    },
    {
      "inputs": [
        {
          "internalType": "address",
          "name": "newImplementation",
          "type": "address"
        }
      ],
      "name": "upgradeTo",
      "outputs": [],
      "stateMutability": "nonpayable",
      "type": "function"
    },
    {
      "inputs": [
        {
          "internalType": "address",
          "name": "newImplementation",
          "type": "address"
        },
        {
          "internalType": "bytes",
          "name": "data",
          "type": "bytes"
        }
      ],
      "name": "upgradeToAndCall",
      "outputs": [],
      "stateMutability": "payable",
      "type": "function"
    }
  ],
  "transactionHash": "0x61754c88b1555dedd26d463b1d9020ffc125c29fb7eac6c5a54a1fee75fd25e2",
  "args": [],
  "numDeployments": 1,
  "solcInputHash": "949a30ba18978aee5edb94f3df26e8eb",
  "bytecode": "0x60a06040523060805234801561001457600080fd5b5061001d610022565b6100e1565b600054610100900460ff161561008e5760405162461bcd60e51b815260206004820152602760248201527f496e697469616c697a61626c653a20636f6e747261637420697320696e697469604482015266616c697a696e6760c81b606482015260840160405180910390fd5b60005460ff908116146100df576000805460ff191660ff9081179091556040519081527f7f26b83ff96e1f2b6a682f133852f6798a09c465da95921460cefb38474024989060200160405180910390a15b565b608051611ce861011860003960008181610206015281816102900152818161040c0152818161049101526105770152611ce86000f3fe6080604052600436106100bc5760003560e01c8063715018a6116100745780638da5cb5b1161004e5780638da5cb5b146101ab578063d9b40261146101c9578063f2fde38b146101dc57600080fd5b8063715018a61461016c57806373d602b9146101815780638129fc1c1461019657600080fd5b80634f1ef286116100a55780634f1ef286146100f657806352d1902d146101095780636afdd8501461013157600080fd5b80633659cfe6146100c15780633f40663d146100e3575b600080fd5b3480156100cd57600080fd5b506100e16100dc3660046116d4565b6101fc565b005b6100e16100f136600461173b565b61037c565b6100e1610104366004611810565b610402565b34801561011557600080fd5b5061011e61056a565b6040519081526020015b60405180910390f35b34801561013d57600080fd5b506101546e22d473030f116ddee9f6b43ac78ba381565b6040516001600160a01b039091168152602001610128565b34801561017857600080fd5b506100e161062f565b34801561018d57600080fd5b5061011e603281565b3480156101a257600080fd5b506100e1610643565b3480156101b757600080fd5b506065546001600160a01b0316610154565b6100e16101d73660046118f8565b610772565b3480156101e857600080fd5b506100e16101f73660046116d4565b6108a0565b6001600160a01b037f000000000000000000000000000000000000000000000000000000000000000016300361028e5760405162461bcd60e51b815260206004820152602c60248201527f46756e6374696f6e206d7573742062652063616c6c6564207468726f7567682060448201526b19195b1959d85d1958d85b1b60a21b60648201526084015b60405180910390fd5b7f00000000000000000000000000000000000000000000000000000000000000006001600160a01b03166102e97f360894a13ba1a3210667c828492db98dca3e2076cc3735a920a3ca505d382bbc546001600160a01b031690565b6001600160a01b0316146103545760405162461bcd60e51b815260206004820152602c60248201527f46756e6374696f6e206d7573742062652063616c6c6564207468726f7567682060448201526b6163746976652070726f787960a01b6064820152608401610285565b61035d8161092d565b6040805160008082526020820190925261037991839190610935565b50565b610384610ada565b60006103908383610b33565b90506103a183838360000151610cd2565b6103ab8383610dc2565b8051602080830151604080518681529283019390935281830152905133917f3c97b5a26170ba3ddce02a06720eb652439874fbf973ac656d2aa82b66b7a912919081900360600190a2506103fe60018055565b5050565b6001600160a01b037f000000000000000000000000000000000000000000000000000000000000000016300361048f5760405162461bcd60e51b815260206004820152602c60248201527f46756e6374696f6e206d7573742062652063616c6c6564207468726f7567682060448201526b19195b1959d85d1958d85b1b60a21b6064820152608401610285565b7f00000000000000000000000000000000000000000000000000000000000000006001600160a01b03166104ea7f360894a13ba1a3210667c828492db98dca3e2076cc3735a920a3ca505d382bbc546001600160a01b031690565b6001600160a01b0316146105555760405162461bcd60e51b815260206004820152602c60248201527f46756e6374696f6e206d7573742062652063616c6c6564207468726f7567682060448201526b6163746976652070726f787960a01b6064820152608401610285565b61055e8261092d565b6103fe82826001610935565b6000306001600160a01b037f0000000000000000000000000000000000000000000000000000000000000000161461060a5760405162461bcd60e51b815260206004820152603860248201527f555550535570677261646561626c653a206d757374206e6f742062652063616c60448201527f6c6564207468726f7567682064656c656761746563616c6c00000000000000006064820152608401610285565b507f360894a13ba1a3210667c828492db98dca3e2076cc3735a920a3ca505d382bbc90565b610637610ec3565b6106416000610f1d565b565b600054610100900460ff16158080156106635750600054600160ff909116105b8061067d5750303b15801561067d575060005460ff166001145b6106ef5760405162461bcd60e51b815260206004820152602e60248201527f496e697469616c697a61626c653a20636f6e747261637420697320616c72656160448201527f647920696e697469616c697a65640000000000000000000000000000000000006064820152608401610285565b6000805460ff191660011790558015610712576000805461ff0019166101001790555b61071a610f7c565b610722610fef565b61072a611062565b8015610379576000805461ff0019169055604051600181527f7f26b83ff96e1f2b6a682f133852f6798a09c465da95921460cefb38474024989060200160405180910390a150565b61077a610ada565b60006107868686610b33565b905061079786868360000151610cd2565b6020810151156108465760006107b2878784602001516110cd565b6040517fedd9444b0000000000000000000000000000000000000000000000000000000081529091506e22d473030f116ddee9f6b43ac78ba39063edd9444b90610808908890859033908a908a90600401611ae4565b600060405180830381600087803b15801561082257600080fd5b505af1158015610836573d6000803e3d6000fd5b5050505061084487876111e4565b505b8051602080830151604080518981529283019390935281830152905133917f3c97b5a26170ba3ddce02a06720eb652439874fbf973ac656d2aa82b66b7a912919081900360600190a25061089960018055565b5050505050565b6108a8610ec3565b6001600160a01b0381166109245760405162461bcd60e51b815260206004820152602660248201527f4f776e61626c653a206e6577206f776e657220697320746865207a65726f206160448201527f64647265737300000000000000000000000000000000000000000000000000006064820152608401610285565b61037981610f1d565b610379610ec3565b7f4910fdfa16fed3260ed0e7147f7cc6da11a60208b5b9406d12a635614ffd91435460ff161561096d57610968836112ae565b505050565b826001600160a01b03166352d1902d6040518163ffffffff1660e01b8152600401602060405180830381865afa9250505080156109c7575060408051601f3d908101601f191682019092526109c491810190611ba7565b60015b610a395760405162461bcd60e51b815260206004820152602e60248201527f45524331393637557067726164653a206e657720696d706c656d656e7461746960448201527f6f6e206973206e6f7420555550530000000000000000000000000000000000006064820152608401610285565b7f360894a13ba1a3210667c828492db98dca3e2076cc3735a920a3ca505d382bbc8114610ace5760405162461bcd60e51b815260206004820152602960248201527f45524331393637557067726164653a20756e737570706f727465642070726f7860448201527f6961626c655555494400000000000000000000000000000000000000000000006064820152608401610285565b50610968838383611379565b600260015403610b2c5760405162461bcd60e51b815260206004820152601f60248201527f5265656e7472616e637947756172643a207265656e7472616e742063616c6c006044820152606401610285565b6002600155565b6040805180820190915260008082526020820152816000819003610b83576040517ffe2cce1000000000000000000000000000000000000000000000000000000000815260040160405180910390fd5b6032811115610bbe576040517fc41fffb300000000000000000000000000000000000000000000000000000000815260040160405180910390fd5b60005b81811015610cca5736858583818110610bdc57610bdc611bc0565b60800291909101915060009050610bf660208301836116d4565b6001600160a01b031603610c36576040517fddc73e3900000000000000000000000000000000000000000000000000000000815260040160405180910390fd5b6000610c4860608301604084016116d4565b6001600160a01b031614610ca8578060600135600003610c94576040517f2160733900000000000000000000000000000000000000000000000000000000815260040160405180910390fd5b60208401805190610ca482611bec565b9052505b806020013584600001818151610cbe9190611c05565b90525050600101610bc1565b505092915050565b803414610d0b576040517f201c04ab00000000000000000000000000000000000000000000000000000000815260040160405180910390fd5b8160005b818110156108995736858583818110610d2a57610d2a611bc0565b9050608002019050600081602001351115610db957610d59610d4f60208301836116d4565b826020013561139e565b6000610d6860208301836116d4565b6001600160a01b0316336001600160a01b03167f02758b67ed0518afe893a9d8b6595650bcf4693ff6d1aa2d8fe83d54ac005a508460200135604051610db091815260200190565b60405180910390a45b50600101610d0f565b8060005b81811015610eb75736848483818110610de157610de1611bc0565b60800291909101915060009050610dfe60608301604084016116d4565b6001600160a01b031614610eae57610e37610e1f60608301604084016116d4565b33610e2d60208501856116d4565b84606001356113e1565b610e4760608201604083016116d4565b6001600160a01b0316610e5d60208301836116d4565b6001600160a01b0316336001600160a01b03167f02758b67ed0518afe893a9d8b6595650bcf4693ff6d1aa2d8fe83d54ac005a508460600135604051610ea591815260200190565b60405180910390a45b50600101610dc6565b50505050565b60018055565b6065546001600160a01b031633146106415760405162461bcd60e51b815260206004820181905260248201527f4f776e61626c653a2063616c6c6572206973206e6f7420746865206f776e65726044820152606401610285565b606580546001600160a01b0383811673ffffffffffffffffffffffffffffffffffffffff19831681179093556040519116919082907f8be0079c531659141344cd1fd0a4f28419497f9722a3daafe3b4186f6b6457e090600090a35050565b600054610100900460ff16610fe75760405162461bcd60e51b815260206004820152602b60248201527f496e697469616c697a61626c653a20636f6e7472616374206973206e6f74206960448201526a6e697469616c697a696e6760a81b6064820152608401610285565b610641611448565b600054610100900460ff1661105a5760405162461bcd60e51b815260206004820152602b60248201527f496e697469616c697a61626c653a20636f6e7472616374206973206e6f74206960448201526a6e697469616c697a696e6760a81b6064820152608401610285565b6106416114b3565b600054610100900460ff166106415760405162461bcd60e51b815260206004820152602b60248201527f496e697469616c697a61626c653a20636f6e7472616374206973206e6f74206960448201526a6e697469616c697a696e6760a81b6064820152608401610285565b606060008267ffffffffffffffff8111156110ea576110ea61177d565b60405190808252806020026020018201604052801561112f57816020015b60408051808201909152600080825260208201528152602001906001900390816111085790505b509050600084815b818110156111d8573688888381811061115257611152611bc0565b6080029190910191506000905061116f60608301604084016116d4565b6001600160a01b0316146111cf57604080518082019091528061119560208401846116d4565b6001600160a01b0316815260200182606001358152508585815181106111bd576111bd611bc0565b60200260200101819052508360010193505b50600101611137565b50919695505050505050565b8060005b81811015610eb7573684848381811061120357611203611bc0565b6080029190910191506000905061122060608301604084016116d4565b6001600160a01b0316146112a55761123e60608201604083016116d4565b6001600160a01b031661125460208301836116d4565b6001600160a01b0316336001600160a01b03167f02758b67ed0518afe893a9d8b6595650bcf4693ff6d1aa2d8fe83d54ac005a50846060013560405161129c91815260200190565b60405180910390a45b506001016111e8565b6001600160a01b0381163b61132b5760405162461bcd60e51b815260206004820152602d60248201527f455243313936373a206e657720696d706c656d656e746174696f6e206973206e60448201527f6f74206120636f6e7472616374000000000000000000000000000000000000006064820152608401610285565b7f360894a13ba1a3210667c828492db98dca3e2076cc3735a920a3ca505d382bbc805473ffffffffffffffffffffffffffffffffffffffff19166001600160a01b0392909216919091179055565b61138283611527565b60008251118061138f5750805b1561096857610eb78383611567565b804710156113b45763b12d13eb6000526004601cfd5b6000386000388486620186a0f16103fe57816000526073600b5360ff6020536016600b82f06103fe573838fd5b60405181606052826040528360601b602c526f23b872dd000000000000000000000000600c52602060006064601c6000895af1806001600051141661143957803d873b15171061143957637939f4246000526004601cfd5b50600060605260405250505050565b600054610100900460ff16610ebd5760405162461bcd60e51b815260206004820152602b60248201527f496e697469616c697a61626c653a20636f6e7472616374206973206e6f74206960448201526a6e697469616c697a696e6760a81b6064820152608401610285565b600054610100900460ff1661151e5760405162461bcd60e51b815260206004820152602b60248201527f496e697469616c697a61626c653a20636f6e7472616374206973206e6f74206960448201526a6e697469616c697a696e6760a81b6064820152608401610285565b61064133610f1d565b611530816112ae565b6040516001600160a01b038216907fbc7cd75a20ee27fd9adebab32041f755214dbc6bffa90cc0225b39da2e5c2d3b90600090a250565b606061158c8383604051806060016040528060278152602001611c8c60279139611595565b90505b92915050565b6060600080856001600160a01b0316856040516115b29190611c3c565b600060405180830381855af49150503d80600081146115ed576040519150601f19603f3d011682016040523d82523d6000602084013e6115f2565b606091505b50915091506116038683838761160d565b9695505050505050565b6060831561167c578251600003611675576001600160a01b0385163b6116755760405162461bcd60e51b815260206004820152601d60248201527f416464726573733a2063616c6c20746f206e6f6e2d636f6e74726163740000006044820152606401610285565b5081611686565b611686838361168e565b949350505050565b81511561169e5781518083602001fd5b8060405162461bcd60e51b81526004016102859190611c58565b80356001600160a01b03811681146116cf57600080fd5b919050565b6000602082840312156116e657600080fd5b61158c826116b8565b60008083601f84011261170157600080fd5b50813567ffffffffffffffff81111561171957600080fd5b6020830191508360208260071b850101111561173457600080fd5b9250929050565b6000806020838503121561174e57600080fd5b823567ffffffffffffffff81111561176557600080fd5b611771858286016116ef565b90969095509350505050565b634e487b7160e01b600052604160045260246000fd5b6040516060810167ffffffffffffffff811182821017156117b6576117b661177d565b60405290565b6040805190810167ffffffffffffffff811182821017156117b6576117b661177d565b604051601f8201601f1916810167ffffffffffffffff811182821017156118085761180861177d565b604052919050565b6000806040838503121561182357600080fd5b61182c836116b8565b915060208084013567ffffffffffffffff8082111561184a57600080fd5b818601915086601f83011261185e57600080fd5b8135818111156118705761187061177d565b611882601f8201601f191685016117df565b9150808252878482850101111561189857600080fd5b80848401858401376000848284010152508093505050509250929050565b60008083601f8401126118c857600080fd5b50813567ffffffffffffffff8111156118e057600080fd5b60208301915083602082850101111561173457600080fd5b60008060008060006060868803121561191057600080fd5b67ffffffffffffffff808735111561192757600080fd5b61193488883589016116ef565b909650945060208701358181111561194b57600080fd5b87016060818a03121561195d57600080fd5b611965611793565b828235111561197357600080fd5b813582018a601f82011261198657600080fd5b8035848111156119985761199861177d565b6119a760208260051b016117df565b8082825260208201915060208360061b85010192508d8311156119c957600080fd5b6020840193505b82841015611a1a576040848f0312156119e857600080fd5b6119f06117bc565b6119f9856116b8565b815260208501356020820152808352506020820191506040840193506119d0565b84525050506020828101359082015260409182013582820152945087013581811115611a4557600080fd5b611a5189828a016118b6565b979a9699509497509395949350505050565b600081518084526020808501945080840160005b83811015611ab057611a9d87835180516001600160a01b03168252602090810151910152565b6040969096019590820190600101611a77565b509495945050505050565b81835281816020850137506000828201602090810191909152601f909101601f19169091010190565b60808152600060e082018751606060808501528181518084526101008601915060209350838301925060005b81811015611b4957611b3683855180516001600160a01b03168252602090810151910152565b9284019260409290920191600101611b10565b5050828a015160a086015260408a015160c086015284810383860152611b6f818a611a63565b92505050611b8860408401876001600160a01b03169052565b8281036060840152611b9b818587611abb565b98975050505050505050565b600060208284031215611bb957600080fd5b5051919050565b634e487b7160e01b600052603260045260246000fd5b634e487b7160e01b600052601160045260246000fd5b600060018201611bfe57611bfe611bd6565b5060010190565b8082018082111561158f5761158f611bd6565b60005b83811015611c33578181015183820152602001611c1b565b50506000910152565b60008251611c4e818460208701611c18565b9190910192915050565b6020815260008251806020840152611c77816040850160208701611c18565b601f01601f1916919091016040019291505056fe416464726573733a206c6f772d6c6576656c2064656c65676174652063616c6c206661696c6564a2646970667358221220472a39bbec4fde02a057758989168d5200d03aab7ab9cb31bdf0ec9fc77550ca64736f6c63430008130033",
  "devdoc": {
    "events": {
      "AdminChanged(address,address)": {
        "details": "Emitted when the admin account has changed."
      },
      "BeaconUpgraded(address)": {
        "details": "Emitted when the beacon is changed."
      },
      "Initialized(uint8)": {
        "details": "Triggered when the contract has been initialized or reinitialized."
      },
      "Upgraded(address)": {
        "details": "Emitted when the implementation is upgraded."
      }
    },
    "kind": "dev",
    "methods": {
      "constructor": {
        "custom:oz-upgrades-unsafe-allow": "constructor"
      },
      "owner()": {
        "details": "Returns the address of the current owner."
      },
      "proxiableUUID()": {
        "details": "Implementation of the ERC1822 {proxiableUUID} function. This returns the storage slot used by the implementation. It is used to validate the implementation's compatibility when performing an upgrade. IMPORTANT: A proxy pointing at a proxiable contract should not be considered proxiable itself, because this risks bricking a proxy that upgrades to it, by delegating to itself until out of gas. Thus it is critical that this function revert if invoked through a proxy. This is guaranteed by the `notDelegated` modifier."
      },
      "renounceOwnership()": {
        "details": "Leaves the contract without owner. It will not be possible to call `onlyOwner` functions. Can only be called by the current owner. NOTE: Renouncing ownership will leave the contract without an owner, thereby disabling any functionality that is only available to the owner."
      },
      "transferOwnership(address)": {
        "details": "Transfers ownership of the contract to a new account (`newOwner`). Can only be called by the current owner."
      },
      "upgradeTo(address)": {
        "custom:oz-upgrades-unsafe-allow-reachable": "delegatecall",
        "details": "Upgrade the implementation of the proxy to `newImplementation`. Calls {_authorizeUpgrade}. Emits an {Upgraded} event."
      },
      "upgradeToAndCall(address,bytes)": {
        "custom:oz-upgrades-unsafe-allow-reachable": "delegatecall",
        "details": "Upgrade the implementation of the proxy to `newImplementation`, and subsequently execute the function call encoded in `data`. Calls {_authorizeUpgrade}. Emits an {Upgraded} event."
      }
    },
    "version": 1
  },
  "userdoc": {
    "kind": "user",
    "methods": {},
    "version": 1
  },
  "storageLayout": {
    "storage": [
      {
        "astId": 503,
        "contract": "contracts/BatchDonations.sol:BatchDonations",
        "label": "_initialized",
        "offset": 0,
        "slot": "0",
        "type": "t_uint8"
      },
      {
        "astId": 506,
        "contract": "contracts/BatchDonations.sol:BatchDonations",
        "label": "_initializing",
        "offset": 1,
        "slot": "0",
        "type": "t_bool"
      },
      {
        "astId": 815,
        "contract": "contracts/BatchDonations.sol:BatchDonations",
        "label": "_status",
        "offset": 0,
        "slot": "1",
        "type": "t_uint256"
      },
      {
        "astId": 884,
        "contract": "contracts/BatchDonations.sol:BatchDonations",
        "label": "__gap",
        "offset": 0,
        "slot": "2",
        "type": "t_array(t_uint256)49_storage"
      },
      {
        "astId": 1256,
        "contract": "contracts/BatchDonations.sol:BatchDonations",
        "label": "__gap",
        "offset": 0,
        "slot": "51",
        "type": "t_array(t_uint256)50_storage"
      },
      {
        "astId": 10,
        "contract": "contracts/BatchDonations.sol:BatchDonations",
        "label": "_owner",
        "offset": 0,
        "slot": "101",
        "type": "t_address"
      },
      {
        "astId": 130,
        "contract": "contracts/BatchDonations.sol:BatchDonations",
        "label": "__gap",
        "offset": 0,
        "slot": "102",
        "type": "t_array(t_uint256)49_storage"
      },
      {
        "astId": 485,
        "contract": "contracts/BatchDonations.sol:BatchDonations",
        "label": "__gap",
        "offset": 0,
        "slot": "151",
        "type": "t_array(t_uint256)50_storage"
      },
      {
        "astId": 800,
        "contract": "contracts/BatchDonations.sol:BatchDonations",
        "label": "__gap",
        "offset": 0,
        "slot": "201",
        "type": "t_array(t_uint256)50_storage"
      }
    ],
    "types": {
      "t_address": {
        "encoding": "inplace",
        "label": "address",
        "numberOfBytes": "20"
      },
      "t_array(t_uint256)49_storage": {
        "base": "t_uint256",
        "encoding": "inplace",
        "label": "uint256[49]",
        "numberOfBytes": "1568"
      },
      "t_array(t_uint256)50_storage": {
        "base": "t_uint256",
        "encoding": "inplace",
        "label": "uint256[50]",
        "numberOfBytes": "1600"
      },
      "t_bool": {
        "encoding": "inplace",
        "label": "bool",
        "numberOfBytes": "1"
      },
      "t_uint256": {
        "encoding": "inplace",
        "label": "uint256",
        "numberOfBytes": "32"
      },
      "t_uint8": {
        "encoding": "inplace",
        "label": "uint8",
        "numberOfBytes": "1"
      }
    }
  }
}