{
  "address": "0xE194146a365f1B70e91D4FC7819fdf8C517a7dA8",
  "abi": [
    {
      "inputs": [
        {
          "internalType": "string",
          "name": "schema",
          "type": "string"
        }
      ],
      "name": "_getUID",
      "outputs": [
        {
          "internalType": "bytes32",
          "name": "",
          "type": "bytes32"
        }
      ],
      "stateMutability": "pure",
      "type": "function"
    }
  ],
  "transactionHash": "0x0146956015001765d3d17a7451c230976135910b512b1ac2c76ac74d0a6c2b90",
  "args": [],
  "numDeployments": 1,
  "solcInputHash": "b04443874aba9099bfac9c9dbafae225",
  "bytecode": "0x608060405234801561001057600080fd5b50610195806100206000396000f3fe608060405234801561001057600080fd5b506004361061002b5760003560e01c80637599829314610030575b600080fd5b61004361003e36600461008b565b610055565b60405190815260200160405180910390f35b60008282600160405160200161006d939291906100fd565b60405160208183030381529060405280519060200120905092915050565b6000806020838503121561009e57600080fd5b823567ffffffffffffffff808211156100b657600080fd5b818501915085601f8301126100ca57600080fd5b8135818111156100d957600080fd5b8660208285010111156100eb57600080fd5b60209290920196919550909350505050565b828482377f307845363764443536333838644535383239413842434141303536394131303992019182527f41416144416335366562000000000000000000000000000000000000000000006020830152151560f81b602a820152602b0191905056fea2646970667358221220e6aee29dbcfc09f7664b69b9b407203c81efc96bfd781a09a6b9cc5025e7ced864736f6c63430008130033",
  "devdoc": {
    "kind": "dev",
    "methods": {},
    "version": 1
  },
  "userdoc": {
    "kind": "user",
    "methods": {},
    "version": 1
  },
  "storageLayout": {
    "storage": [],
    "types": null
  }
}