{
  "_format": "hh-sol-artifact-1",
  "contractName": "ReferrerResolver",
  "sourceName": "contracts/ReferrerResolver.sol",
  "abi": [
    {
      "inputs": [
        {
          "internalType": "contract IEAS",
          "name": "eas",
          "type": "address"
        }
      ],
      "stateMutability": "nonpayable",
      "type": "constructor"
    },
    {
      "inputs": [],
      "name": "AccessDenied",
      "type": "error"
    },
    {
      "inputs": [],
      "name": "InsufficientValue",
      "type": "error"
    },
    {
      "inputs": [],
      "name": "InvalidEAS",
      "type": "error"
    },
    {
      "inputs": [],
      "name": "NotPayable",
      "type": "error"
    },
    {
      "anonymous": false,
      "inputs": [
        {
          "indexed": false,
          "internalType": "uint8",
          "name": "version",
          "type": "uint8"
        }
      ],
      "name": "Initialized",
      "type": "event"
    },
    {
      "anonymous": false,
      "inputs": [
        {
          "indexed": true,
          "internalType": "address",
          "name": "previousOwner",
          "type": "address"
        },
        {
          "indexed": true,
          "internalType": "address",
          "name": "newOwner",
          "type": "address"
        }
      ],
      "name": "OwnershipTransferred",
      "type": "event"
    },
    {
      "inputs": [
        {
          "components": [
            {
              "internalType": "bytes32",
              "name": "uid",
              "type": "bytes32"
            },
            {
              "internalType": "bytes32",
              "name": "schema",
              "type": "bytes32"
            },
            {
              "internalType": "uint64",
              "name": "time",
              "type": "uint64"
            },
            {
              "internalType": "uint64",
              "name": "expirationTime",
              "type": "uint64"
            },
            {
              "internalType": "uint64",
              "name": "revocationTime",
              "type": "uint64"
            },
            {
              "internalType": "bytes32",
              "name": "refUID",
              "type": "bytes32"
            },
            {
              "internalType": "address",
              "name": "recipient",
              "type": "address"
            },
            {
              "internalType": "address",
              "name": "attester",
              "type": "address"
            },
            {
              "internalType": "bool",
              "name": "revocable",
              "type": "bool"
            },
            {
              "internalType": "bytes",
              "name": "data",
              "type": "bytes"
            }
          ],
          "internalType": "struct Attestation",
          "name": "attestation",
          "type": "tuple"
        }
      ],
      "name": "attest",
      "outputs": [
        {
          "internalType": "bool",
          "name": "",
          "type": "bool"
        }
      ],
      "stateMutability": "payable",
      "type": "function"
    },
    {
      "inputs": [],
      "name": "initialize",
      "outputs": [],
      "stateMutability": "nonpayable",
      "type": "function"
    },
    {
      "inputs": [],
      "name": "isPayable",
      "outputs": [
        {
          "internalType": "bool",
          "name": "",
          "type": "bool"
        }
      ],
      "stateMutability": "pure",
      "type": "function"
    },
    {
      "inputs": [
        {
          "components": [
            {
              "internalType": "bytes32",
              "name": "uid",
              "type": "bytes32"
            },
            {
              "internalType": "bytes32",
              "name": "schema",
              "type": "bytes32"
            },
            {
              "internalType": "uint64",
              "name": "time",
              "type": "uint64"
            },
            {
              "internalType": "uint64",
              "name": "expirationTime",
              "type": "uint64"
            },
            {
              "internalType": "uint64",
              "name": "revocationTime",
              "type": "uint64"
            },
            {
              "internalType": "bytes32",
              "name": "refUID",
              "type": "bytes32"
            },
            {
              "internalType": "address",
              "name": "recipient",
              "type": "address"
            },
            {
              "internalType": "address",
              "name": "attester",
              "type": "address"
            },
            {
              "internalType": "bool",
              "name": "revocable",
              "type": "bool"
            },
            {
              "internalType": "bytes",
              "name": "data",
              "type": "bytes"
            }
          ],
          "internalType": "struct Attestation[]",
          "name": "attestations",
          "type": "tuple[]"
        },
        {
          "internalType": "uint256[]",
          "name": "values",
          "type": "uint256[]"
        }
      ],
      "name": "multiAttest",
      "outputs": [
        {
          "internalType": "bool",
          "name": "",
          "type": "bool"
        }
      ],
      "stateMutability": "payable",
      "type": "function"
    },
    {
      "inputs": [
        {
          "components": [
            {
              "internalType": "bytes32",
              "name": "uid",
              "type": "bytes32"
            },
            {
              "internalType": "bytes32",
              "name": "schema",
              "type": "bytes32"
            },
            {
              "internalType": "uint64",
              "name": "time",
              "type": "uint64"
            },
            {
              "internalType": "uint64",
              "name": "expirationTime",
              "type": "uint64"
            },
            {
              "internalType": "uint64",
              "name": "revocationTime",
              "type": "uint64"
            },
            {
              "internalType": "bytes32",
              "name": "refUID",
              "type": "bytes32"
            },
            {
              "internalType": "address",
              "name": "recipient",
              "type": "address"
            },
            {
              "internalType": "address",
              "name": "attester",
              "type": "address"
            },
            {
              "internalType": "bool",
              "name": "revocable",
              "type": "bool"
            },
            {
              "internalType": "bytes",
              "name": "data",
              "type": "bytes"
            }
          ],
          "internalType": "struct Attestation[]",
          "name": "attestations",
          "type": "tuple[]"
        },
        {
          "internalType": "uint256[]",
          "name": "values",
          "type": "uint256[]"
        }
      ],
      "name": "multiRevoke",
      "outputs": [
        {
          "internalType": "bool",
          "name": "",
          "type": "bool"
        }
      ],
      "stateMutability": "payable",
      "type": "function"
    },
    {
      "inputs": [],
      "name": "owner",
      "outputs": [
        {
          "internalType": "address",
          "name": "",
          "type": "address"
        }
      ],
      "stateMutability": "view",
      "type": "function"
    },
    {
      "inputs": [],
      "name": "renounceOwnership",
      "outputs": [],
      "stateMutability": "nonpayable",
      "type": "function"
    },
    {
      "inputs": [
        {
          "components": [
            {
              "internalType": "bytes32",
              "name": "uid",
              "type": "bytes32"
            },
            {
              "internalType": "bytes32",
              "name": "schema",
              "type": "bytes32"
            },
            {
              "internalType": "uint64",
              "name": "time",
              "type": "uint64"
            },
            {
              "internalType": "uint64",
              "name": "expirationTime",
              "type": "uint64"
            },
            {
              "internalType": "uint64",
              "name": "revocationTime",
              "type": "uint64"
            },
            {
              "internalType": "bytes32",
              "name": "refUID",
              "type": "bytes32"
            },
            {
              "internalType": "address",
              "name": "recipient",
              "type": "address"
            },
            {
              "internalType": "address",
              "name": "attester",
              "type": "address"
            },
            {
              "internalType": "bool",
              "name": "revocable",
              "type": "bool"
            },
            {
              "internalType": "bytes",
              "name": "data",
              "type": "bytes"
            }
          ],
          "internalType": "struct Attestation",
          "name": "attestation",
          "type": "tuple"
        }
      ],
      "name": "revoke",
      "outputs": [
        {
          "internalType": "bool",
          "name": "",
          "type": "bool"
        }
      ],
      "stateMutability": "payable",
      "type": "function"
    },
    {
      "inputs": [
        {
          "internalType": "address",
          "name": "newOwner",
          "type": "address"
        }
      ],
      "name": "transferOwnership",
      "outputs": [],
      "stateMutability": "nonpayable",
      "type": "function"
    },
    {
      "inputs": [],
      "name": "version",
      "outputs": [
        {
          "internalType": "string",
          "name": "",
          "type": "string"
        }
      ],
      "stateMutability": "view",
      "type": "function"
    },
    {
      "stateMutability": "payable",
      "type": "receive"
    }
  ],
  "bytecode": "0x61010060405234801561001157600080fd5b5060405161116f38038061116f83398101604081905261003091610140565b6001608052600060a081905260c052806001600160a01b038116610067576040516341bc07ff60e11b815260040160405180910390fd5b6001600160a01b031660e05261007b610081565b50610170565b600054610100900460ff16156100ed5760405162461bcd60e51b815260206004820152602760248201527f496e697469616c697a61626c653a20636f6e747261637420697320696e697469604482015266616c697a696e6760c81b606482015260840160405180910390fd5b60005460ff9081161461013e576000805460ff191660ff9081179091556040519081527f7f26b83ff96e1f2b6a682f133852f6798a09c465da95921460cefb38474024989060200160405180910390a15b565b60006020828403121561015257600080fd5b81516001600160a01b038116811461016957600080fd5b9392505050565b60805160a05160c05160e051610fbf6101b0600039600081816107d6015261086e0152600061025901526000610230015260006102070152610fbf6000f3fe6080604052600436106100b55760003560e01c806391db0b7e11610069578063e49617e11161004e578063e49617e1146101ba578063e60c3505146101cd578063f2fde38b146101e057600080fd5b806391db0b7e14610193578063ce46e046146101a657600080fd5b80638129fc1c1161009a5780638129fc1c1461013357806388e5b2d9146101485780638da5cb5b1461016b57600080fd5b806354fd4d50146100f3578063715018a61461011e57600080fd5b366100ee576040517f1574f9f300000000000000000000000000000000000000000000000000000000815260040160405180910390fd5b005b600080fd5b3480156100ff57600080fd5b50610108610200565b6040516101159190610b8a565b60405180910390f35b34801561012a57600080fd5b506100ec6102a3565b34801561013f57600080fd5b506100ec6102b7565b61015b610156366004610c09565b6103fb565b6040519015158152602001610115565b34801561017757600080fd5b506033546040516001600160a01b039091168152602001610115565b61015b6101a1366004610c09565b6104aa565b3480156101b257600080fd5b50600061015b565b61015b6101c8366004610c75565b610549565b61015b6101db366004610c75565b61055e565b3480156101ec57600080fd5b506100ec6101fb366004610ccd565b610572565b606061022b7f00000000000000000000000000000000000000000000000000000000000000006105ff565b6102547f00000000000000000000000000000000000000000000000000000000000000006105ff565b61027d7f00000000000000000000000000000000000000000000000000000000000000006105ff565b60405160200161028f93929190610cea565b604051602081830303815290604052905090565b6102ab61069f565b6102b560006106f9565b565b600054610100900460ff16158080156102d75750600054600160ff909116105b806102f15750303b1580156102f1575060005460ff166001145b6103685760405162461bcd60e51b815260206004820152602e60248201527f496e697469616c697a61626c653a20636f6e747261637420697320616c72656160448201527f647920696e697469616c697a656400000000000000000000000000000000000060648201526084015b60405180910390fd5b6000805460ff19166001179055801561038b576000805461ff0019166101001790555b6065805473ffffffffffffffffffffffffffffffffffffffff1916331790556103b2610758565b80156103f8576000805461ff0019169055604051600181527f7f26b83ff96e1f2b6a682f133852f6798a09c465da95921460cefb38474024989060200160405180910390a15b50565b60006104056107cb565b833460005b8281101561049a57600086868381811061042657610426610d60565b905060200201359050828111156104505760405163044044a560e21b815260040160405180910390fd5b61047d89898481811061046557610465610d60565b90506020028101906104779190610d76565b50600190565b61048e5760009450505050506104a2565b9091039060010161040a565b506001925050505b949350505050565b60006104b46107cb565b833460005b8281101561049a5760008686838181106104d5576104d5610d60565b905060200201359050828111156104ff5760405163044044a560e21b815260040160405180910390fd5b61052c89898481811061051457610514610d60565b90506020028101906105269190610d76565b8261082d565b61053d5760009450505050506104a2565b909103906001016104b9565b60006105536107cb565b60015b90505b919050565b60006105686107cb565b610556823461082d565b61057a61069f565b6001600160a01b0381166105f65760405162461bcd60e51b815260206004820152602660248201527f4f776e61626c653a206e6577206f776e657220697320746865207a65726f206160448201527f6464726573730000000000000000000000000000000000000000000000000000606482015260840161035f565b6103f8816106f9565b6060600061060c83610a0f565b600101905060008167ffffffffffffffff81111561062c5761062c610d97565b6040519080825280601f01601f191660200182016040528015610656576020820181803683370190505b5090508181016020015b600019017f3031323334353637383961626364656600000000000000000000000000000000600a86061a8153600a850494508461066057509392505050565b6033546001600160a01b031633146102b55760405162461bcd60e51b815260206004820181905260248201527f4f776e61626c653a2063616c6c6572206973206e6f7420746865206f776e6572604482015260640161035f565b603380546001600160a01b0383811673ffffffffffffffffffffffffffffffffffffffff19831681179093556040519116919082907f8be0079c531659141344cd1fd0a4f28419497f9722a3daafe3b4186f6b6457e090600090a35050565b600054610100900460ff166107c35760405162461bcd60e51b815260206004820152602b60248201527f496e697469616c697a61626c653a20636f6e7472616374206973206e6f74206960448201526a6e697469616c697a696e6760a81b606482015260840161035f565b6102b5610af2565b336001600160a01b037f000000000000000000000000000000000000000000000000000000000000000016146102b5576040517f4ca8886700000000000000000000000000000000000000000000000000000000815260040160405180910390fd5b600060a083013515610a06576040517fa3112a6400000000000000000000000000000000000000000000000000000000815260a084013560048201526000907f00000000000000000000000000000000000000000000000000000000000000006001600160a01b03169063a3112a6490602401600060405180830381865afa1580156108bd573d6000803e3d6000fd5b505050506040513d6000823e601f3d908101601f191682016040526108e59190810190610e92565b80519091506109365760405162461bcd60e51b815260206004820152601f60248201527f5265666572726564206174746573746174696f6e206e6f742076616c69642e00604482015260640161035f565b610947610100850160e08601610ccd565b6001600160a01b03168160e001516001600160a01b0316148061098f5750610976610100850160e08601610ccd565b6001600160a01b03168160c001516001600160a01b0316145b806109b857506109a6610100850160e08601610ccd565b6065546001600160a01b039081169116145b610a045760405162461bcd60e51b815260206004820152600960248201527f4e6f74206f776e65720000000000000000000000000000000000000000000000604482015260640161035f565b505b50600192915050565b6000807a184f03e93ff9f4daa797ed6e38ed64bf6a1f0100000000000000008310610a58577a184f03e93ff9f4daa797ed6e38ed64bf6a1f010000000000000000830492506040015b6d04ee2d6d415b85acef81000000008310610a84576d04ee2d6d415b85acef8100000000830492506020015b662386f26fc100008310610aa257662386f26fc10000830492506010015b6305f5e1008310610aba576305f5e100830492506008015b6127108310610ace57612710830492506004015b60648310610ae0576064830492506002015b600a8310610aec576001015b92915050565b600054610100900460ff16610b5d5760405162461bcd60e51b815260206004820152602b60248201527f496e697469616c697a61626c653a20636f6e7472616374206973206e6f74206960448201526a6e697469616c697a696e6760a81b606482015260840161035f565b6102b5336106f9565b60005b83811015610b81578181015183820152602001610b69565b50506000910152565b6020815260008251806020840152610ba9816040850160208701610b66565b601f01601f19169190910160400192915050565b60008083601f840112610bcf57600080fd5b50813567ffffffffffffffff811115610be757600080fd5b6020830191508360208260051b8501011115610c0257600080fd5b9250929050565b60008060008060408587031215610c1f57600080fd5b843567ffffffffffffffff80821115610c3757600080fd5b610c4388838901610bbd565b90965094506020870135915080821115610c5c57600080fd5b50610c6987828801610bbd565b95989497509550505050565b600060208284031215610c8757600080fd5b813567ffffffffffffffff811115610c9e57600080fd5b82016101408185031215610cb157600080fd5b9392505050565b6001600160a01b03811681146103f857600080fd5b600060208284031215610cdf57600080fd5b8135610cb181610cb8565b60008451610cfc818460208901610b66565b80830190507f2e000000000000000000000000000000000000000000000000000000000000008082528551610d38816001850160208a01610b66565b60019201918201528351610d53816002840160208801610b66565b0160020195945050505050565b634e487b7160e01b600052603260045260246000fd5b6000823561013e19833603018112610d8d57600080fd5b9190910192915050565b634e487b7160e01b600052604160045260246000fd5b604051610140810167ffffffffffffffff81118282101715610dd157610dd1610d97565b60405290565b805167ffffffffffffffff8116811461055957600080fd5b805161055981610cb8565b8051801515811461055957600080fd5b600082601f830112610e1b57600080fd5b815167ffffffffffffffff80821115610e3657610e36610d97565b604051601f8301601f19908116603f01168101908282118183101715610e5e57610e5e610d97565b81604052838152866020858801011115610e7757600080fd5b610e88846020830160208901610b66565b9695505050505050565b600060208284031215610ea457600080fd5b815167ffffffffffffffff80821115610ebc57600080fd5b908301906101408286031215610ed157600080fd5b610ed9610dad565b8251815260208301516020820152610ef360408401610dd7565b6040820152610f0460608401610dd7565b6060820152610f1560808401610dd7565b608082015260a083015160a0820152610f3060c08401610def565b60c0820152610f4160e08401610def565b60e0820152610100610f54818501610dfa565b908201526101208381015183811115610f6c57600080fd5b610f7888828701610e0a565b91830191909152509594505050505056fea2646970667358221220662f3fb7be6f33c6ed4cb8afb430d25b14358084cb4a4f3ca7022f0e6b50a5a064736f6c63430008130033",
  "linkReferences": {},
  "deployedLinkReferences": {}
}