{
  "_format": "hh-sol-artifact-1",
  "contractName": "ReferrerResolver",
  "sourceName": "contracts/ReferrerResolver.sol",
  "abi": [
    {
      "inputs": [
        {
          "internalType": "contract IEAS",
          "name": "easRef",
          "type": "address"
        }
      ],
      "stateMutability": "nonpayable",
      "type": "constructor"
    },
    {
      "inputs": [],
      "name": "AccessDenied",
      "type": "error"
    },
    {
      "inputs": [],
      "name": "InsufficientValue",
      "type": "error"
    },
    {
      "inputs": [],
      "name": "InvalidEAS",
      "type": "error"
    },
    {
      "inputs": [],
      "name": "NotPayable",
      "type": "error"
    },
    {
      "anonymous": false,
      "inputs": [
        {
          "indexed": false,
          "internalType": "uint8",
          "name": "version",
          "type": "uint8"
        }
      ],
      "name": "Initialized",
      "type": "event"
    },
    {
      "anonymous": false,
      "inputs": [
        {
          "indexed": true,
          "internalType": "address",
          "name": "previousOwner",
          "type": "address"
        },
        {
          "indexed": true,
          "internalType": "address",
          "name": "newOwner",
          "type": "address"
        }
      ],
      "name": "OwnershipTransferred",
      "type": "event"
    },
    {
      "inputs": [
        {
          "components": [
            {
              "internalType": "bytes32",
              "name": "uid",
              "type": "bytes32"
            },
            {
              "internalType": "bytes32",
              "name": "schema",
              "type": "bytes32"
            },
            {
              "internalType": "uint64",
              "name": "time",
              "type": "uint64"
            },
            {
              "internalType": "uint64",
              "name": "expirationTime",
              "type": "uint64"
            },
            {
              "internalType": "uint64",
              "name": "revocationTime",
              "type": "uint64"
            },
            {
              "internalType": "bytes32",
              "name": "refUID",
              "type": "bytes32"
            },
            {
              "internalType": "address",
              "name": "recipient",
              "type": "address"
            },
            {
              "internalType": "address",
              "name": "attester",
              "type": "address"
            },
            {
              "internalType": "bool",
              "name": "revocable",
              "type": "bool"
            },
            {
              "internalType": "bytes",
              "name": "data",
              "type": "bytes"
            }
          ],
          "internalType": "struct Attestation",
          "name": "attestation",
          "type": "tuple"
        }
      ],
      "name": "attest",
      "outputs": [
        {
          "internalType": "bool",
          "name": "",
          "type": "bool"
        }
      ],
      "stateMutability": "payable",
      "type": "function"
    },
    {
      "inputs": [],
      "name": "isPayable",
      "outputs": [
        {
          "internalType": "bool",
          "name": "",
          "type": "bool"
        }
      ],
      "stateMutability": "pure",
      "type": "function"
    },
    {
      "inputs": [
        {
          "components": [
            {
              "internalType": "bytes32",
              "name": "uid",
              "type": "bytes32"
            },
            {
              "internalType": "bytes32",
              "name": "schema",
              "type": "bytes32"
            },
            {
              "internalType": "uint64",
              "name": "time",
              "type": "uint64"
            },
            {
              "internalType": "uint64",
              "name": "expirationTime",
              "type": "uint64"
            },
            {
              "internalType": "uint64",
              "name": "revocationTime",
              "type": "uint64"
            },
            {
              "internalType": "bytes32",
              "name": "refUID",
              "type": "bytes32"
            },
            {
              "internalType": "address",
              "name": "recipient",
              "type": "address"
            },
            {
              "internalType": "address",
              "name": "attester",
              "type": "address"
            },
            {
              "internalType": "bool",
              "name": "revocable",
              "type": "bool"
            },
            {
              "internalType": "bytes",
              "name": "data",
              "type": "bytes"
            }
          ],
          "internalType": "struct Attestation[]",
          "name": "attestations",
          "type": "tuple[]"
        },
        {
          "internalType": "uint256[]",
          "name": "values",
          "type": "uint256[]"
        }
      ],
      "name": "multiAttest",
      "outputs": [
        {
          "internalType": "bool",
          "name": "",
          "type": "bool"
        }
      ],
      "stateMutability": "payable",
      "type": "function"
    },
    {
      "inputs": [
        {
          "components": [
            {
              "internalType": "bytes32",
              "name": "uid",
              "type": "bytes32"
            },
            {
              "internalType": "bytes32",
              "name": "schema",
              "type": "bytes32"
            },
            {
              "internalType": "uint64",
              "name": "time",
              "type": "uint64"
            },
            {
              "internalType": "uint64",
              "name": "expirationTime",
              "type": "uint64"
            },
            {
              "internalType": "uint64",
              "name": "revocationTime",
              "type": "uint64"
            },
            {
              "internalType": "bytes32",
              "name": "refUID",
              "type": "bytes32"
            },
            {
              "internalType": "address",
              "name": "recipient",
              "type": "address"
            },
            {
              "internalType": "address",
              "name": "attester",
              "type": "address"
            },
            {
              "internalType": "bool",
              "name": "revocable",
              "type": "bool"
            },
            {
              "internalType": "bytes",
              "name": "data",
              "type": "bytes"
            }
          ],
          "internalType": "struct Attestation[]",
          "name": "attestations",
          "type": "tuple[]"
        },
        {
          "internalType": "uint256[]",
          "name": "values",
          "type": "uint256[]"
        }
      ],
      "name": "multiRevoke",
      "outputs": [
        {
          "internalType": "bool",
          "name": "",
          "type": "bool"
        }
      ],
      "stateMutability": "payable",
      "type": "function"
    },
    {
      "inputs": [],
      "name": "owner",
      "outputs": [
        {
          "internalType": "address",
          "name": "",
          "type": "address"
        }
      ],
      "stateMutability": "view",
      "type": "function"
    },
    {
      "inputs": [],
      "name": "renounceOwnership",
      "outputs": [],
      "stateMutability": "nonpayable",
      "type": "function"
    },
    {
      "inputs": [
        {
          "components": [
            {
              "internalType": "bytes32",
              "name": "uid",
              "type": "bytes32"
            },
            {
              "internalType": "bytes32",
              "name": "schema",
              "type": "bytes32"
            },
            {
              "internalType": "uint64",
              "name": "time",
              "type": "uint64"
            },
            {
              "internalType": "uint64",
              "name": "expirationTime",
              "type": "uint64"
            },
            {
              "internalType": "uint64",
              "name": "revocationTime",
              "type": "uint64"
            },
            {
              "internalType": "bytes32",
              "name": "refUID",
              "type": "bytes32"
            },
            {
              "internalType": "address",
              "name": "recipient",
              "type": "address"
            },
            {
              "internalType": "address",
              "name": "attester",
              "type": "address"
            },
            {
              "internalType": "bool",
              "name": "revocable",
              "type": "bool"
            },
            {
              "internalType": "bytes",
              "name": "data",
              "type": "bytes"
            }
          ],
          "internalType": "struct Attestation",
          "name": "attestation",
          "type": "tuple"
        }
      ],
      "name": "revoke",
      "outputs": [
        {
          "internalType": "bool",
          "name": "",
          "type": "bool"
        }
      ],
      "stateMutability": "payable",
      "type": "function"
    },
    {
      "inputs": [
        {
          "internalType": "address",
          "name": "newOwner",
          "type": "address"
        }
      ],
      "name": "transferOwnership",
      "outputs": [],
      "stateMutability": "nonpayable",
      "type": "function"
    },
    {
      "inputs": [],
      "name": "version",
      "outputs": [
        {
          "internalType": "string",
          "name": "",
          "type": "string"
        }
      ],
      "stateMutability": "view",
      "type": "function"
    },
    {
      "stateMutability": "payable",
      "type": "receive"
    }
  ],
  "bytecode": "0x61010060405234801561001157600080fd5b50604051610f25380380610f2583398101604081905261003091610163565b6001608052600060a081905260c052806001600160a01b038116610067576040516341bc07ff60e11b815260040160405180910390fd5b6001600160a01b0390811660e052606680549183166001600160a01b0319928316179055606580549091163317905561009e6100a4565b50610193565b600054610100900460ff16156101105760405162461bcd60e51b815260206004820152602760248201527f496e697469616c697a61626c653a20636f6e747261637420697320696e697469604482015266616c697a696e6760c81b606482015260840160405180910390fd5b60005460ff90811614610161576000805460ff191660ff9081179091556040519081527f7f26b83ff96e1f2b6a682f133852f6798a09c465da95921460cefb38474024989060200160405180910390a15b565b60006020828403121561017557600080fd5b81516001600160a01b038116811461018c57600080fd5b9392505050565b60805160a05160c05160e051610d596101cc60003960006106020152600061022901526000610200015260006101d70152610d596000f3fe60806040526004361061009a5760003560e01c806391db0b7e11610069578063e49617e11161004e578063e49617e11461018a578063e60c35051461019d578063f2fde38b146101b057600080fd5b806391db0b7e14610163578063ce46e0461461017657600080fd5b806354fd4d50146100d8578063715018a61461010357806388e5b2d9146101185780638da5cb5b1461013b57600080fd5b366100d3576040517f1574f9f300000000000000000000000000000000000000000000000000000000815260040160405180910390fd5b005b600080fd5b3480156100e457600080fd5b506100ed6101d0565b6040516100fa9190610924565b60405180910390f35b34801561010f57600080fd5b506100d1610273565b61012b6101263660046109a3565b610287565b60405190151581526020016100fa565b34801561014757600080fd5b506033546040516001600160a01b0390911681526020016100fa565b61012b6101713660046109a3565b610336565b34801561018257600080fd5b50600061012b565b61012b610198366004610a0f565b6103d5565b61012b6101ab366004610a0f565b6103ea565b3480156101bc57600080fd5b506100d16101cb366004610a67565b6103fe565b60606101fb7f0000000000000000000000000000000000000000000000000000000000000000610493565b6102247f0000000000000000000000000000000000000000000000000000000000000000610493565b61024d7f0000000000000000000000000000000000000000000000000000000000000000610493565b60405160200161025f93929190610a84565b604051602081830303815290604052905090565b61027b610533565b610285600061058d565b565b60006102916105f7565b833460005b828110156103265760008686838181106102b2576102b2610afa565b905060200201359050828111156102dc5760405163044044a560e21b815260040160405180910390fd5b6103098989848181106102f1576102f1610afa565b90506020028101906103039190610b10565b50600190565b61031a57600094505050505061032e565b90910390600101610296565b506001925050505b949350505050565b60006103406105f7565b833460005b8281101561032657600086868381811061036157610361610afa565b9050602002013590508281111561038b5760405163044044a560e21b815260040160405180910390fd5b6103b88989848181106103a0576103a0610afa565b90506020028101906103b29190610b10565b82610659565b6103c957600094505050505061032e565b90910390600101610345565b60006103df6105f7565b60015b90505b919050565b60006103f46105f7565b6103e28234610659565b610406610533565b6001600160a01b0381166104875760405162461bcd60e51b815260206004820152602660248201527f4f776e61626c653a206e6577206f776e657220697320746865207a65726f206160448201527f646472657373000000000000000000000000000000000000000000000000000060648201526084015b60405180910390fd5b6104908161058d565b50565b606060006104a08361081d565b600101905060008167ffffffffffffffff8111156104c0576104c0610b31565b6040519080825280601f01601f1916602001820160405280156104ea576020820181803683370190505b5090508181016020015b600019017f3031323334353637383961626364656600000000000000000000000000000000600a86061a8153600a85049450846104f457509392505050565b6033546001600160a01b031633146102855760405162461bcd60e51b815260206004820181905260248201527f4f776e61626c653a2063616c6c6572206973206e6f7420746865206f776e6572604482015260640161047e565b603380546001600160a01b038381167fffffffffffffffffffffffff0000000000000000000000000000000000000000831681179093556040519116919082907f8be0079c531659141344cd1fd0a4f28419497f9722a3daafe3b4186f6b6457e090600090a35050565b336001600160a01b037f00000000000000000000000000000000000000000000000000000000000000001614610285576040517f4ca8886700000000000000000000000000000000000000000000000000000000815260040160405180910390fd5b600060a083013515610814576066546040517fa3112a6400000000000000000000000000000000000000000000000000000000815260a085013560048201526000916001600160a01b03169063a3112a6490602401600060405180830381865afa1580156106cb573d6000803e3d6000fd5b505050506040513d6000823e601f3d908101601f191682016040526106f39190810190610c2c565b80519091506107445760405162461bcd60e51b815260206004820152601f60248201527f5265666572726564206174746573746174696f6e206e6f742076616c69642e00604482015260640161047e565b610755610100850160e08601610a67565b6001600160a01b03168160e001516001600160a01b0316148061079d5750610784610100850160e08601610a67565b6001600160a01b03168160c001516001600160a01b0316145b806107c657506107b4610100850160e08601610a67565b6065546001600160a01b039081169116145b6108125760405162461bcd60e51b815260206004820152600960248201527f4e6f74206f776e65720000000000000000000000000000000000000000000000604482015260640161047e565b505b50600192915050565b6000807a184f03e93ff9f4daa797ed6e38ed64bf6a1f0100000000000000008310610866577a184f03e93ff9f4daa797ed6e38ed64bf6a1f010000000000000000830492506040015b6d04ee2d6d415b85acef81000000008310610892576d04ee2d6d415b85acef8100000000830492506020015b662386f26fc1000083106108b057662386f26fc10000830492506010015b6305f5e10083106108c8576305f5e100830492506008015b61271083106108dc57612710830492506004015b606483106108ee576064830492506002015b600a83106108fa576001015b92915050565b60005b8381101561091b578181015183820152602001610903565b50506000910152565b6020815260008251806020840152610943816040850160208701610900565b601f01601f19169190910160400192915050565b60008083601f84011261096957600080fd5b50813567ffffffffffffffff81111561098157600080fd5b6020830191508360208260051b850101111561099c57600080fd5b9250929050565b600080600080604085870312156109b957600080fd5b843567ffffffffffffffff808211156109d157600080fd5b6109dd88838901610957565b909650945060208701359150808211156109f657600080fd5b50610a0387828801610957565b95989497509550505050565b600060208284031215610a2157600080fd5b813567ffffffffffffffff811115610a3857600080fd5b82016101408185031215610a4b57600080fd5b9392505050565b6001600160a01b038116811461049057600080fd5b600060208284031215610a7957600080fd5b8135610a4b81610a52565b60008451610a96818460208901610900565b80830190507f2e000000000000000000000000000000000000000000000000000000000000008082528551610ad2816001850160208a01610900565b60019201918201528351610aed816002840160208801610900565b0160020195945050505050565b634e487b7160e01b600052603260045260246000fd5b6000823561013e19833603018112610b2757600080fd5b9190910192915050565b634e487b7160e01b600052604160045260246000fd5b604051610140810167ffffffffffffffff81118282101715610b6b57610b6b610b31565b60405290565b805167ffffffffffffffff811681146103e557600080fd5b80516103e581610a52565b805180151581146103e557600080fd5b600082601f830112610bb557600080fd5b815167ffffffffffffffff80821115610bd057610bd0610b31565b604051601f8301601f19908116603f01168101908282118183101715610bf857610bf8610b31565b81604052838152866020858801011115610c1157600080fd5b610c22846020830160208901610900565b9695505050505050565b600060208284031215610c3e57600080fd5b815167ffffffffffffffff80821115610c5657600080fd5b908301906101408286031215610c6b57600080fd5b610c73610b47565b8251815260208301516020820152610c8d60408401610b71565b6040820152610c9e60608401610b71565b6060820152610caf60808401610b71565b608082015260a083015160a0820152610cca60c08401610b89565b60c0820152610cdb60e08401610b89565b60e0820152610100610cee818501610b94565b908201526101208381015183811115610d0657600080fd5b610d1288828701610ba4565b91830191909152509594505050505056fea2646970667358221220ea156a8547469fd348286444e1788f9e6c66e765e256dcde5c0fe3ef66d385b564736f6c63430008130033",
  "linkReferences": {},
  "deployedLinkReferences": {}
}