{
  "address": "0x021896771412C1D3f31BC7B01fFA3a6A17c5dA30",
  "abi": [
    {
      "inputs": [
        {
          "internalType": "address",
          "name": "_gap_contract_address",
          "type": "address"
        },
        {
          "internalType": "uint256",
          "name": "_platformFeeInBasis",
          "type": "uint256"
        }
      ],
      "stateMutability": "nonpayable",
      "type": "constructor"
    },
    {
      "anonymous": false,
      "inputs": [
        {
          "indexed": true,
          "internalType": "address",
          "name": "owner",
          "type": "address"
        },
        {
          "indexed": false,
          "internalType": "uint256",
          "name": "amount",
          "type": "uint256"
        }
      ],
      "name": "CommissionEarned",
      "type": "event"
    },
    {
      "anonymous": false,
      "inputs": [
        {
          "indexed": true,
          "internalType": "address",
          "name": "donor",
          "type": "address"
        },
        {
          "indexed": true,
          "internalType": "address",
          "name": "donee",
          "type": "address"
        },
        {
          "indexed": false,
          "internalType": "uint256",
          "name": "amount",
          "type": "uint256"
        }
      ],
      "name": "DonationMade",
      "type": "event"
    },
    {
      "anonymous": false,
      "inputs": [
        {
          "indexed": true,
          "internalType": "address",
          "name": "previousOwner",
          "type": "address"
        },
        {
          "indexed": true,
          "internalType": "address",
          "name": "newOwner",
          "type": "address"
        }
      ],
      "name": "OwnershipTransferred",
      "type": "event"
    },
    {
      "anonymous": false,
      "inputs": [
        {
          "indexed": false,
          "internalType": "uint256",
          "name": "platformFeeInBasis",
          "type": "uint256"
        }
      ],
      "name": "PlatformFeeSet",
      "type": "event"
    },
    {
      "inputs": [],
      "name": "_owner",
      "outputs": [
        {
          "internalType": "address",
          "name": "",
          "type": "address"
        }
      ],
      "stateMutability": "view",
      "type": "function"
    },
    {
      "inputs": [
        {
          "components": [
            {
              "internalType": "bytes32",
              "name": "schema",
              "type": "bytes32"
            },
            {
              "components": [
                {
                  "internalType": "address",
                  "name": "recipient",
                  "type": "address"
                },
                {
                  "internalType": "uint64",
                  "name": "expirationTime",
                  "type": "uint64"
                },
                {
                  "internalType": "bool",
                  "name": "revocable",
                  "type": "bool"
                },
                {
                  "internalType": "bytes32",
                  "name": "refUID",
                  "type": "bytes32"
                },
                {
                  "internalType": "bytes",
                  "name": "data",
                  "type": "bytes"
                },
                {
                  "internalType": "uint256",
                  "name": "value",
                  "type": "uint256"
                }
              ],
              "internalType": "struct AttestationRequestData",
              "name": "data",
              "type": "tuple"
            }
          ],
          "internalType": "struct AttestationRequest",
          "name": "endorsementRequest",
          "type": "tuple"
        },
        {
          "internalType": "uint256",
          "name": "amount",
          "type": "uint256"
        }
      ],
      "name": "donate",
      "outputs": [
        {
          "internalType": "bytes32",
          "name": "",
          "type": "bytes32"
        }
      ],
      "stateMutability": "payable",
      "type": "function"
    },
    {
      "inputs": [],
      "name": "gap_contract",
      "outputs": [
        {
          "internalType": "contract IGAP",
          "name": "",
          "type": "address"
        }
      ],
      "stateMutability": "view",
      "type": "function"
    },
    {
      "inputs": [],
      "name": "owner",
      "outputs": [
        {
          "internalType": "address",
          "name": "",
          "type": "address"
        }
      ],
      "stateMutability": "view",
      "type": "function"
    },
    {
      "inputs": [],
      "name": "platformFeeInBasis",
      "outputs": [
        {
          "internalType": "uint256",
          "name": "",
          "type": "uint256"
        }
      ],
      "stateMutability": "view",
      "type": "function"
    },
    {
      "inputs": [],
      "name": "renounceOwnership",
      "outputs": [],
      "stateMutability": "nonpayable",
      "type": "function"
    },
    {
      "inputs": [
        {
          "internalType": "address",
          "name": "_gap_contract_address",
          "type": "address"
        }
      ],
      "name": "setGapContract",
      "outputs": [],
      "stateMutability": "nonpayable",
      "type": "function"
    },
    {
      "inputs": [
        {
          "internalType": "uint256",
          "name": "_platformFeeInBasis",
          "type": "uint256"
        }
      ],
      "name": "setPlatformFeeInBasis",
      "outputs": [],
      "stateMutability": "nonpayable",
      "type": "function"
    },
    {
      "inputs": [
        {
          "internalType": "address",
          "name": "newOwner",
          "type": "address"
        }
      ],
      "name": "transferOwnership",
      "outputs": [],
      "stateMutability": "nonpayable",
      "type": "function"
    }
  ],
  "transactionHash": "0xa075a4d723e7ee79ea1674c6a4805bac1909aba5fb93bec399fa81b631f8af6d",
  "args": [
    "0xd2eD366393FDfd243931Fe48e9fb65A192B0018c",
    100
  ],
  "numDeployments": 1,
  "solcInputHash": "ca32a826ec0bd8e6c8e063099fe377c4",
  "bytecode": "0x608060405234801561001057600080fd5b50604051610aa2380380610aa283398101604081905261002f916100f7565b610038336100a7565b600280546001600160a01b0384166001600160a01b031991821617909155600382905560018054909116331790556040517fdc4e4be378c228e1b7b13787e1d0620609304c2f71ed3a6ee69e4aae99d58cd9906100989083815260200190565b60405180910390a15050610131565b600080546001600160a01b038381166001600160a01b0319831681178455604051919092169283917f8be0079c531659141344cd1fd0a4f28419497f9722a3daafe3b4186f6b6457e09190a35050565b6000806040838503121561010a57600080fd5b82516001600160a01b038116811461012157600080fd5b6020939093015192949293505050565b610962806101406000396000f3fe6080604052600436106100965760003560e01c806390cd84b811610069578063b2bdfa7b1161004e578063b2bdfa7b14610160578063c243924b14610180578063f2fde38b146101a057600080fd5b806390cd84b81461012d578063a15535501461014d57600080fd5b80631c4dac041461009b5780633b8e1c2e146100bd578063715018a6146100e65780638da5cb5b146100fb575b600080fd5b3480156100a757600080fd5b506100bb6100b63660046106c8565b6101c0565b005b3480156100c957600080fd5b506100d360035481565b6040519081526020015b60405180910390f35b3480156100f257600080fd5b506100bb6101f7565b34801561010757600080fd5b506000546001600160a01b03165b6040516001600160a01b0390911681526020016100dd565b34801561013957600080fd5b50600254610115906001600160a01b031681565b6100d361015b3660046106ea565b61020b565b34801561016c57600080fd5b50600154610115906001600160a01b031681565b34801561018c57600080fd5b506100bb61019b366004610734565b610522565b3480156101ac57600080fd5b506100bb6101bb3660046106c8565b610565565b6101c86105f5565b6002805473ffffffffffffffffffffffffffffffffffffffff19166001600160a01b0392909216919091179055565b6101ff6105f5565b610209600061064f565b565b60008061021b602085018561074d565b6102299060208101906106c8565b6001600160a01b0316036102845760405162461bcd60e51b815260206004820181905260248201527f446f6e6174696f6e733a20446f6e65652061646472657373206973207a65726f60448201526064015b60405180910390fd5b600082116102fa5760405162461bcd60e51b815260206004820152602a60248201527f446f6e6174696f6e733a20416d6f756e742073686f756c64206265206772656160448201527f746572207468616e203000000000000000000000000000000000000000000000606482015260840161027b565b8134146103495760405162461bcd60e51b815260206004820152601b60248201527f446f6e6174696f6e733a20496e636f727265637420616d6f756e740000000000604482015260640161027b565b6000610358602085018561074d565b6103669060208101906106c8565b905060006127106003548561037b9190610783565b610385919061079a565b9050600061039382866107bc565b6040519091506001600160a01b0384169082156108fc029083906000818181858888f193505050501580156103cc573d6000803e3d6000fd5b506001546040516001600160a01b039091169083156108fc029084906000818181858888f19350505050158015610407573d6000803e3d6000fd5b506040518581526001600160a01b0384169033907f70c6bc6cf53707fb5561feef795d557f7e46f57bd4f1a13ce36e9ffdf58d38bb9060200160405180910390a36001546040518381526001600160a01b03909116907f679ac861107f2d07a53f7bac8d95446bc6fca3009fede9cc83c74978524a07989060200160405180910390a26002546040517ff17325e70000000000000000000000000000000000000000000000000000000081526001600160a01b039091169063f17325e7906104d3908990600401610855565b6020604051808303816000875af11580156104f2573d6000803e3d6000fd5b505050506040513d601f19601f820116820180604052508101906105169190610913565b93505050505b92915050565b61052a6105f5565b60038190556040518181527fdc4e4be378c228e1b7b13787e1d0620609304c2f71ed3a6ee69e4aae99d58cd99060200160405180910390a150565b61056d6105f5565b6001600160a01b0381166105e95760405162461bcd60e51b815260206004820152602660248201527f4f776e61626c653a206e6577206f776e657220697320746865207a65726f206160448201527f6464726573730000000000000000000000000000000000000000000000000000606482015260840161027b565b6105f28161064f565b50565b6000546001600160a01b031633146102095760405162461bcd60e51b815260206004820181905260248201527f4f776e61626c653a2063616c6c6572206973206e6f7420746865206f776e6572604482015260640161027b565b600080546001600160a01b0383811673ffffffffffffffffffffffffffffffffffffffff19831681178455604051919092169283917f8be0079c531659141344cd1fd0a4f28419497f9722a3daafe3b4186f6b6457e09190a35050565b80356001600160a01b03811681146106c357600080fd5b919050565b6000602082840312156106da57600080fd5b6106e3826106ac565b9392505050565b600080604083850312156106fd57600080fd5b823567ffffffffffffffff81111561071457600080fd5b83016040818603121561072657600080fd5b946020939093013593505050565b60006020828403121561074657600080fd5b5035919050565b6000823560be1983360301811261076357600080fd5b9190910192915050565b634e487b7160e01b600052601160045260246000fd5b808202811582820484141761051c5761051c61076d565b6000826107b757634e487b7160e01b600052601260045260246000fd5b500490565b8181038181111561051c5761051c61076d565b803580151581146106c357600080fd5b6000808335601e198436030181126107f657600080fd5b830160208101925035905067ffffffffffffffff81111561081657600080fd5b80360382131561082557600080fd5b9250929050565b81835281816020850137506000828201602090810191909152601f909101601f19169091010190565b60208152813560208201526000602083013560be1984360301811261087957600080fd5b60408381015283016001600160a01b03610892826106ac565b166060840152602081013567ffffffffffffffff81168082146108b457600080fd5b6080850152506108c6604082016107cf565b151560a0840152606081013560c08401526108e460808201826107df565b60c060e08601526108fa6101208601828461082c565b91505060a0820135610100850152809250505092915050565b60006020828403121561092557600080fd5b505191905056fea264697066735822122028df94bcf4128c245c081f14d9c844cee698838a19c3fcdfab7cfaed8df7944f64736f6c63430008130033",
  "devdoc": {
    "kind": "dev",
    "methods": {
      "owner()": {
        "details": "Returns the address of the current owner."
      },
      "renounceOwnership()": {
        "details": "Leaves the contract without owner. It will not be possible to call `onlyOwner` functions. Can only be called by the current owner. NOTE: Renouncing ownership will leave the contract without an owner, thereby disabling any functionality that is only available to the owner."
      },
      "transferOwnership(address)": {
        "details": "Transfers ownership of the contract to a new account (`newOwner`). Can only be called by the current owner."
      }
    },
    "version": 1
  },
  "userdoc": {
    "kind": "user",
    "methods": {},
    "version": 1
  },
  "storageLayout": {
    "storage": [
      {
        "astId": 468,
        "contract": "contracts/Donations.sol:Donations",
        "label": "_owner",
        "offset": 0,
        "slot": "0",
        "type": "t_address"
      },
      {
        "astId": 615,
        "contract": "contracts/Donations.sol:Donations",
        "label": "_owner",
        "offset": 0,
        "slot": "1",
        "type": "t_address"
      },
      {
        "astId": 618,
        "contract": "contracts/Donations.sol:Donations",
        "label": "gap_contract",
        "offset": 0,
        "slot": "2",
        "type": "t_contract(IGAP)611"
      },
      {
        "astId": 620,
        "contract": "contracts/Donations.sol:Donations",
        "label": "platformFeeInBasis",
        "offset": 0,
        "slot": "3",
        "type": "t_uint256"
      }
    ],
    "types": {
      "t_address": {
        "encoding": "inplace",
        "label": "address",
        "numberOfBytes": "20"
      },
      "t_contract(IGAP)611": {
        "encoding": "inplace",
        "label": "contract IGAP",
        "numberOfBytes": "20"
      },
      "t_uint256": {
        "encoding": "inplace",
        "label": "uint256",
        "numberOfBytes": "32"
      }
    }
  }
}