{
  "address": "0xCDc8043715EbAED47E58b01b9589525d283bd71a",
  "abi": [
    {
      "inputs": [
        {
          "internalType": "address",
          "name": "_gap_contract_address",
          "type": "address"
        },
        {
          "internalType": "uint256",
          "name": "_platformFeeInBasis",
          "type": "uint256"
        }
      ],
      "stateMutability": "nonpayable",
      "type": "constructor"
    },
    {
      "anonymous": false,
      "inputs": [
        {
          "indexed": true,
          "internalType": "address",
          "name": "owner",
          "type": "address"
        },
        {
          "indexed": false,
          "internalType": "uint256",
          "name": "amount",
          "type": "uint256"
        }
      ],
      "name": "CommissionEarned",
      "type": "event"
    },
    {
      "anonymous": false,
      "inputs": [
        {
          "indexed": true,
          "internalType": "address",
          "name": "donor",
          "type": "address"
        },
        {
          "indexed": true,
          "internalType": "address",
          "name": "donee",
          "type": "address"
        },
        {
          "indexed": false,
          "internalType": "uint256",
          "name": "amount",
          "type": "uint256"
        }
      ],
      "name": "DonationMade",
      "type": "event"
    },
    {
      "anonymous": false,
      "inputs": [
        {
          "indexed": true,
          "internalType": "address",
          "name": "previousOwner",
          "type": "address"
        },
        {
          "indexed": true,
          "internalType": "address",
          "name": "newOwner",
          "type": "address"
        }
      ],
      "name": "OwnershipTransferred",
      "type": "event"
    },
    {
      "anonymous": false,
      "inputs": [
        {
          "indexed": false,
          "internalType": "uint256",
          "name": "platformFeeInBasis",
          "type": "uint256"
        }
      ],
      "name": "PlatformFeeSet",
      "type": "event"
    },
    {
      "inputs": [],
      "name": "_owner",
      "outputs": [
        {
          "internalType": "address",
          "name": "",
          "type": "address"
        }
      ],
      "stateMutability": "view",
      "type": "function"
    },
    {
      "inputs": [],
      "name": "_platform",
      "outputs": [
        {
          "internalType": "address",
          "name": "",
          "type": "address"
        }
      ],
      "stateMutability": "view",
      "type": "function"
    },
    {
      "inputs": [
        {
          "components": [
            {
              "internalType": "bytes32",
              "name": "schema",
              "type": "bytes32"
            },
            {
              "components": [
                {
                  "internalType": "address",
                  "name": "recipient",
                  "type": "address"
                },
                {
                  "internalType": "uint64",
                  "name": "expirationTime",
                  "type": "uint64"
                },
                {
                  "internalType": "bool",
                  "name": "revocable",
                  "type": "bool"
                },
                {
                  "internalType": "bytes32",
                  "name": "refUID",
                  "type": "bytes32"
                },
                {
                  "internalType": "bytes",
                  "name": "data",
                  "type": "bytes"
                },
                {
                  "internalType": "uint256",
                  "name": "value",
                  "type": "uint256"
                }
              ],
              "internalType": "struct AttestationRequestData",
              "name": "data",
              "type": "tuple"
            }
          ],
          "internalType": "struct AttestationRequest",
          "name": "endorsementRequest",
          "type": "tuple"
        },
        {
          "internalType": "uint256",
          "name": "amount",
          "type": "uint256"
        }
      ],
      "name": "donate",
      "outputs": [
        {
          "internalType": "bytes32",
          "name": "",
          "type": "bytes32"
        }
      ],
      "stateMutability": "payable",
      "type": "function"
    },
    {
      "inputs": [],
      "name": "gap_contract",
      "outputs": [
        {
          "internalType": "contract IGAP",
          "name": "",
          "type": "address"
        }
      ],
      "stateMutability": "view",
      "type": "function"
    },
    {
      "inputs": [],
      "name": "owner",
      "outputs": [
        {
          "internalType": "address",
          "name": "",
          "type": "address"
        }
      ],
      "stateMutability": "view",
      "type": "function"
    },
    {
      "inputs": [],
      "name": "platformFeeInBasis",
      "outputs": [
        {
          "internalType": "uint256",
          "name": "",
          "type": "uint256"
        }
      ],
      "stateMutability": "view",
      "type": "function"
    },
    {
      "inputs": [],
      "name": "renounceOwnership",
      "outputs": [],
      "stateMutability": "nonpayable",
      "type": "function"
    },
    {
      "inputs": [
        {
          "internalType": "address",
          "name": "_gap_contract_address",
          "type": "address"
        }
      ],
      "name": "setGapContract",
      "outputs": [],
      "stateMutability": "nonpayable",
      "type": "function"
    },
    {
      "inputs": [
        {
          "internalType": "address",
          "name": "_platformAddress",
          "type": "address"
        }
      ],
      "name": "setPlatformAddress",
      "outputs": [],
      "stateMutability": "nonpayable",
      "type": "function"
    },
    {
      "inputs": [
        {
          "internalType": "uint256",
          "name": "_platformFeeInBasis",
          "type": "uint256"
        }
      ],
      "name": "setPlatformFeeInBasis",
      "outputs": [],
      "stateMutability": "nonpayable",
      "type": "function"
    },
    {
      "inputs": [
        {
          "internalType": "address",
          "name": "newOwner",
          "type": "address"
        }
      ],
      "name": "transferOwnership",
      "outputs": [],
      "stateMutability": "nonpayable",
      "type": "function"
    }
  ],
  "transactionHash": "0xccdd24741263314faf3af7af76f8404b66d04d45e22959369aba0ec43d38c740",
  "args": [
    "0xB80D85690747C3E2ceCc0f8529594C6602b642D5",
    100
  ],
  "numDeployments": 1,
  "solcInputHash": "49ff88dd14959af24008054c0a948820",
  "bytecode": "0x608060405234801561001057600080fd5b50604051610b43380380610b4383398101604081905261002f916100f7565b610038336100a7565b600380546001600160a01b0384166001600160a01b031991821617909155600482905560018054909116331790556040517fdc4e4be378c228e1b7b13787e1d0620609304c2f71ed3a6ee69e4aae99d58cd9906100989083815260200190565b60405180910390a15050610131565b600080546001600160a01b038381166001600160a01b0319831681178455604051919092169283917f8be0079c531659141344cd1fd0a4f28419497f9722a3daafe3b4186f6b6457e09190a35050565b6000806040838503121561010a57600080fd5b82516001600160a01b038116811461012157600080fd5b6020939093015192949293505050565b610a03806101406000396000f3fe6080604052600436106100bc5760003560e01c806390cd84b811610074578063c243924b1161004e578063c243924b146101ca578063cc03c342146101ea578063f2fde38b1461020a57600080fd5b806390cd84b814610177578063a155355014610197578063b2bdfa7b146101aa57600080fd5b80633b8e1c2e116100a55780633b8e1c2e14610120578063715018a6146101445780638da5cb5b1461015957600080fd5b80631adc7d4c146100c15780631c4dac04146100fe575b600080fd5b3480156100cd57600080fd5b506002546100e1906001600160a01b031681565b6040516001600160a01b0390911681526020015b60405180910390f35b34801561010a57600080fd5b5061011e610119366004610769565b61022a565b005b34801561012c57600080fd5b5061013660045481565b6040519081526020016100f5565b34801561015057600080fd5b5061011e610261565b34801561016557600080fd5b506000546001600160a01b03166100e1565b34801561018357600080fd5b506003546100e1906001600160a01b031681565b6101366101a536600461078b565b610275565b3480156101b657600080fd5b506001546100e1906001600160a01b031681565b3480156101d657600080fd5b5061011e6101e53660046107d5565b61058c565b3480156101f657600080fd5b5061011e610205366004610769565b6105cf565b34801561021657600080fd5b5061011e610225366004610769565b610606565b610232610696565b6003805473ffffffffffffffffffffffffffffffffffffffff19166001600160a01b0392909216919091179055565b610269610696565b61027360006106f0565b565b60008061028560208501856107ee565b610293906020810190610769565b6001600160a01b0316036102ee5760405162461bcd60e51b815260206004820181905260248201527f446f6e6174696f6e733a20446f6e65652061646472657373206973207a65726f60448201526064015b60405180910390fd5b600082116103645760405162461bcd60e51b815260206004820152602a60248201527f446f6e6174696f6e733a20416d6f756e742073686f756c64206265206772656160448201527f746572207468616e20300000000000000000000000000000000000000000000060648201526084016102e5565b8134146103b35760405162461bcd60e51b815260206004820152601b60248201527f446f6e6174696f6e733a20496e636f727265637420616d6f756e74000000000060448201526064016102e5565b60006103c260208501856107ee565b6103d0906020810190610769565b90506000612710600454856103e59190610824565b6103ef919061083b565b905060006103fd828661085d565b6040519091506001600160a01b0384169082156108fc029083906000818181858888f19350505050158015610436573d6000803e3d6000fd5b506002546040516001600160a01b039091169083156108fc029084906000818181858888f19350505050158015610471573d6000803e3d6000fd5b506040518581526001600160a01b0384169033907f70c6bc6cf53707fb5561feef795d557f7e46f57bd4f1a13ce36e9ffdf58d38bb9060200160405180910390a36002546040518381526001600160a01b03909116907f679ac861107f2d07a53f7bac8d95446bc6fca3009fede9cc83c74978524a07989060200160405180910390a26003546040517ff17325e70000000000000000000000000000000000000000000000000000000081526001600160a01b039091169063f17325e79061053d9089906004016108f6565b6020604051808303816000875af115801561055c573d6000803e3d6000fd5b505050506040513d601f19601f8201168201806040525081019061058091906109b4565b93505050505b92915050565b610594610696565b60048190556040518181527fdc4e4be378c228e1b7b13787e1d0620609304c2f71ed3a6ee69e4aae99d58cd99060200160405180910390a150565b6105d7610696565b6002805473ffffffffffffffffffffffffffffffffffffffff19166001600160a01b0392909216919091179055565b61060e610696565b6001600160a01b03811661068a5760405162461bcd60e51b815260206004820152602660248201527f4f776e61626c653a206e6577206f776e657220697320746865207a65726f206160448201527f646472657373000000000000000000000000000000000000000000000000000060648201526084016102e5565b610693816106f0565b50565b6000546001600160a01b031633146102735760405162461bcd60e51b815260206004820181905260248201527f4f776e61626c653a2063616c6c6572206973206e6f7420746865206f776e657260448201526064016102e5565b600080546001600160a01b0383811673ffffffffffffffffffffffffffffffffffffffff19831681178455604051919092169283917f8be0079c531659141344cd1fd0a4f28419497f9722a3daafe3b4186f6b6457e09190a35050565b80356001600160a01b038116811461076457600080fd5b919050565b60006020828403121561077b57600080fd5b6107848261074d565b9392505050565b6000806040838503121561079e57600080fd5b823567ffffffffffffffff8111156107b557600080fd5b8301604081860312156107c757600080fd5b946020939093013593505050565b6000602082840312156107e757600080fd5b5035919050565b6000823560be1983360301811261080457600080fd5b9190910192915050565b634e487b7160e01b600052601160045260246000fd5b80820281158282048414176105865761058661080e565b60008261085857634e487b7160e01b600052601260045260246000fd5b500490565b818103818111156105865761058661080e565b8035801515811461076457600080fd5b6000808335601e1984360301811261089757600080fd5b830160208101925035905067ffffffffffffffff8111156108b757600080fd5b8036038213156108c657600080fd5b9250929050565b81835281816020850137506000828201602090810191909152601f909101601f19169091010190565b60208152813560208201526000602083013560be1984360301811261091a57600080fd5b60408381015283016001600160a01b036109338261074d565b166060840152602081013567ffffffffffffffff811680821461095557600080fd5b60808501525061096760408201610870565b151560a0840152606081013560c08401526109856080820182610880565b60c060e086015261099b610120860182846108cd565b91505060a0820135610100850152809250505092915050565b6000602082840312156109c657600080fd5b505191905056fea264697066735822122058eefe78bb9be846a94d0e862b6017a4256006105ce819c9042b51e837afccfa64736f6c63430008130033",
  "devdoc": {
    "kind": "dev",
    "methods": {
      "owner()": {
        "details": "Returns the address of the current owner."
      },
      "renounceOwnership()": {
        "details": "Leaves the contract without owner. It will not be possible to call `onlyOwner` functions. Can only be called by the current owner. NOTE: Renouncing ownership will leave the contract without an owner, thereby disabling any functionality that is only available to the owner."
      },
      "transferOwnership(address)": {
        "details": "Transfers ownership of the contract to a new account (`newOwner`). Can only be called by the current owner."
      }
    },
    "version": 1
  },
  "userdoc": {
    "kind": "user",
    "methods": {},
    "version": 1
  },
  "storageLayout": {
    "storage": [
      {
        "astId": 468,
        "contract": "contracts/Donations.sol:Donations",
        "label": "_owner",
        "offset": 0,
        "slot": "0",
        "type": "t_address"
      },
      {
        "astId": 615,
        "contract": "contracts/Donations.sol:Donations",
        "label": "_owner",
        "offset": 0,
        "slot": "1",
        "type": "t_address"
      },
      {
        "astId": 617,
        "contract": "contracts/Donations.sol:Donations",
        "label": "_platform",
        "offset": 0,
        "slot": "2",
        "type": "t_address"
      },
      {
        "astId": 620,
        "contract": "contracts/Donations.sol:Donations",
        "label": "gap_contract",
        "offset": 0,
        "slot": "3",
        "type": "t_contract(IGAP)611"
      },
      {
        "astId": 622,
        "contract": "contracts/Donations.sol:Donations",
        "label": "platformFeeInBasis",
        "offset": 0,
        "slot": "4",
        "type": "t_uint256"
      }
    ],
    "types": {
      "t_address": {
        "encoding": "inplace",
        "label": "address",
        "numberOfBytes": "20"
      },
      "t_contract(IGAP)611": {
        "encoding": "inplace",
        "label": "contract IGAP",
        "numberOfBytes": "20"
      },
      "t_uint256": {
        "encoding": "inplace",
        "label": "uint256",
        "numberOfBytes": "32"
      }
    }
  }
}