{
  "_format": "hh-sol-artifact-1",
  "contractName": "Gap",
  "sourceName": "contracts/Gap.sol",
  "abi": [
    {
      "inputs": [],
      "stateMutability": "nonpayable",
      "type": "constructor"
    },
    {
      "anonymous": false,
      "inputs": [],
      "name": "EIP712DomainChanged",
      "type": "event"
    },
    {
      "anonymous": false,
      "inputs": [
        {
          "indexed": false,
          "internalType": "uint8",
          "name": "version",
          "type": "uint8"
        }
      ],
      "name": "Initialized",
      "type": "event"
    },
    {
      "anonymous": false,
      "inputs": [
        {
          "indexed": true,
          "internalType": "address",
          "name": "previousOwner",
          "type": "address"
        },
        {
          "indexed": true,
          "internalType": "address",
          "name": "newOwner",
          "type": "address"
        }
      ],
      "name": "OwnershipTransferred",
      "type": "event"
    },
    {
      "inputs": [],
      "name": "ATTEST_TYPEHASH",
      "outputs": [
        {
          "internalType": "bytes32",
          "name": "",
          "type": "bytes32"
        }
      ],
      "stateMutability": "view",
      "type": "function"
    },
    {
      "inputs": [
        {
          "internalType": "string",
          "name": "payloadHash",
          "type": "string"
        },
        {
          "internalType": "uint256",
          "name": "nonce",
          "type": "uint256"
        },
        {
          "internalType": "uint256",
          "name": "expiry",
          "type": "uint256"
        },
        {
          "internalType": "uint8",
          "name": "v",
          "type": "uint8"
        },
        {
          "internalType": "bytes32",
          "name": "r",
          "type": "bytes32"
        },
        {
          "internalType": "bytes32",
          "name": "s",
          "type": "bytes32"
        }
      ],
      "name": "_recoverSignerAddress",
      "outputs": [
        {
          "internalType": "address",
          "name": "signer",
          "type": "address"
        }
      ],
      "stateMutability": "view",
      "type": "function"
    },
    {
      "inputs": [
        {
          "components": [
            {
              "internalType": "bytes32",
              "name": "schema",
              "type": "bytes32"
            },
            {
              "components": [
                {
                  "internalType": "address",
                  "name": "recipient",
                  "type": "address"
                },
                {
                  "internalType": "uint64",
                  "name": "expirationTime",
                  "type": "uint64"
                },
                {
                  "internalType": "bool",
                  "name": "revocable",
                  "type": "bool"
                },
                {
                  "internalType": "bytes32",
                  "name": "refUID",
                  "type": "bytes32"
                },
                {
                  "internalType": "bytes",
                  "name": "data",
                  "type": "bytes"
                },
                {
                  "internalType": "uint256",
                  "name": "value",
                  "type": "uint256"
                }
              ],
              "internalType": "struct AttestationRequestData",
              "name": "data",
              "type": "tuple"
            }
          ],
          "internalType": "struct AttestationRequest",
          "name": "request",
          "type": "tuple"
        }
      ],
      "name": "attest",
      "outputs": [
        {
          "internalType": "bytes32",
          "name": "",
          "type": "bytes32"
        }
      ],
      "stateMutability": "payable",
      "type": "function"
    },
    {
      "inputs": [
        {
          "components": [
            {
              "internalType": "bytes32",
              "name": "schema",
              "type": "bytes32"
            },
            {
              "components": [
                {
                  "internalType": "address",
                  "name": "recipient",
                  "type": "address"
                },
                {
                  "internalType": "uint64",
                  "name": "expirationTime",
                  "type": "uint64"
                },
                {
                  "internalType": "bool",
                  "name": "revocable",
                  "type": "bool"
                },
                {
                  "internalType": "bytes32",
                  "name": "refUID",
                  "type": "bytes32"
                },
                {
                  "internalType": "bytes",
                  "name": "data",
                  "type": "bytes"
                },
                {
                  "internalType": "uint256",
                  "name": "value",
                  "type": "uint256"
                }
              ],
              "internalType": "struct AttestationRequestData",
              "name": "data",
              "type": "tuple"
            }
          ],
          "internalType": "struct AttestationRequest",
          "name": "request",
          "type": "tuple"
        },
        {
          "internalType": "string",
          "name": "payloadHash",
          "type": "string"
        },
        {
          "internalType": "address",
          "name": "attester",
          "type": "address"
        },
        {
          "internalType": "uint256",
          "name": "nonce",
          "type": "uint256"
        },
        {
          "internalType": "uint256",
          "name": "expiry",
          "type": "uint256"
        },
        {
          "internalType": "uint8",
          "name": "v",
          "type": "uint8"
        },
        {
          "internalType": "bytes32",
          "name": "r",
          "type": "bytes32"
        },
        {
          "internalType": "bytes32",
          "name": "s",
          "type": "bytes32"
        }
      ],
      "name": "attestBySig",
      "outputs": [
        {
          "internalType": "bytes32",
          "name": "",
          "type": "bytes32"
        }
      ],
      "stateMutability": "nonpayable",
      "type": "function"
    },
    {
      "inputs": [],
      "name": "eas",
      "outputs": [
        {
          "internalType": "contract IEAS",
          "name": "",
          "type": "address"
        }
      ],
      "stateMutability": "view",
      "type": "function"
    },
    {
      "inputs": [],
      "name": "eip712Domain",
      "outputs": [
        {
          "internalType": "bytes1",
          "name": "fields",
          "type": "bytes1"
        },
        {
          "internalType": "string",
          "name": "name",
          "type": "string"
        },
        {
          "internalType": "string",
          "name": "version",
          "type": "string"
        },
        {
          "internalType": "uint256",
          "name": "chainId",
          "type": "uint256"
        },
        {
          "internalType": "address",
          "name": "verifyingContract",
          "type": "address"
        },
        {
          "internalType": "bytes32",
          "name": "salt",
          "type": "bytes32"
        },
        {
          "internalType": "uint256[]",
          "name": "extensions",
          "type": "uint256[]"
        }
      ],
      "stateMutability": "view",
      "type": "function"
    },
    {
      "inputs": [
        {
          "internalType": "address",
          "name": "easAddr",
          "type": "address"
        }
      ],
      "name": "initialize",
      "outputs": [],
      "stateMutability": "nonpayable",
      "type": "function"
    },
    {
      "inputs": [
        {
          "components": [
            {
              "internalType": "bytes32",
              "name": "uid",
              "type": "bytes32"
            },
            {
              "components": [
                {
                  "internalType": "bytes32",
                  "name": "schema",
                  "type": "bytes32"
                },
                {
                  "components": [
                    {
                      "internalType": "address",
                      "name": "recipient",
                      "type": "address"
                    },
                    {
                      "internalType": "uint64",
                      "name": "expirationTime",
                      "type": "uint64"
                    },
                    {
                      "internalType": "bool",
                      "name": "revocable",
                      "type": "bool"
                    },
                    {
                      "internalType": "bytes32",
                      "name": "refUID",
                      "type": "bytes32"
                    },
                    {
                      "internalType": "bytes",
                      "name": "data",
                      "type": "bytes"
                    },
                    {
                      "internalType": "uint256",
                      "name": "value",
                      "type": "uint256"
                    }
                  ],
                  "internalType": "struct AttestationRequestData[]",
                  "name": "data",
                  "type": "tuple[]"
                }
              ],
              "internalType": "struct MultiAttestationRequest",
              "name": "multiRequest",
              "type": "tuple"
            },
            {
              "internalType": "uint256",
              "name": "refIdx",
              "type": "uint256"
            }
          ],
          "internalType": "struct Gap.AttestationRequestNode[]",
          "name": "requestNodes",
          "type": "tuple[]"
        },
        {
          "internalType": "string",
          "name": "payloadHash",
          "type": "string"
        },
        {
          "internalType": "address",
          "name": "attester",
          "type": "address"
        },
        {
          "internalType": "uint256",
          "name": "nonce",
          "type": "uint256"
        },
        {
          "internalType": "uint256",
          "name": "expiry",
          "type": "uint256"
        },
        {
          "internalType": "uint8",
          "name": "v",
          "type": "uint8"
        },
        {
          "internalType": "bytes32",
          "name": "r",
          "type": "bytes32"
        },
        {
          "internalType": "bytes32",
          "name": "s",
          "type": "bytes32"
        }
      ],
      "name": "multiAttestBySig",
      "outputs": [],
      "stateMutability": "nonpayable",
      "type": "function"
    },
    {
      "inputs": [
        {
          "components": [
            {
              "internalType": "bytes32",
              "name": "schema",
              "type": "bytes32"
            },
            {
              "components": [
                {
                  "internalType": "bytes32",
                  "name": "uid",
                  "type": "bytes32"
                },
                {
                  "internalType": "uint256",
                  "name": "value",
                  "type": "uint256"
                }
              ],
              "internalType": "struct RevocationRequestData[]",
              "name": "data",
              "type": "tuple[]"
            }
          ],
          "internalType": "struct MultiRevocationRequest[]",
          "name": "multiRequests",
          "type": "tuple[]"
        }
      ],
      "name": "multiRevoke",
      "outputs": [],
      "stateMutability": "payable",
      "type": "function"
    },
    {
      "inputs": [
        {
          "components": [
            {
              "internalType": "bytes32",
              "name": "schema",
              "type": "bytes32"
            },
            {
              "components": [
                {
                  "internalType": "bytes32",
                  "name": "uid",
                  "type": "bytes32"
                },
                {
                  "internalType": "uint256",
                  "name": "value",
                  "type": "uint256"
                }
              ],
              "internalType": "struct RevocationRequestData[]",
              "name": "data",
              "type": "tuple[]"
            }
          ],
          "internalType": "struct MultiRevocationRequest[]",
          "name": "multiRequests",
          "type": "tuple[]"
        },
        {
          "internalType": "string",
          "name": "payloadHash",
          "type": "string"
        },
        {
          "internalType": "address",
          "name": "attester",
          "type": "address"
        },
        {
          "internalType": "uint256",
          "name": "nonce",
          "type": "uint256"
        },
        {
          "internalType": "uint256",
          "name": "expiry",
          "type": "uint256"
        },
        {
          "internalType": "uint8",
          "name": "v",
          "type": "uint8"
        },
        {
          "internalType": "bytes32",
          "name": "r",
          "type": "bytes32"
        },
        {
          "internalType": "bytes32",
          "name": "s",
          "type": "bytes32"
        }
      ],
      "name": "multiRevokeBySig",
      "outputs": [],
      "stateMutability": "nonpayable",
      "type": "function"
    },
    {
      "inputs": [
        {
          "components": [
            {
              "internalType": "bytes32",
              "name": "uid",
              "type": "bytes32"
            },
            {
              "components": [
                {
                  "internalType": "bytes32",
                  "name": "schema",
                  "type": "bytes32"
                },
                {
                  "components": [
                    {
                      "internalType": "address",
                      "name": "recipient",
                      "type": "address"
                    },
                    {
                      "internalType": "uint64",
                      "name": "expirationTime",
                      "type": "uint64"
                    },
                    {
                      "internalType": "bool",
                      "name": "revocable",
                      "type": "bool"
                    },
                    {
                      "internalType": "bytes32",
                      "name": "refUID",
                      "type": "bytes32"
                    },
                    {
                      "internalType": "bytes",
                      "name": "data",
                      "type": "bytes"
                    },
                    {
                      "internalType": "uint256",
                      "name": "value",
                      "type": "uint256"
                    }
                  ],
                  "internalType": "struct AttestationRequestData[]",
                  "name": "data",
                  "type": "tuple[]"
                }
              ],
              "internalType": "struct MultiAttestationRequest",
              "name": "multiRequest",
              "type": "tuple"
            },
            {
              "internalType": "uint256",
              "name": "refIdx",
              "type": "uint256"
            }
          ],
          "internalType": "struct Gap.AttestationRequestNode[]",
          "name": "requestNodes",
          "type": "tuple[]"
        }
      ],
      "name": "multiSequentialAttest",
      "outputs": [],
      "stateMutability": "nonpayable",
      "type": "function"
    },
    {
      "inputs": [
        {
          "internalType": "address",
          "name": "",
          "type": "address"
        }
      ],
      "name": "nonces",
      "outputs": [
        {
          "internalType": "uint256",
          "name": "",
          "type": "uint256"
        }
      ],
      "stateMutability": "view",
      "type": "function"
    },
    {
      "inputs": [],
      "name": "owner",
      "outputs": [
        {
          "internalType": "address",
          "name": "",
          "type": "address"
        }
      ],
      "stateMutability": "view",
      "type": "function"
    },
    {
      "inputs": [],
      "name": "renounceOwnership",
      "outputs": [],
      "stateMutability": "nonpayable",
      "type": "function"
    },
    {
      "inputs": [
        {
          "internalType": "address",
          "name": "newOwner",
          "type": "address"
        }
      ],
      "name": "transferOwnership",
      "outputs": [],
      "stateMutability": "nonpayable",
      "type": "function"
    }
  ],
  "bytecode": "0x60806040523480156200001157600080fd5b506200001c62000022565b620000e3565b600054610100900460ff16156200008f5760405162461bcd60e51b815260206004820152602760248201527f496e697469616c697a61626c653a20636f6e747261637420697320696e697469604482015266616c697a696e6760c81b606482015260840160405180910390fd5b60005460ff90811614620000e1576000805460ff191660ff9081179091556040519081527f7f26b83ff96e1f2b6a682f133852f6798a09c465da95921460cefb38474024989060200160405180910390a15b565b61280280620000f36000396000f3fe6080604052600436106100e85760003560e01c80637ecebe001161008a578063c4d66de811610059578063c4d66de814610289578063d68a5ab6146102a9578063f17325e7146102c9578063f2fde38b146102dc57600080fd5b80637ecebe00146101f65780638150864d1461022357806384b0196e146102435780638da5cb5b1461026b57600080fd5b80635ea677e9116100c65780635ea677e9146101425780635ffed2f014610162578063715018a61461019f5780637e4a7d8f146101b457600080fd5b80634cb7e9e5146100ed5780635913a31c146101025780635cad755514610122575b600080fd5b6101006100fb36600461196b565b6102fc565b005b34801561010e57600080fd5b5061010061011d36600461196b565b6104dd565b34801561012e57600080fd5b5061010061013d366004611aea565b61078f565b34801561014e57600080fd5b5061010061015d366004611aea565b610922565b34801561016e57600080fd5b5061018261017d366004611b9d565b610a68565b6040516001600160a01b0390911681526020015b60405180910390f35b3480156101ab57600080fd5b50610100610af7565b3480156101c057600080fd5b506101e87f17132900f74aadb4a80e6e5d88759b509b5a55861f3e0542632865ccc1180c4981565b604051908152602001610196565b34801561020257600080fd5b506101e8610211366004611c10565b609a6020526000908152604090205481565b34801561022f57600080fd5b50609954610182906001600160a01b031681565b34801561024f57600080fd5b50610258610b0b565b6040516101969796959493929190611c7d565b34801561027757600080fd5b506033546001600160a01b0316610182565b34801561029557600080fd5b506101006102a4366004611c10565b610bcd565b3480156102b557600080fd5b506101e86102c4366004611d47565b610d87565b6101e86102d7366004611df5565b610f2d565b3480156102e857600080fd5b506101006102f7366004611c10565b611041565b60005b8181101561047457600083838381811061031b5761031b611e32565b905060200281019061032d9190611e48565b61033690611e8c565b905060005b81602001515181101561045f57609954602083015180516000926001600160a01b03169163a3112a64918590811061037557610375611e32565b6020026020010151600001516040518263ffffffff1660e01b815260040161039f91815260200190565b600060405180830381865afa1580156103bc573d6000803e3d6000fd5b505050506040513d6000823e601f3d908101601f191682016040526103e49190810190611fe0565b60e08101519091506001600160a01b031633148061040e575060c08101516001600160a01b031633145b61044c5760405162461bcd60e51b815260206004820152600a6024820152692737ba1037bbb732b91760b11b60448201526064015b60405180910390fd5b5080610457816120d7565b91505061033b565b5050808061046c906120d7565b9150506102ff565b50609954604051634cb7e9e560e01b81526001600160a01b0390911690634cb7e9e5906104a790859085906004016120fe565b600060405180830381600087803b1580156104c157600080fd5b505af11580156104d5573d6000803e3d6000fd5b505050505050565b60008167ffffffffffffffff8111156104f8576104f86119ad565b60405190808252806020026020018201604052801561052b57816020015b60608152602001906001900390816105165790505b50905060005b8281101561078957600084848381811061054d5761054d611e32565b905060200281019061055f91906121ee565b61056d906020810190611e48565b610576906122be565b905061058581602001516110d1565b81156106675760005b816020015151811015610665576000826020015182815181106105b3576105b3611e32565b602002602001015190506000801b81606001510361065257848787868181106105de576105de611e32565b90506020028101906105f091906121ee565b604001358151811061060457610604611e32565b602002602001015160008151811061061e5761061e611e32565b6020026020010151816060018181525050808360200151838151811061064657610646611e32565b60200260200101819052505b508061065d816120d7565b91505061058e565b505b604080516001808252818301909252600091816020015b60408051808201909152600081526060602082015281526020019060019003908161067e57905050905081816000815181106106bc576106bc611e32565b60209081029190910101526099546040517f44adc90e0000000000000000000000000000000000000000000000000000000081526001600160a01b03909116906344adc90e90610710908490600401612383565b6000604051808303816000875af115801561072f573d6000803e3d6000fd5b505050506040513d6000823e601f3d908101601f19168201604052610757919081019061247f565b84848151811061076957610769611e32565b602002602001018190525050508080610781906120d7565b915050610531565b50505050565b834211156107d35760405162461bcd60e51b815260206004820152601160248201527014da59db985d1d5c9948195e1c1a5c9959607a1b6044820152606401610443565b60006107e3888787878787610a68565b9050866001600160a01b0316816001600160a01b0316146108595760405162461bcd60e51b815260206004820152602a60248201527f5369676e657220616e642061747465737465722061646472657373657320646f6044820152693713ba1036b0ba31b41760b11b6064820152608401610443565b6001600160a01b0381166000908152609a6020526040812080549161087d836120d7565b9190505586146108bf5760405162461bcd60e51b815260206004820152600d60248201526c496e76616c6964206e6f6e636560981b6044820152606401610443565b604051634cb7e9e560e01b81523090634cb7e9e5906108e4908d908d906004016120fe565b600060405180830381600087803b1580156108fe57600080fd5b505af1158015610912573d6000803e3d6000fd5b5050505050505050505050505050565b834211156109665760405162461bcd60e51b815260206004820152601160248201527014da59db985d1d5c9948195e1c1a5c9959607a1b6044820152606401610443565b6000610976888787878787610a68565b9050866001600160a01b0316816001600160a01b0316146109ec5760405162461bcd60e51b815260206004820152602a60248201527f5369676e657220616e642061747465737465722061646472657373657320646f6044820152693713ba1036b0ba31b41760b11b6064820152608401610443565b6001600160a01b0381166000908152609a60205260408120805491610a10836120d7565b919050558614610a525760405162461bcd60e51b815260206004820152600d60248201526c496e76616c6964206e6f6e636560981b6044820152606401610443565b610a5c8a8a6104dd565b50505050505050505050565b600080610add7f17132900f74aadb4a80e6e5d88759b509b5a55861f3e0542632865ccc1180c4989805190602001208989604051602001610ac2949392919093845260208401929092526040830152606082015260800190565b6040516020818303038152906040528051906020012061113c565b9050610aeb8186868661118a565b98975050505050505050565b610aff6111b2565b610b09600061120c565b565b6000606080600080600060606065546000801b148015610b2b5750606654155b610b775760405162461bcd60e51b815260206004820152601560248201527f4549503731323a20556e696e697469616c697a656400000000000000000000006044820152606401610443565b610b7f61126b565b610b876112fd565b604080516000808252602082019092527f0f000000000000000000000000000000000000000000000000000000000000009b939a50919850469750309650945092509050565b600054610100900460ff1615808015610bed5750600054600160ff909116105b80610c075750303b158015610c07575060005460ff166001145b610c795760405162461bcd60e51b815260206004820152602e60248201527f496e697469616c697a61626c653a20636f6e747261637420697320616c72656160448201527f647920696e697469616c697a65640000000000000000000000000000000000006064820152608401610443565b6000805460ff191660011790558015610c9c576000805461ff0019166101001790555b6099805473ffffffffffffffffffffffffffffffffffffffff19166001600160a01b038416179055604080518082018252600f81527f6761702d6174746573746174696f6e00000000000000000000000000000000006020808301919091528251808401909352600383527f312e30000000000000000000000000000000000000000000000000000000000090830152610d359161130c565b610d3d611381565b8015610d83576000805461ff0019169055604051600181527f7f26b83ff96e1f2b6a682f133852f6798a09c465da95921460cefb38474024989060200160405180910390a15b5050565b600084421115610dcd5760405162461bcd60e51b815260206004820152601160248201527014da59db985d1d5c9948195e1c1a5c9959607a1b6044820152606401610443565b6000610ddd898888888888610a68565b9050876001600160a01b0316816001600160a01b031614610e535760405162461bcd60e51b815260206004820152602a60248201527f5369676e657220616e642061747465737465722061646472657373657320646f6044820152693713ba1036b0ba31b41760b11b6064820152608401610443565b6001600160a01b0381166000908152609a60205260408120805491610e77836120d7565b919050558714610eb95760405162461bcd60e51b815260206004820152600d60248201526c496e76616c6964206e6f6e636560981b6044820152606401610443565b60405163f17325e760e01b8152309063f17325e790610edc908d9060040161257f565b6020604051808303816000875af1158015610efb573d6000803e3d6000fd5b505050506040513d601f19601f82011682018060405250810190610f1f919061263c565b9a9950505050505050505050565b604080516001808252818301909252600091829190816020015b6040805160c081018252600080825260208083018290529282018190526060808301829052608083015260a08201528252600019909201910181610f47579050509050610f976020840184612655565b610fa09061266b565b81600081518110610fb357610fb3611e32565b6020026020010181905250610fc7816110d1565b60995460405163f17325e760e01b81526001600160a01b039091169063f17325e790610ff790869060040161257f565b6020604051808303816000875af1158015611016573d6000803e3d6000fd5b505050506040513d601f19601f8201168201806040525081019061103a919061263c565b9392505050565b6110496111b2565b6001600160a01b0381166110c55760405162461bcd60e51b815260206004820152602660248201527f4f776e61626c653a206e6577206f776e657220697320746865207a65726f206160448201527f64647265737300000000000000000000000000000000000000000000000000006064820152608401610443565b6110ce8161120c565b50565b60005b8151811015610d83576000801b8282815181106110f3576110f3611e32565b6020026020010151606001511461112a5761112a82828151811061111957611119611e32565b6020026020010151606001516113f4565b80611134816120d7565b9150506110d4565b60006111846111496114e2565b836040517f19010000000000000000000000000000000000000000000000000000000000008152600281019290925260228201526042902090565b92915050565b600080600061119b878787876114f1565b915091506111a8816115b5565b5095945050505050565b6033546001600160a01b03163314610b095760405162461bcd60e51b815260206004820181905260248201527f4f776e61626c653a2063616c6c6572206973206e6f7420746865206f776e65726044820152606401610443565b603380546001600160a01b0383811673ffffffffffffffffffffffffffffffffffffffff19831681179093556040519116919082907f8be0079c531659141344cd1fd0a4f28419497f9722a3daafe3b4186f6b6457e090600090a35050565b60606067805461127a90612677565b80601f01602080910402602001604051908101604052809291908181526020018280546112a690612677565b80156112f35780601f106112c8576101008083540402835291602001916112f3565b820191906000526020600020905b8154815290600101906020018083116112d657829003601f168201915b5050505050905090565b60606068805461127a90612677565b600054610100900460ff166113775760405162461bcd60e51b815260206004820152602b60248201527f496e697469616c697a61626c653a20636f6e7472616374206973206e6f74206960448201526a6e697469616c697a696e6760a81b6064820152608401610443565b610d83828261171a565b600054610100900460ff166113ec5760405162461bcd60e51b815260206004820152602b60248201527f496e697469616c697a61626c653a20636f6e7472616374206973206e6f74206960448201526a6e697469616c697a696e6760a81b6064820152608401610443565b610b096117ad565b6099546040517fa3112a64000000000000000000000000000000000000000000000000000000008152600481018390526000916001600160a01b03169063a3112a6490602401600060405180830381865afa158015611457573d6000803e3d6000fd5b505050506040513d6000823e601f3d908101601f1916820160405261147f9190810190611fe0565b60e08101519091506001600160a01b03163314806114a9575060c08101516001600160a01b031633145b610d835760405162461bcd60e51b815260206004820152600a6024820152692737ba1037bbb732b91760b11b6044820152606401610443565b60006114ec611821565b905090565b6000807f7fffffffffffffffffffffffffffffff5d576e7357a4501ddfe92f46681b20a083111561152857506000905060036115ac565b6040805160008082526020820180845289905260ff881692820192909252606081018690526080810185905260019060a0016020604051602081039080840390855afa15801561157c573d6000803e3d6000fd5b5050604051601f1901519150506001600160a01b0381166115a5576000600192509250506115ac565b9150600090505b94509492505050565b60008160048111156115c9576115c96126ab565b036115d15750565b60018160048111156115e5576115e56126ab565b036116325760405162461bcd60e51b815260206004820152601860248201527f45434453413a20696e76616c6964207369676e617475726500000000000000006044820152606401610443565b6002816004811115611646576116466126ab565b036116935760405162461bcd60e51b815260206004820152601f60248201527f45434453413a20696e76616c6964207369676e6174757265206c656e677468006044820152606401610443565b60038160048111156116a7576116a76126ab565b036110ce5760405162461bcd60e51b815260206004820152602260248201527f45434453413a20696e76616c6964207369676e6174757265202773272076616c60448201527f75650000000000000000000000000000000000000000000000000000000000006064820152608401610443565b600054610100900460ff166117855760405162461bcd60e51b815260206004820152602b60248201527f496e697469616c697a61626c653a20636f6e7472616374206973206e6f74206960448201526a6e697469616c697a696e6760a81b6064820152608401610443565b6067611791838261270c565b50606861179e828261270c565b50506000606581905560665550565b600054610100900460ff166118185760405162461bcd60e51b815260206004820152602b60248201527f496e697469616c697a61626c653a20636f6e7472616374206973206e6f74206960448201526a6e697469616c697a696e6760a81b6064820152608401610443565b610b093361120c565b60007f8b73c3c69bb8fe3d512ecc4cf759cc79239f7b179b0ffacaa9a75d522b39400f61184c611895565b6118546118ee565b60408051602081019490945283019190915260608201524660808201523060a082015260c00160405160208183030381529060405280519060200120905090565b6000806118a061126b565b8051909150156118b7578051602090910120919050565b60655480156118c65792915050565b7fc5d2460186f7233c927e7db2dcc703c0e500b653ca82273b7bfad8045d85a4709250505090565b6000806118f96112fd565b805190915015611910578051602090910120919050565b60665480156118c65792915050565b60008083601f84011261193157600080fd5b50813567ffffffffffffffff81111561194957600080fd5b6020830191508360208260051b850101111561196457600080fd5b9250929050565b6000806020838503121561197e57600080fd5b823567ffffffffffffffff81111561199557600080fd5b6119a18582860161191f565b90969095509350505050565b634e487b7160e01b600052604160045260246000fd5b6040805190810167ffffffffffffffff811182821017156119e6576119e66119ad565b60405290565b604051610140810167ffffffffffffffff811182821017156119e6576119e66119ad565b604051601f8201601f1916810167ffffffffffffffff81118282101715611a3957611a396119ad565b604052919050565b600067ffffffffffffffff821115611a5b57611a5b6119ad565b50601f01601f191660200190565b600082601f830112611a7a57600080fd5b8135611a8d611a8882611a41565b611a10565b818152846020838601011115611aa257600080fd5b816020850160208301376000918101602001919091529392505050565b6001600160a01b03811681146110ce57600080fd5b803560ff81168114611ae557600080fd5b919050565b60008060008060008060008060006101008a8c031215611b0957600080fd5b893567ffffffffffffffff80821115611b2157600080fd5b611b2d8d838e0161191f565b909b50995060208c0135915080821115611b4657600080fd5b50611b538c828d01611a69565b97505060408a0135611b6481611abf565b955060608a0135945060808a01359350611b8060a08b01611ad4565b925060c08a0135915060e08a013590509295985092959850929598565b60008060008060008060c08789031215611bb657600080fd5b863567ffffffffffffffff811115611bcd57600080fd5b611bd989828a01611a69565b9650506020870135945060408701359350611bf660608801611ad4565b92506080870135915060a087013590509295509295509295565b600060208284031215611c2257600080fd5b813561103a81611abf565b60005b83811015611c48578181015183820152602001611c30565b50506000910152565b60008151808452611c69816020860160208601611c2d565b601f01601f19169290920160200192915050565b7fff00000000000000000000000000000000000000000000000000000000000000881681526000602060e081840152611cb960e084018a611c51565b8381036040850152611ccb818a611c51565b606085018990526001600160a01b038816608086015260a0850187905284810360c0860152855180825283870192509083019060005b81811015611d1d57835183529284019291840191600101611d01565b50909c9b505050505050505050505050565b600060408284031215611d4157600080fd5b50919050565b600080600080600080600080610100898b031215611d6457600080fd5b883567ffffffffffffffff80821115611d7c57600080fd5b611d888c838d01611d2f565b995060208b0135915080821115611d9e57600080fd5b50611dab8b828c01611a69565b9750506040890135611dbc81611abf565b95506060890135945060808901359350611dd860a08a01611ad4565b925060c0890135915060e089013590509295985092959890939650565b600060208284031215611e0757600080fd5b813567ffffffffffffffff811115611e1e57600080fd5b611e2a84828501611d2f565b949350505050565b634e487b7160e01b600052603260045260246000fd5b60008235603e19833603018112611e5e57600080fd5b9190910192915050565b600067ffffffffffffffff821115611e8257611e826119ad565b5060051b60200190565b60006040808336031215611e9f57600080fd5b611ea76119c3565b8335815260208085013567ffffffffffffffff811115611ec657600080fd5b850136601f820112611ed757600080fd5b8035611ee5611a8882611e68565b81815260069190911b82018301908381019036831115611f0457600080fd5b928401925b82841015611f4457868436031215611f215760008081fd5b611f296119c3565b84358152858501358682015282529286019290840190611f09565b93850193909352509195945050505050565b67ffffffffffffffff811681146110ce57600080fd5b8051611ae581611f56565b8051611ae581611abf565b80151581146110ce57600080fd5b8051611ae581611f82565b600082601f830112611fac57600080fd5b8151611fba611a8882611a41565b818152846020838601011115611fcf57600080fd5b611e2a826020830160208701611c2d565b600060208284031215611ff257600080fd5b815167ffffffffffffffff8082111561200a57600080fd5b90830190610140828603121561201f57600080fd5b6120276119ec565b825181526020830151602082015261204160408401611f6c565b604082015261205260608401611f6c565b606082015261206360808401611f6c565b608082015260a083015160a082015261207e60c08401611f77565b60c082015261208f60e08401611f77565b60e08201526101006120a2818501611f90565b9082015261012083810151838111156120ba57600080fd5b6120c688828701611f9b565b918301919091525095945050505050565b6000600182016120f757634e487b7160e01b600052601160045260246000fd5b5060010190565b60208082528181018390526000906040808401600586901b8501820187855b888110156121e057878303603f190184528135368b9003603e1901811261214357600080fd5b8a01803584528386018782013536839003601e1901811261216357600080fd5b90910187810191903567ffffffffffffffff81111561218157600080fd5b8060061b360383131561219357600080fd5b85890188905290819052600090606086015b818310156121cb5783358152898401358a820152928801926001929092019188016121a5565b9689019695505050918601915060010161211d565b509098975050505050505050565b60008235605e19833603018112611e5e57600080fd5b600060c0828403121561221657600080fd5b60405160c0810167ffffffffffffffff828210818311171561223a5761223a6119ad565b816040528293508435915061224e82611abf565b90825260208401359061226082611f56565b8160208401526040850135915061227682611f82565b81604084015260608501356060840152608085013591508082111561229a57600080fd5b506122a785828601611a69565b60808301525060a083013560a08201525092915050565b6000604082360312156122d057600080fd5b6122d86119c3565b8235815260208084013567ffffffffffffffff808211156122f857600080fd5b9085019036601f83011261230b57600080fd5b8135612319611a8882611e68565b81815260059190911b8301840190848101903683111561233857600080fd5b8585015b83811015612370578035858111156123545760008081fd5b6123623689838a0101612204565b84525091860191860161233c565b5094860194909452509295945050505050565b60006020808301818452808551808352604092508286019150828160051b87010184880160005b838110156121e057888303603f1901855281518051845287015187840187905280518785018190529088019060609081860190600581901b8701830160005b8281101561246857605f19898303018452855160c06001600160a01b03825116845267ffffffffffffffff8f830151168f8501528d82015115158e8501528682015187850152608080830151828287015261244683870182611c51565b60a09485015196909401959095525050958d0195938d019391506001016123e9565b50988b0198965050509288019250506001016123aa565b6000602080838503121561249257600080fd5b825167ffffffffffffffff8111156124a957600080fd5b8301601f810185136124ba57600080fd5b80516124c8611a8882611e68565b81815260059190911b820183019083810190878311156124e757600080fd5b928401925b82841015612505578351825292840192908401906124ec565b979650505050505050565b6000808335601e1984360301811261252757600080fd5b830160208101925035905067ffffffffffffffff81111561254757600080fd5b80360382131561196457600080fd5b81835281816020850137506000828201602090810191909152601f909101601f19169091010190565b60208152813560208201526000602083013560be198436030181126125a357600080fd5b604083810152830180356125b681611abf565b6001600160a01b0316606084015260208101356125d281611f56565b67ffffffffffffffff16608084015260408101356125ef81611f82565b151560a0840152606081013560c084015261260d6080820182612510565b60c060e086015261262361012086018284612556565b91505060a0820135610100850152809250505092915050565b60006020828403121561264e57600080fd5b5051919050565b6000823560be19833603018112611e5e57600080fd5b60006111843683612204565b600181811c9082168061268b57607f821691505b602082108103611d4157634e487b7160e01b600052602260045260246000fd5b634e487b7160e01b600052602160045260246000fd5b601f82111561270757600081815260208120601f850160051c810160208610156126e85750805b601f850160051c820191505b818110156104d5578281556001016126f4565b505050565b815167ffffffffffffffff811115612726576127266119ad565b61273a816127348454612677565b846126c1565b602080601f83116001811461276f57600084156127575750858301515b600019600386901b1c1916600185901b1785556104d5565b600085815260208120601f198616915b8281101561279e5788860151825594840194600190910190840161277f565b50858210156127bc5787850151600019600388901b60f8161c191681555b5050505050600190811b0190555056fea26469706673582212209d295fc07ad69dc0e81e72abc01012614638b062bf313c22b8963e0db80fb9bb64736f6c63430008130033",
  "linkReferences": {},
  "deployedLinkReferences": {}
}